:1009050008570000000000000000083B050A0A0A1D
:100915000A0A0A0A08300000000000000000032847
:0609250011595601501E9D
:100BF900E4F556F525F526F53AF551F552F52CFFAC
:100C0900EFC39403748094805009742D2FF8E4F68F
:030C19000F80ED5C
:010C1C0022B5
:100C9E00E4FFEFC3940874809480500F743B2FF8D8
:0B0CAE00760A74302FF8E4F60F80E7A0
:010CB9002218
:10099600C3E54794C8E5469400400BD3E54794D099
:1009A600E54694074006E4FFFEFDFC22E5472438B1
:1009B600FFE54634FFFEEF25E0FFEE33FE7C007DCB
:0F09C6002D1202E4EF240AFDE43EFCE41201C905
:0109D50022FF
:10074300E54560030207FE75450112088B8F21E51D
:10075300236521FF5521F522E521F45FF524852149
:1007630023E52264047011120C9E0553E55375F0C2
:10077300038485F053E4F527E55364017014E522FF
:100783006405700E120C9E0527E52775F00384851A
:10079300F027AF537E00EF64027036AD22FCED64A8
:1007A3000870170550D3E550946374809480400417
:1007B3007B638002AB508B508017ED64094C701142
:1007C3001550C37480948050047D008002AD508D19
:1007D30050EF64014E7024E5276402701EE5226425
:1007E300097002D202E52464097010C3E54C94D069
:0B07F300E54B94074003120BF9C20213
:0107FE0022D8
:10034700E54445436003020648F5437544017F01D0
:10035700120B5BE54FD3943274809480401BEF946B
:100367003274809480501220040FD204052CE52C9F
:1003770064647015752C63801030040DC3E54E94CA
:10038700B8E54D940B4002C2048F4F2004030204CA
:10039700EE753D0A753C0AE4F536753B10120AF610
:1003A700E4FBFA7920784112001E1202028E088FB0
:1003B70009120996E4FBFA7920784112001E12020D
:1003C700028E0A8F0BAE08AF097C007D641202E42F
:1003D7007C007D0A1202E48D3EAE08AF097C007DE9
:1003E7000A1202E47C007D0A1202E48D3F75400B7D
:1003F700E50B450A700B152CD20575411175421195
:10040700227B007A00792D120B2AC205E55075F080
:100417000AA4FFD3E5099FE50895F04003D38001BF
:10042700C39201C3E52C940274809480401AD3E5EB
:100437000B9555E50A9554400FD3E5099539E5081D
:1004470095384004D2038002C203850A54850B55B0
:10045700850838850939AE0AAF0B7C007D64120226
:10046700E47C007D0A1202E48D41AE0AAF0B7C00EA
:100477007D0A1202E47C007D0A1202E48D42D3E574
:10048700569509E495084004AF568002AF098F5688
:10049700D3E53A950BE4950A4004AF3A8002AF0BD7
:1004A7008F3AE52C24FFFBE434FFFAAC25AD26AFE9
:1004B70003FE1202D2E5092FFFE5083EFEAD2C7CB4
:1004C700001202E48E258F26AC51AD52AF03AE0267
:1004D7001202D2E50B2FFFE50A3EFEAD2C7C00127F
:1004E70002E48E518F5222E55314604214700302C6
:1004F700062F240260030206487B007A007928123F
:100507000B2AE528C4540FF53BE528540FF53C7535
:100517003D0BE529C4540FF53EE529540FF53F750A
:10052700400BE52AC4540FF541E52A02062AE527C0
:1005370014605E1470030205F42402600302064887
:10054700753B0CE52C7003020648E55675F00A84E6
:1005570075F00A8485F03DE55675F00A8485F03E0E
:10056700753F0BAE25AF267C007D641202E47C004C
:100577007D0A1202E48D40AE25AF267C007D0A126B
:1005870002E47C007D0A1202E48D41AE25AF26808D
:100597004F753B0DE52C7003020648E53A75F00AE6
:1005A7008475F00A8485F03DE53A75F00A8485F094
:1005B7003E753F0BAE51AF527C007D641202E47C66
:1005C700007D0A1202E48D40AE51AF527C007D0AD5
:1005D7001202E47C007D0A1202E48D41AE51AF5253
:1005E7007C007D0A1202E48D4275360122753B0EAE
:1005F700E52C75F00A8475F00A8485F03CE52C75C6
:10060700F00A8485F03DE52C6037E52DC4540FF5DD
:100617003EE52D540FF53F75400BE52EC4540FF5FD
:1006270041E52E540FF54222753B0FE55075F00A50
:100637008475F00A8485F041E55075F00A8485F0E9
:010647004270
:01064800228F
:10095000AF537E00EF70047D0180027D008D57EF64
:1009600064014E70047F0180027F008F58E553645C
:100970000270047F0180027F008F59300107A200BE
:10098000E433FF80027F008F5AA205E433F55BA2B7
:0609900003E433F55C22D4
:100D2E00538E7F5389F0438905E4F58AF58CC28D85
:030D3E00D28C2232
:100CF000538EBF53890F758B18758DFCC28FD28EA2
:050D0000D2ABD2AF22CE
:03001B0002064991
:10064900C0E0C0F0C083C082C0D075D000C000C077
:1006590001C002C003C004C005C006C0070545E5C6
:1006690045640A7002F5450544E544700205436492
:10067900C845437004F543F5440548E548640870E6
:1006890002F548054AE54A70020549FFAE49BE032D
:1006990019BFE816754900754A00AF8CEFAD8AF5A8
:1006A90046EDF547758C00758A00300419054EE54D
:1006B9004E7002054DC394B8E54D940B400E754D2F
:1006C9000B754EB98006754D00754E00300219053F
:1006D9004CE54C7002054BC394D0E54B9407400E92
:1006E900754B07754CD18006754B00754C00052B71
:1006F900E52B64647007F52BA200B39200743B25C7
:1007090048F8E6FD74302548F8E6FBAF48120A8B35
:1007190074572548F8E624FF9206AF48120A51D0CB
:1007290007D006D005D004D003D002D001D000D024
:0A073900D0D082D083D0F0D0E0329F
:0E0D410000007F237E337DB6DDFEDEFCDFFA90
:010D4F002281
:100C1D00120C81120D2E120CF07B007A0079281225
:100C2D0009D6120D41120AF6120743120347120993
:030C3D005080F5EF
:10088B00E4FFC2A9C2C4D2C2D2B5D2B420B3027F94
:10089B000420B2027F0520B1027F0620B0027F0741
:1008AB00D2C4C2C2D2B5D2B420B3027F0820B202E6
:1008BB007F0920B1027F0A20B0027F0BD2C4D2C2C3
:1008CB00C2B5D2B420B3027F0C20B2027F0D20B18F
:1008DB00027F0E20B0027F0FD2C4D2C2D2B5C2B4F7
:1008EB0020B3027F1020B2027F1120B1027F1220B1
:0908FB00B0027F13D2A975B0FF11
:0109040022D0
:100CBA00E4FEEEC3940874809480500FC297EF1339
:0B0CCA0092A3EFC313FFD2970E80E748
:010CD50022FC
:100D1A00C29300C29700D29300120CBAAF05120C0C
:040D2A00BAC2932294
:100A1400E4FDC29300C29700D29300120CBAE4FF23
:100A2400EFC39408748094805011C297EDC313FDF2
:100A340030A303430580D2970F80E5C29300C29789
:0C0A440000D29700C2A300D2A300AF05AF
:010A50002283
:0609D6008B088A09890A62
:1009DC00E4FD7F8E120D1AE4FCECC3940374809436
:1009EC0080501EEC25E0FFC374849FFFAB08AA095E
:1009FC00A90A8C82758300120283FD120D1A0C80D9
:080A0C00D87D807F8E020D1AD7
:060B2A008B0C8A0D890E00
:100B3000E4FCECC3940374809480501EEC25E0FF29
:100B4000C374859FFF120A14AB0CAA0DA90E8C82E8
:0A0B5000758300EF1202B00C80D88C
:010B5A002278
:040CD600D2A07F0524
:100CDA00000000000000000000000000000000AE5C
:060CEA00071FEE70EB2273
:0F0D5000D2A1120CD6C2A17F05120CDAC2A022CA
:0C0D5F00C2A1120CD6D2A17F05020CDA52
:020AC100AD077F
:100AC300E4FCECC39408748094805024C2A07F0596
:100AD300120CDAED30E704D2A18002C2A17F051225
:100AE3000CDAD2A0ED25E0FD7F05120CDA0C80D2E2
:020AF300C2A09F
:010AF50022DE
:100BD300E4FCECC39408748094805017120CD6ED97
:100BE30025E0FD30A103430501C2A07F05120CDA05
:050BF3000C80DFAF05DE
:010BF80022DA
:030D0500120AC10E
:100D0800120CD6A2A1E433FDC2A07F05120CDAAF03
:010D180005D5
:010D190022B7
:10000300C2A0EF24FF92A17F05120CDA120CD6C214
:08001300A0D2A17F05020CDA66
:020B5B00AB07E6
:100B5D00120D507F90120D05AF03120D05120D50A1
:100B6D007F91120AC1120D08120BD3AD077F01122E
:070B7D000003120D5FAF053C
:010B8400224E
:100C81007580FFE5A0541F4480F5A053A01FE4F533
:0D0C910080E5A0541F44A0F5A053A01F2231
:06092B00010F000110FFA6
:100A510030060FA8077401088002C333D8FC420F87
:100A6100800EA8077401088002C333D8FCF4520F2A
:100A7100E50F65106013E50FF4F580E5A0541F4400
:090A810080F5A053A01F850F10A1
:010A8A002249
:040C63007F057E008B
:100C6700EF1FAA0670011E4A600FE4FDEDC3940C46
:090C77007480948050EA0D80F3B2
:010C80002251
:020B8500A907BE
:100B8700E4FBEBC39408748094805012C294E91379
:100B97009294120C63D294E9C313F90B80E47F0596
:050BA7007E00020C6756
:100C4000E4FBEBC39408748094805014C294ECC30A
:100C500013FCD294309403430480120C630B80E2A3
:020C6000AF04DF
:010C6200226F
:100BAC00C207D2947F0C7E00120C67C2947F507ED9
:100BBC0000120C67D2947F0A7E00120C67A29492EA
:060BCC0007120C63A207F2
:010BD2002200
:100AF600120BAC7FCC120B857F44120B85120BAC0C
:100B06007FCC120B857FBE120B85120C40A90712F3
:100B16000C40EFAD01FCEC1201C9E4FBFA798078D8
:040B26004102012760
:10093100125FC0F9A4B0999282F88090FFBFC68976
:0E0941008E8C86880871010204081020408008
:100A8B007580FFE5A0541F44E0F5A074712FF8E6C4
:100A9B00F580E5A0541F44C0F5A053A01F745F2D33
:100AAB00F8E6F580EB600353807FE5A0541F44E02C
:060ABB00F5A053A01F226C
:10001E00EC4D6011E8497017ED33EC3304600DE4DC
:10002E00FCFFFEFD22E933E8330470F802026E1283
:10003E00023958046009E4CC248150062850090284
:10004E000278284003020275C0E0EB4A7044B98082
:10005E0006D0E0FB020264EF4E701CBD8008EBFF81
:10006E00EAFEE9FD80EBE98DF0A4FEE5F002010762
:10007E00E9CDF9EAFEEBFFEF89F0A4FCE5F0CE89BD
:10008E00F0A42EFFE435F0CD89F0A42DFEE435F07A
:10009E008067EF4E7005BD80D780C3EF8BF0A4ACA8
:1000AE00F0EE8BF0A42CFCE435F0F8EF8AF0A42CE3
:1000BE00E5F038FCE433CB8DF0A42CFCE5F03BF8F6
:1000CE00EE8AF0A42CFCE5F038F8E433CF89F0A4E6
:1000DE002CFCE5F038CF3400CE89F0A42FFFE5F0EC
:1000EE003EFEE433C98DF0A42EFEE5F039CD8AF044
:1000FE00A42FFFE5F03EFEE43DFD33D0E0FB5007BC
:10010E000BBB000F020278EC2CFCEF33FFEE33FE3C
:06011E00ED33FD0202506A
:10012400020278EC5D046005E85904700302026E73
:10013400120239580460F6EC4860F2EC7004FDFEDB
:10014400FF22C860DB2481C85009C39860025006AE
:100154000202759850CAF582E9294B4A7005AB82B0
:1001640002026475F0007C1A7880C3EF9BEE9AED6E
:1001740099400DC3EF9BFFEE9AFEED99FDE842F026
:10018400DC23ACF0D0E0FFD0E0FED0E0FDAB822079
:10019400E7101BEB60BAEC2CFCEF33FFEE33FEED03
:1001A40033FD020250E803F830E705C0F075F000B3
:1001B400EF2FFFEE33FEED33FD40B830E7C280AAE7
:1001C40075F020800E75F010800575F0087D007EB6
:1001D400007F003392D530D503120339EC3340103D
:1001E400EF33FFEE33FEED33FDEC33FCD5F0ED22BF
:0E01F400E5F0247EA2D513CC92E7CDCEFF22FB
:10020200EDD2E7CD33EC3392D524814006E4FFFEF4
:10021200FDFC22FCE4CFCECDCC24E0501174FF8053
:10022200EDC3CC13CCCD13CDCE13CECF13CF0470F0
:07023200F030D5DE020339B4
:10023900E9D2E7C933E833F892D5EDD2E7CD33EC0B
:0702490033FC5002B2D52284
:10025000EC30E7100FBF000C0EBE00080DBD00040F
:100260000BEB6014A2D5EB13FCED92E7FD2274FFBB
:10027000FCFDFEFF22E480F8A2D574FF13FC7D8014
:03028000E480EF28
:030000000207FFF5
:0C07FF00787FE4F6D8FD7581780208468A
:10028300BB010CE58229F582E5833AF583E0225030
:1002930006E92582F8E622BBFE06E92582F8E2227A
:0D02A300E58229F582E5833AF583E4932294
:1002B000F8BB010DE58229F582E5833AF583E8F084
:1002C000225006E92582C8F622BBFE05E92582C830
:0202D000F22218
:1002D200EF8DF0A4A8F0CF8CF0A428CE8DF0A42E40
:0202E200FE22FA
:1002E400BC000BBE0029EF8DF084FFADF022E4CCFE
:1002F400F875F008EF2FFFEE33FEEC33FCEE9DECC7
:10030400984005FCEE9DFE0FD5F0E9E4CEFD22ED0C
:10031400F8F5F0EE8420D21CFEADF075F008EF2F56
:10032400FFED33FD4007985006D5F0F222C398FD47
:050334000FD5F0EA22E4
:0E033900C3E49FFFE49EFEE49DFDE49CFC22D5
:10080B00020C1DE493A3F8E493A34003F68001F2DA
:10081B0008DFF48029E493A3F85407240CC8C333EE
:10082B00C4540F4420C8834004F456800146F6DFBD
:10083B00E4800B0102040810204080900905E47E3F
:10084B00019360BCA3FF543F30E509541FFEE493B2
:10085B00A360010ECF54C025E060A840B8E493A379
:10086B00FAE493A3F8E493A3C8C582C8CAC583CAA4
:10087B00F0A3C8C582C8CAC583CADFE9DEE780BE5C
:01094F0000A7
:00000001FF
