:10042900085100000000000000000844050A0A0AFB
:100439000A0A0A0A08280000000000000000032533
:030449001311117B
:10083F00E54F701A754F011203AF8F21E524652123
:0E084F00FF5521F522E521F45FF523852124D4
:01085D002278
:08000300E54D7003754D01226B
:01099800223C
:10074800E54C701F754C01E530B44F17E531B44BDB
:10075800127E007F147D007B007A007930120273CC
:04076800E4F54E2244
:10000E00538E7F5389F0758A18758CFCC28DD28CF5
:05001E00D2A9D2AF22BF
:03000B0002032BC2
:10032B00C0E0C0F0C083C082C0D075D000C000C098
:10033B0001C002C003C004C005C006C007054FE5DD
:10034B004F640A7002F54F054DAF4D7E00BE01069E
:10035B00BFF403754D00054CE54C64C87002F54CB9
:10036B000550E55064087002F55074442550F8E6CA
:10037B00FD74282550F8E6FBAF501205AD745125DE
:10038B0050F8E6FDAF5012053AD007D006D005D095
:10039B0004D003D002D001D000D0D0D082D083D0F3
:0403AB00F0D0E0327C
:0300230002085E72
:10085E00C0E0C0D075D000C00030980B7430254E6B
:0E086E00F8A699054EC298D000D0D0D0E03246
:0E095F0000007F237E337DB6DDFEDEFCDFFA76
:01096D002267
:1007900012000E12091F7B007A0079251204BF1285
:1007A000095F12061812083F1200031207481209C7
:0307B0009880F23C
:10044C00015900015AFF015B00015CFF015D0001D5
:08045C005EFF015F000160FF7B
:10053A00ED600FA8077401088002C333D8FC425942
:10054A00800EA8077401088002C333D8FCF45259FC
:10055A00E559655A6013E559F4F580E5A0541F443E
:09056A0080F5A053A01F85595A29
:010573002265
:1007B300300005435B408003535BBFE55B655C60D2
:1007C30011855B80E5A0541F44A0F5A053A01F85AD
:0207D3005B5C6D
:0107D5002201
:1007D600300105435D108003535DEFE55D655E60A6
:1007E60011855D80E5A0541F44A0F5A053A01F8588
:0207F6005D5E46
:0107F80022DE
:1007F900300205435F208003535FDFE55F6560607A
:1008090011855F80E5A0541F44A0F5A053A01F8562
:020819005F601E
:01081B0022BA
:100464000C08C0F9A4B0999282F88090FF8808140F
:08047400010204081020408081
:1005AD007580FFE5A0541F44E0F5A074142FF8E604
:1005BD00F580E5A0541F44C0F5A053A01F74082D6D
:1005CD00F8E6F580EB600353807FE5A0541F44E00F
:0605DD00F5A053A01F224F
:1003AF00E4FFC2A9C2C4D2C2D2B5D2B420B3027F75
:1003BF000420B2027F0520B1027F0620B0027F0722
:1003CF00D2C4C2C2D2B5D2B420B3027F0820B202C7
:1003DF007F0920B1027F0A20B0027F0BD2C4D2C2A4
:1003EF00C2B5D2B420B3027F0C20B2027F0D20B170
:1003FF00027F0E20B0027F0FD2C4D2C2D2B5C2B4D8
:10040F0020B3027F1020B2027F1120B1027F122091
:09041F00B0027F13D2A975B0FFF1
:0104280022B1
:10089A007580FFE5A0541F4480F5A053A01FE4F51E
:0D08AA0080E5A0541F44A0F5A053A01F221C
:10091F00759850438E01438E0475D7C775D6FE4325
:07092F008E10D2ACD2AF2202
:080989008F993099FDC29922FB
:1008B700E4FEEEC3940874809480500FC297EF1340
:0B08C70092A3EFC313FFD2970E80E74F
:0108D2002203
:10094B00C29300C29700D293001208B7AF051208EA
:04095B00B7C293226A
:1004FD00E4FDC29300C29700D293001208B7E4FF47
:10050D00EFC39408748094805011C297EDC313FD0E
:10051D0030A303430580D2970F80E5C29300C297A5
:0C052D0000D29700C2A300D2A300AF05CB
:01053900229F
:0604BF008B6B8A6C896D55
:1004C500E4FD7F8E12094BE4FCECC3940374809425
:1004D50080501EEC25E0FFC374849FFFAB6BAA6CB4
:1004E500A96D8C82758300120204FD12094B0C80E4
:0804F500D87D807F8E02094BC7
:06067E008B1C8A1D891E81
:10068400E4FCECC3940374809480501EEC25E0FFDA
:10069400C374859FFF1204FDAB1CAA1DA91E8C8286
:0A06A400758300EF1202430C80D8AA
:0106AE002229
:0408D300D2A07F052B
:1008D700000000000000000000000000000000AE63
:0608E700071FEE70EB227A
:0F096E00D2A11208D3C2A17F051208D7C2A022BE
:0C097D00C2A11208D3D2A17F050208D746
:0205E300AD0762
:1005E500E4FCECC39408748094805024C2A07F0579
:1005F5001208D7ED30E704D2A18002C2A17F05120F
:1006050008D7D2A0ED25E0FD7F051208D70C80D2D2
:02061500C2A081
:0106170022C0
:1006FD00E4FCECC394087480948050171208D3ED79
:10070D0025E0FD30A103430501C2A07F051208D7E6
:05071D000C80DFAF05B8
:0107220022B4
:10076C00AB0512096E7FA01205E312077EAF0312D0
:02077C0005E393
:10077E001208D3A2A1E433FDC2A07F051208D7AFA1
:01078E000565
:01078F002247
:10090700C2A0EF24FF92A17F051208D71208D3C215
:08091700A0D2A17F050208D760
:02072300AB0722
:1007250012096E7F9012077312096E7F911205E30D
:1007350012077E1206FDAD077F0112090712097D1A
:02074500AF05FE
:01074700228F
:10093600AB0712096E7F901205E312077E7F411204
:05094600077302097DAA
:10064C008B618A62896312076CAF651565EF601F59
:10065C00AB610563E563AA627002056214F91201CD
:10066C00EBFF1205E312077E7FC81208D780DA026F
:02067C00097DF6
:10047D008B668A67896812076C12096E7FA1120557
:10048D00E312077EAF6A156AEF60241206FDAB66B4
:10049D000568E568AA677002056714F9EF12023165
:1004AD00E56A6004E4FF80027F0112090780D5022E
:0204BD00097DB7
:04087C007F057E0076
:10088000EF1FAA0670011E4A600FE4FDEDC3940C31
:090890007480948050EA0D80F39D
:01089900223C
:0206AF00A90799
:1006B100E4FBEBC39408748094805012C294E91354
:1006C100929412087CD294E9C313F90B80E47F055C
:0506D1007E000208801C
:10081C00E4FBEBC39408748094805014C294ECC332
:10082C0013FCD29430940343048012087C0B80E2B6
:02083C00AF0407
:01083E002297
:1006D600C203D2947F0C7E00120880C2947F507EA3
:1006E60000120880D2947F0A7E00120880A294929B
:0606F6000312087CA203C0
:0106FC0022DB
:100618001206D67FCC1206AF7F441206AF1206D65A
:100628007FCC1206AF7FBE1206AF12081CA90712B4
:10063800081CEFAD01FCEC120131E4FBFA7980787B
:040648003D02002649
:0609910000007F21DFFEE3
:01099700223D
:1008ED00E4FEEEC3940874809480500DD2901209EA
:0908FD0091C2901209910E80E9EC
:0109060022CE
:1005740053890FE4F58BF58D1208EDD28E3091037B
:10058400308FFAC28E208F1CAF8DEFFEAD8BEDFF46
:10059400AC06E41201317B967A43798B783C1200E5
:0805A4002602016AC28F7F00EC
:0105AC00222C
:10002600EC4D6011E8497017ED33EC3304600DE4D4
:10003600FCFFFEFD22E933E8330470F80201D61214
:1000460001A158046009E4CC248150062850090215
:1000560001E02840030201DDC0E0EB4A7044B980AC
:1000660006D0E0FB0201CCEF4E701CBD8008EBFF12
:10007600EAFEE9FD80EBE98DF0A4FEE5F002010F52
:10008600E9CDF9EAFEEBFFEF89F0A4FCE5F0CE89B5
:10009600F0A42EFFE435F0CD89F0A42DFEE435F072
:1000A6008067EF4E7005BD80D780C3EF8BF0A4ACA0
:1000B600F0EE8BF0A42CFCE435F0F8EF8AF0A42CDB
:1000C600E5F038FCE433CB8DF0A42CFCE5F03BF8EE
:1000D600EE8AF0A42CFCE5F038F8E433CF89F0A4DE
:1000E6002CFCE5F038CF3400CE89F0A42FFFE5F0E4
:1000F6003EFEE433C98DF0A42EFEE5F039CD8AF03C
:10010600A42FFFE5F03EFEE43DFD33D0E0FB5007B3
:100116000BBB000F0201E0EC2CFCEF33FFEE33FECD
:06012600ED33FD0201B8FB
:10012C0075F020800E75F010800575F0087D007E4E
:10013C00007F003392D530D503120265EC334010AA
:10014C00EF33FFEE33FEED33FDEC33FCD5F0ED2257
:0E015C00E5F0247EA2D513CC92E7CDCEFF2293
:10016A00EDD2E7CD33EC3392D524814006E4FFFE8D
:10017A00FDFC22FCE4CFCECDCC24E0501174FF80EC
:10018A00EDC3CC13CCCD13CDCE13CECF13CF047089
:07019A00F030D5DE02026522
:1001A100E9D2E7C933E833F892D5EDD2E7CD33ECA4
:0701B10033FC5002B2D5221D
:1001B800EC30E7100FBF000C0EBE00080DBD0004A8
:1001C8000BEB6014A2D5EB13FCED92E7FD2274FF54
:1001D800FCFDFEFF22E480F8A2D574FF13FC7D80AD
:0301E800E480EFC1
:0300000002029F5A
:0C029F00787FE4F6D8FD75816D0202E660
:1001EB00BB010689828A83E0225002E722BBFE0212
:0901FB00E32289828A83E4932245
:10020400BB010CE58229F582E5833AF583E02250AF
:1002140006E92582F8E622BBFE06E92582F8E222F9
:0D022400E58229F582E5833AF583E4932213
:10023100BB010689828A83F0225002F722BBFE01AC
:02024100F322A6
:10024300F8BB010DE58229F582E5833AF583E8F0F1
:10025300225006E92582C8F622BBFE05E92582C89D
:02026300F22285
:0E026500C3E49FFFE49EFEE49DFDE49CFC22AA
:10027300EF4E6012EF60010EEDBB010B89828A83A2
:10028300F0A3DFFCDEFA2289F05007F709DFFCA9AF
:0C029300F022BBFEFCF309DFFCA9F02206
:1002AB00020790E493A3F8E493A34003F68001F2D2
:1002BB0008DFF48029E493A3F85407240CC8C33354
:1002CB00C4540F4420C8834004F456800146F6DF23
:1002DB00E4800B0102040810204080900429E47E86
:1002EB00019360BCA3FF543F30E509541FFEE49318
:1002FB00A360010ECF54C025E060A840B8E493A3DF
:10030B00FAE493A3F8E493A3C8C582C8CAC583CA09
:10031B00F0A3C8C582C8CAC583CADFE9DEE780BEC1
:01047C00007F
:00000001FF
