:0A0E0B0004080C10090D110A0E1264
:1008B80008470A0A0A0A0A0A0A0A08350000000054
:1008C8000000000008590000000000000000087C3B
:1008D800010203040506070808840B0B0B0B0B0B1E
:0708E8000B0B0326235955F9
:100C9400E4FFEFC3940874809480501574472FF8D0
:100CA400E4F674352FF8E4F674592FF8E4F60F805F
:010CB400E15E
:010CB500221C
:030E2C00020C9421
:10047000E55260030205A07552011208458F22E57E
:10048000246522FF5522F523E522F45FF525852218
:1004900024E55614700302058B0460030205A0C313
:0E04A000E557940874809480504BE523604724
:1004AE0078627C007D007BFF7A0E790B7E007F0ADE
:1004BE0012035BE4F561AF617E00C3EF940A7480B2
:1004CE009480500E74622561F8E665236004056120
:1004DE0080E4EF640A4E7006E5236412700974849A
:0704EE002557F8A661055730
:1004F500E52364077044F561C3E56194087480944D
:1005050080502B74842561F9747C2561F8E6676059
:1005150019D202D203E4FFEFC3940874809480508B
:100525000D74842FF8760B0F80ED056180CAE561A7
:1005350064087006C202C2030556E52364067027E7
:10054500E5576408700375570774842557F8760BCB
:10055500AF57D3EF940074809480400BEF940774E9
:1005650080948050021557E52464057011D204E586
:100575005564E87004E55464037020055622C204EE
:10058500E4F554F55522E52464077002D201E5250A
:0B05950064077007120C94C200C20142
:0105A0002238
:1005A100E551455060030206BDF550755101E55610
:1005B1001460690460030206BDE5576043E4F56118
:1005C100E561C39557501AC3E5579561FF74832FB1
:1005D100F8E6FFC3740795612447F8A60705618013
:1005E100DF855761C3E561940874809480400302FC
:1005F10006BDC3740795612447F8760B056180E455
:10060100E4F561C3E56194087480948040030206B7
:0F061100BD74472561F8760B056180E730006006
:10062000120A97EF75F0648485F062120C291202A9
:100630000A8E638F64E56275F00A84F547E562759A
:10064000F00A8485F048754A0B7C007D6412040D25
:100650008F4BAE63AF647C007D6412040D7E007F1F
:100660000ACFCDCFCECCCE12040D8F4CAE63AF648B
:0F0670007C007D0A12040D8D4D753A01754E0CFC
:10067F00227B007A007926120B38E526C4540FF539
:10068F0047E526540FF5483005047F0B80027F0A9B
:10069F008F4C8F49E527C4540FF54AE527540FF5C2
:0E06AF004BE528C4540FF54DE528540FF54EC9
:0106BD00221A
:08000300A203E433FF020C4EDE
:080E1500E54F7003754F012247
:10000E00538E7F5389F0758A18758CFCC28DD28CF5
:05001E00D2A9D2AF22BF
:03000B000206BE2C
:1006BE00C0E0C0F0C083C082C0D075D000C000C002
:1006CE0001C002C003C004C005C006C0070552E544
:1006DE0052640A7002F5520551E55170020550FF41
:1006EE00AE50BE0109BFF406755000755100054F9E
:1006FE00E54F64C87002F54F0553E5536408700268
:10070E00F55330041F0555E55570020554C394E8A2
:10071E00E55494035006AE54AF5580047E037FE833
:10072E008E548F55052AE52A70020529FFAE29BE83
:10073E00010BBFF408752900752A00B20530012B94
:10074E000555E55570020554C394E8E554940350DD
:10075E0006AE54AF5580047E037FE88E548F55E568
:10076E0055B4E807E554B40302D20074472553F894
:10077E00E6FD7C0074352553F8E6FB7A00AF531284
:10078E000ACF74592553F8E6FD7C00AF53120A5C6C
:10079E00D007D006D005D004D003D002D001D000AF
:0B07AE00D0D0D082D083D0F0D0E03259
:03002300020CB616
:100CB600C0E0C0D075D000C00030980B743D2558F8
:0E0CC600F8A6990558C298D000D0D0D0E032E0
:0E0DC80000007F237E337DB6DDFEDEFCDFFA09
:010DD60022FA
:100BB700120C29120DC87B007A00792612096812D7
:100BC7000CD412000E120D5A1204701205A1120055
:060BD70003120E1580F26E
:1008EF00016C00016DFF016E00016FFF01700001CF
:0208FF0071FF87
:100A5C00ED4C600FA8077401088002C333D8FC4228
:100A6C006C800EA8077401088002C333D8FCF452C2
:100A7C006CE56C656D6013E56CF4F580E5A0541FB6
:0A0A8C004480F5A053A01F856C6D97
:010A9600223D
:100C4E00EF6005436E408003536EBFE56E656F60C7
:100C5E0011856E80E5A0541F44A0F5A053A01F85FA
:020C6E006E6FA7
:010C70002261
:100C7100EF600543701080035370EFE5706571609C
:100C810011857080E5A0541F44A0F5A053A01F85D5
:020C9100707180
:010C9300223E
:100901000D08C0F9A4B0999282F88090FFBFC60883
:09091100150102040810204080C9
:100ACF007580FFE5A0541F44E0F5A074152FF8E6DC
:100ADF00F580E5A0541F44C0F5A053A01F74082D46
:100AEF00F8E6F580EB4A600353807FE5A0541F447E
:070AFF00E0F5A053A01F2247
:10084500E4FFC2C4D2C2D2B5D2B420B3027F042021
:10085500B2027F0520B1027F0620B0027F07D2C415
:10086500C2C2D2B5D2B420B3027F0820B2027F093A
:1008750020B1027F0A20B0027F0BD2C4D2C2C2B51A
:10088500D2B420B3027F0C20B2027F0D20B1027FCB
:100895000E20B0027F0FD2C4D2C2D2B5C2B420B3EB
:1008A500027F1020B2027F1120B1027F1220B00218
:0208B5007F13AF
:0108B700221E
:100CD4007580FFE5A0541F4480F5A053A01FE4F5E0
:0D0CE40080E5A0541F44A0F5A053A01F22DE
:100D5A00759850438E01438E0475D7C775D6FE43E6
:070D6A008E10D2ACD2AF22C3
:080E1D008F993099FDC2992262
:100CF100E4FEEEC3940874809480500FC297EF1302
:0B0D010092A3EFC313FFD2970E80E710
:010D0C0022C4
:100DB400C29300C29700D29300120CF1AF05120C3B
:040DC400F1C29322C3
:1009A600E4FDC29300C29700D29300120CF1E4FF5B
:1009B600EFC39408748094805011C297EDC313FD61
:1009C60030A303430580D2970F80E5C29300C297F8
:0C09D60000D29700C2A300D2A300AF051E
:0109E20022F2
:060968008B618A628963C5
:10096E00E4FD7F8E120DB4E4FCECC394037480940A
:10097E0080501EEC25E0FFC374849FFFAB61AA621A
:10098E00A9638C8275830012039AFD120DB40C803C
:08099E00D87D807F8E020DB4AC
:060B38008B658A668967E7
:100B3E00E4FCECC3940374809480501EEC25E0FF1B
:100B4E00C374859FFF1209A6AB65AA66A9678C823E
:0A0B5E00758300EF1203D90C80D854
:010B6800226A
:040DF300D2A07F0506
:080DF70000AE071FEE70F922A7
:0F0DD700D2A1120DF3C2A17F05120DF7C2A02207
:0C0DFF00C2A1120DF3D2A17F05020DF776
:100D7100C2A0A20692A17F05120DF7120DF3C2A027
:070D8100D2A17F05020DF76E
:0A0D0D00AB07120DD77F90120A27E2
:100D1700120DF3A2A19207C2A07F05120DF7A20739
:010D270022A9
:070A2000AB05120DD77FA00A
:020A2700AD0719
:100A2900E4FCECC39408748094805024C2A07F0530
:100A3900120DF7ED30E704D2A18002C2A17F0512A1
:100A49000DF7D2A0ED25E0FD7F05120DF70C80D240
:020A5900C2A039
:010A5B002278
:100BDD00E4FCECC39408748094805017120DF3ED6F
:100BED0025E0FD30A103430501C2A07F05120DF7DD
:050BFD000C80DFAF05D4
:010C020022CF
:100C0300120D0DAF03120A27120D17120DD77F9184
:100C1300120A27120D17120BDDAD07D206120D7142
:050C2300120DFFAF05FA
:010C280022A9
:100D8800120D0D7F41120A27120D17AF03120A2701
:060D9800120D17020DFF11
:1009E3008B728A738974120A20120D17AF03120ACD
:1009F30027120D17AF761576EF601FAB720574E5FE
:100A030074AA737002057314F9120381FF120A2783
:0D0A1300120D177FC8120DF780DA020DFFDB
:10091B008B778A788979120A20120D17AF03120A86
:10092B0027120D17120DD77FA1120A27120D17AF21
:10093B007B157BEF6024120BDDAB770579E579AA8C
:10094B00787002057814F9EF1203C7E57B6004C2D7
:0D095B00068002D206120D7180D5020DFF3C
:040D9E007F057E004F
:100DA2007C007D0C1203FBEF1FAC0670011E4C7021
:020DB200F62227
:020B6900AB07D8
:100B6B00E4FAEAC39408748094805012C294EB1395
:100B7B009294120D9ED294EBC313FB0A80E47F0573
:050B8B007E00020DA236
:0F0B06007FCC120B697FBE120B69120B15A9076A
:100B1500E4FAEAC39408748094805014C294EBC339
:100B250013FBD294309403430380120D9E0A80E296
:020B3500AF030C
:010B3700229B
:100B9000C208D2947F0C7E00120DA2C2947F507EB8
:100BA00000120DA2D2947F0A7E00120DA2A294928E
:060BB00008120D9EA208D0
:010BB600221C
:0D0DE600120B907FCC120B697F44020B6949
:100D4200120B90120B06EFAD01FCEC1201D1E4FB89
:080D5200FA7980784102012FBB
:100C2900120B907FCC120B697F44120B69120B9047
:100C3900120B06EFAD01FCEC1201D1E4FBFA79804D
:050C4900784102012FBB
:060E250000007F26DFFE45
:010E2B0022A4
:100D2800E4FEEEC3940874809480500DD290120EA5
:090D380025C290120E250E80E97F
:010D4100228F
:100A9700E4F5D9F5E9F5F9120D28D2DE30910330E6
:100AA700DFFAC2DE20DF1CAFF9EFFEADE9EDFFACE8
:100AB70006E41201D17B967A43798B783C120026A3
:070AC70002020AC2DF7F00FA
:010ACE002205
:10002600EC4D6011E8497017ED33EC3304600DE4D4
:10003600FCFFFEFD22E933E8330470F80202761273
:10004600024158046009E4CC248150062850090274
:10005600028028400302027DC0E0EB4A7044B9806A
:1000660006D0E0FB02026CEF4E701CBD8008EBFF71
:10007600EAFEE9FD80EBE98DF0A4FEE5F002010F52
:10008600E9CDF9EAFEEBFFEF89F0A4FCE5F0CE89B5
:10009600F0A42EFFE435F0CD89F0A42DFEE435F072
:1000A6008067EF4E7005BD80D780C3EF8BF0A4ACA0
:1000B600F0EE8BF0A42CFCE435F0F8EF8AF0A42CDB
:1000C600E5F038FCE433CB8DF0A42CFCE5F03BF8EE
:1000D600EE8AF0A42CFCE5F038F8E433CF89F0A4DE
:1000E6002CFCE5F038CF3400CE89F0A42FFFE5F0E4
:1000F6003EFEE433C98DF0A42EFEE5F039CD8AF03C
:10010600A42FFFE5F03EFEE43DFD33D0E0FB5007B3
:100116000BBB000F020280EC2CFCEF33FFEE33FE2C
:06012600ED33FD0202585A
:10012C00020280EC5D046005E8590470030202765B
:10013C00120241580460F6EC4860F2EC7004FDFECB
:10014C00FF22C860DB2481C85009C39860025006A6
:10015C0002027D9850CAF582E9294B4A7005AB82A0
:10016C0002026C75F0007C1A7880C3EF9BEE9AED5E
:10017C0099400DC3EF9BFFEE9AFEED99FDE842F01E
:10018C00DC23ACF0D0E0FFD0E0FED0E0FDAB822071
:10019C00E7101BEB60BAEC2CFCEF33FFEE33FEEDFB
:1001AC0033FD020258E803F830E705C0F075F000A3
:1001BC00EF2FFFEE33FEED33FD40B830E7C280AADF
:1001CC0075F020800E75F010800575F0087D007EAE
:1001DC00007F003392D530D503120462EC3340100B
:1001EC00EF33FFEE33FEED33FDEC33FCD5F0ED22B7
:0E01FC00E5F0247EA2D513CC92E7CDCEFF22F3
:10020A00EDD2E7CD33EC3392D524814006E4FFFEEC
:10021A00FDFC22FCE4CFCECDCC24E0501174FF804B
:10022A00EDC3CC13CCCD13CDCE13CECF13CF0470E8
:07023A00F030D5DE02046282
:10024100E9D2E7C933E833F892D5EDD2E7CD33EC03
:0702510033FC5002B2D5227C
:10025800EC30E7100FBF000C0EBE00080DBD000407
:100268000BEB6014A2D5EB13FCED92E7FD2274FFB3
:10027800FCFDFEFF22E480F8A2D574FF13FC7D800C
:03028800E480EF20
:030000000207B93B
:0C07B900787FE4F6D8FD75818B02080003
:10028B00E709F608DFFA8046E709F208DFFA803E55
:10029B0088828C83E709F0A3DFFA8032E309F60842
:1002AB00DFFA8078E309F208DFFA807088828C83AA
:1002BB00E309F0A3DFFA806489828A83E0A3F6085E
:1002CB00DFFA805889828A83E0A3F208DFFA804C38
:1002DB0080D280FA80C680D4806980F2803380100F
:1002EB0080A680EA809A80A880DA80E280CA803378
:1002FB0089828A83ECFAE493A3C8C582C8CCC583F0
:10030B00CCF0A3C8C582C8CCC583CCDFE9DEE780BF
:10031B000D89828A83E493A3F608DFF9ECFAA9F03E
:10032B00EDFB2289828A83ECFAE0A3C8C582C8CC94
:10033B00C583CCF0A3C8C582C8CCC583CCDFEADEAD
:10034B00E880DB89828A83E493A3F208DFF980CC0F
:10035B0088F0EF60010E4E60C388F0ED2402B40408
:10036B000050B9F582EB2402B4040050AF232345AF
:06037B0082239002DB73F7
:10038100BB010689828A83E0225002E722BBFE027A
:09039100E32289828A83E49322AD
:10039A00BB010CE58229F582E5833AF583E0225018
:1003AA0006E92582F8E622BBFE06E92582F8E22262
:0D03BA00E58229F582E5833AF583E493227C
:1003C700BB010689828A83F0225002F722BBFE0115
:0203D700F3220F
:1003D900F8BB010DE58229F582E5833AF583E8F05A
:1003E900225006E92582C8F622BBFE05E92582C806
:0203F900F222EE
:1003FB00EF8DF0A4A8F0CF8CF0A428CE8DF0A42E16
:02040B00FE22CF
:10040D00BC000BBE0029EF8DF084FFADF022E4CCD3
:10041D00F875F008EF2FFFEE33FEEC33FCEE9DEC9C
:10042D00984005FCEE9DFE0FD5F0E9E4CEFD22EDE2
:10043D00F8F5F0EE8420D21CFEADF075F008EF2F2C
:10044D00FFED33FD4007985006D5F0F222C398FD1D
:05045D000FD5F0EA22BA
:0E046200C3E49FFFE49EFEE49DFDE49CFC22AB
:1007C500020BB7E493A3F8E493A34003F68001F288
:1007D50008DFF48029E493A3F85407240CC8C33335
:1007E500C4540F4420C8834004F456800146F6DF04
:1007F500E4800B01020408102040809008B8E47ED4
:10080500019360BCA3FF543F30E509541FFEE493F8
:10081500A360010ECF54C025E060A840B8E493A3BF
:10082500FAE493A3F8E493A3C8C582C8CAC583CAEA
:10083500F0A3C8C582C8CAC583CADFE9DEE780BEA2
:01091A0000DC
:00000001FF
