:101C6C0054696D65203D2025643A25643A2564004D
:0F1C7C0025643A25642D2564434D5F256443009C
:1016F20008970A0A0A0A0A0A0A0A0885000000006C
:101702000000000008A50000000000000000082CF6
:101712000102030405060708087D0B0B0B0B0B0BDC
:101722000B0B03AD173B3706B00203050905050392
:0C173200A200000006B60000000000004D
:10193500EF12069D195B04195E0819670919700AEB
:1019450019610C196A0D19730E196410196D1119A5
:101955007612000019797F00227F01227F02227F03
:1019650003227F04227F05227F06227F07227F082C
:07197500227F09227F64229A
:100B8B00E53B6003020FAF753B0112167F8F23E528
:100B9B00256523FF5523F524E523F45FF5268523EF
:100BAB0025E5597025C3E54A940874809480501A42
:100BBB00AF241219358F5BC3EF946474809480500B
:0A0BCB0009747D254AF8A65B054A6F
:100BD500E5596003020C79E52464057002D209C366
:100BE500E54C94B8E54B940B4011E525640570037D
:100BF500755901E5266405700E8006E526640570C5
:100C050006C209F54BF54CE52424FA6057147064C7
:100C1500E54A6408705EE559705AF55A742C255AF0
:100C2500F8E6FF747D255AF8E6B50708055AE55A32
:100C3500640870E8E55A64087008755901F54AFFBB
:100C4500801DE4F54AF55AC3E55A940874809480EA
:100C5500500B747D255AF8760B055A80EA7F0112F0
:100C65001C268010E54A600C154AC37407954A2472
:100C750097F8760BAF59EF64016008EF64026003E3
:100C8500020D1A300C03020D1AE52464077002D216
:100C95000ED3E54994D0E54894074014E52564074B
:100CA5007003755902E526640770117559018006B0
:100CB500E52664077006C20EF548F549E52424FCCF
:100CC500605114604914600824FB7049D20C8045BA
:100CD500E4F55AC3E55A940374809480502B74AD9F
:100CE500255AF8E675F00A84FFE55A25E024B0F8A0
:100CF500A60774AD255AF8E675F00A84E55A25E08D
:100D050024B1F8A6F0055A80CA75590380077559AC
:100D1500048002D20FAF597E00EF64036008EF64D0
:100D2500046003020FAF300C03020FAFE52424FB70
:100D35007003020E46147003020E2914602924F86C
:100D4500601324FC601824086003020E48E4F5547F
:100D5500F547020E48755402754702020E48755450
:100D650004754704020E48EF64034E705C78B0E6E4
:100D750075F00AA40826799FF708E675F00AA40815
:100D85002609F708E675F00AA4082609F7789FE60C
:100D9500C3941774809480503008E6C3943B7480E4
:100DA5009480502508E6C3943B74809480501A7B48
:100DB500007A00799F1218997B007A00799F7560F7
:100DC500037D081218E8755901E5596404707478B3
:100DD500B6E675F00AA40826797AF708E675F00AEA
:100DE500A4082609F708E675F00AA4082609F77885
:100DF5007AE6C3941774809480504808E6C3943B00
:100E050074809480503D08E6C3943B748094805070
:100E1500327B007A00797A756003E4FD1218E87573
:100E25005901801FE55964037008FB7A0079AD12FA
:100E35001899E5596404700B787CF618F618F68055
:100E450002D20CE5542402FFE433FEC3E5479FEECE
:0B0E55006480F87480984003020FAF27
:100E6000AF241219358F5BE52412069D0E8E040EF9
:100E7000AB080F02090F590A0EC80C0F1F0D0F7691
:100E80000E0EE5100F3C110F931200000FAFAF597B
:100E90007E00EF6403700474B08008EF64044E7049
:100EA0000774B62547F8E4F6054722AF597E00EFF0
:100EB0006403700474B08008EF64044E700774B665
:100EC0002547F87601054722AF597E00EF6403708D
:100ED0000474B08008EF64044E700774B62547F8B8
:100EE0007602054722AF597E00EF6403700474B0A8
:100EF0008008EF64044E700774B62547F876030542
:100F00004722AF597E00EF6403700474B08008EF8D
:100F100064044E700774B62547F87604054722AF7F
:100F2000597E00EF6403700474B08008EF64044ECF
:100F3000700774B62547F87605054722AF597E003D
:100F4000EF6403700474B08008EF64044E7007749B
:100F5000B62547F87606054722AF597E00EF6403B1
:100F6000700474B08008EF64044E700774B62547AF
:100F7000F87607054722AF597E00EF6403700474CA
:100F8000B08008EF64044E700774B62547F8760801
:100F9000054722AF597E00EF6403700474B08008E7
:0F0FA000EF64044E700774B62547F876090547CD
:010FAF00221F
:100FB000E5398538F01206C30FCC00640FE000C895
:100FC000101B012C107F0190000010920539E539AB
:100FD000700205387B007A0079AD121A7702109200
:100FE0000539E53970020538121AEC8F45AD467C9B
:100FF00000C3ED9FFFEC9400FEC3EF940AEE648003
:1010000094804012E5459DFFE49CFEC3EF940AEEF8
:1010100064809480507C85454680770539E5397039
:101020000205387F43121C00AC07E412024F8F58B0
:101030008E578D568C557F41121C00AC07E412026E
:101040004FE4FBFA794C784212012F8F448E438D86
:10105000428C41AF53AE52AD51AC50120283121DBF
:1010600027E4FFFE7DC87C42AB58AA57A956A85575
:101070001201CC60054003D38001C3920B8013059D
:1010800039E539700205381200008F2B8E2A8D2920
:101090008C28E559640270047F0180027F00788A01
:1010A000A607E5591460601470030211511470030F
:1010B0000211AB1470030211DA2404600302120E51
:1010C000E54A6027E4F55AE55AC3954A40030212FF
:1010D0000EC3E54A955AFF747C2FF8E6FFC37407E8
:1010E000955A2497F8A607055A80DCE4F55AC3E51B
:1010F0005A940874809480400302120E7497255A03
:10110000F8760B055A80E7E4F55AC3E55A94037460
:10111000809480502F74AD255AF8E675F00A84FF4C
:10112000E55A25E0255A2497F8A60774AD255AF804
:10113000E675F00A84E55A25E0255A2498F8A6F0C9
:10114000055A80C63010057F0A0212077F0B021273
:1011500007E54675F00A847897F6E54675F00A8447
:1011600008A6F0A20BE43308F608760BAF2BAE2AE4
:10117000AD29AC28120283EF75F00A84789BF6EF54
:1011800075F00A8408A6F0E4FFFE7D207C41AB2BBD
:10119000AA2AA929A8281200261202837C007D0A07
:1011A00012062A789DA60508760C2278B0E6789774
:1011B000F678B1E67898F678B2E6789AF678B3E6FB
:1011C000789BF678B4E6789DF678B5E6789EF630AA
:1011D0000D047F0A80027F0B802D78B6E67897F6A3
:1011E00078B7E67898F678B8E6789AF678B9E67837
:1011F0009BF678BAE6789DF678BBE6789EF6300DD9
:0E120000047F0A80027F0B789CEFF67899F647
:01120E0022BD
:1015FC00AF597E00EF70047D0180027D0078A5A6B6
:10160C0005EF64014E70047F0180027F0078A6A66E
:10161C0007AF597E00EF640370047D0180027D00EA
:10162C0078A7A605EF64044E70047F0180027F004A
:10163C0078A8A607E559640270047F0180027F0038
:10164C0078A9A607E4FFFEFD7C40AB44AA43A9425F
:10165C00A8411200261202838F4FE4FFFE300B06C6
:10166C007D807C3F80047DA07C408F538E528D51B9
:03167C008C50226D
:10176400E53745367066F53675370178AEE6FF70B5
:101774002208E6FE701D7BFF7A1C796C78ADE67555
:101784005D00F55EEF755F00F560EE756100F56272
:1017940012077EE55964017033E54E6402702D78BA
:1017A400ADE6755D00F55E08E6755F00F560756190
:1017B40000854662AF2BAE2AAD29AC281202838E77
:0D17C400638F647BFF7A1C797C12077E2204
:10120F00AF4D7E00EF7003021453C3E535940AE52A
:10121F003494005003021453C20AE4F534F5352018
:10122F000C030213EAAD59ED64016008ED6402602E
:10123F00030212C2EF64044E7079788DE6FFB44456
:10124F001208E6B4490D08E6B4530808E6B4500393
:10125F00755902EFB44315788EE6B44B0F08E6B418
:10126F00470A08E6B44205C20C755901788DE6B4F9
:10127F00531208E6B45A0D08E6B4530808E6B45AF8
:10128F0003755903788DE6FFB44E1208E6B45A0D74
:10129F0008E6B4530808E6B45A03755904EFB44E80
:1012AF0012788EE6B45A0C08E6B44B0708E6B4473A
:1012BF0002D20FAF59EF64036008EF6404600302BA
:1012CF0013EAE54D640660030213CD788DE664489A
:1012DF00704A08E66453704408E66465703E08E699
:1012EF006474703808E6FFC394304030EFD39439FC
:1012FF00502A08E6FFC394304022EFD39439501C94
:10130F00E5596403700818E624D079B08007789106
:10131F00E624D079B6F708E624D009F7788DE6648D
:10132F004D704A08E66453704408E66465703E08E1
:10133F00E66474703808E6FFC394304030EFD394FE
:10134F0039502A08E6FFC394304022EFD394395026
:10135F001CE5596403700818E624D079B280077829
:10136F0091E624D079B8F708E624D009F7788DE60E
:10137F006453704A08E66453704408E66465703E2F
:10138F0008E66474703808E6FFC394304030EFD33A
:10139F009439502A08E6FFC394304022EFD3943992
:1013AF00501CE5596403700818E624D079B48007FF
:1013BF007891E624D079BAF708E624D009F7E54DFD
:1013CF0064047017788DE6B4431108E6B44B0C082B
:1013DF00E6B4470708E6B44202C20CE5596401704F
:1013EF0051E54D640A704B788DE66458704408E6F9
:1013FF006447703E7F02748D2FF8E6C39430400E21
:10140F007891E6D3943950060FEF640870E8EF64D3
:10141F0008701FFFEFC39408748094805014748F6A
:10142F002FF8E624D0FE742C2FF8A606E4F5590FFA
:10143F0080E2AF4D7E007D007B007A00798D120631
:04144F00F0E4F54D83
:011453002276
:101D7C00538EBF53890F758B83758DFFC28FD28E97
:031D8C00D2AB22B5
:101D5300538E7F5389F0758A18758CFCC28DD28C93
:051D6300D2A9D2AF225D
:03000B0002145488
:10145400C0E0C0F0C083C082C0D075D000C000C05E
:1014640001C002C003C004C005C006C0070537E5BB
:101474003770020536FFAE36BE0313BFE81075366B
:1014840000753700054EE54E64037002F54E053BCA
:10149400E53B640A7002F53B0539E539700205380D
:1014A400FFAE38BE0109BFF4067538007539000572
:1014B4003CE53C64087002F53C7497253CF8E6FD75
:1014C4007C007485253CF8E6FB7A00AF3C121AB226
:1014D400300917054CE54C7002054BFFAE4BBE0FAF
:1014E40009BFA006754B0F754CA0053EE53E700282
:1014F400053DFFAE3DBE010EBFF40B753D00753ECC
:1015040000A210B392100540E5407002053FFFAE03
:101514003FBE020EBFBC0B753F00754000A20DB369
:10152400920D300E170549E54970020548FFAE4893
:10153400BE0B09BFB80675480B7549B8300A0805D3
:1015440035E535700205340527E527640A7002F590
:1015540027D007D006D005D004D003D002D001D0C4
:0C15640000D0D0D082D083D0F0D0E03294
:03001B0002183D8B
:10183D00C0E0C0F0C083C082C0D075D000C000C071
:10184D0001C002C003C004C005C006C007053AE5CB
:10185D003A64087002F53AE527D3954F500B74A5FD
:10186D00253AF8E6FD7C008003E4FDFCAF3A121A40
:10187D003CD007D006D005D004D003D002D001D083
:0C188D0000D0D0D082D083D0F0D0E03268
:03002300021B2499
:101B2400C0E0C0D075D000C000309813D20A75341C
:101B340000753500748D254DF8A699054DC298D3CE
:101B4400E54D940A748094804003754D00D000D014
:041B5400D0D0E032DB
:0E1D8F0000007F237E337DB6DDFEDEFCDFFA32
:011D9D002223
:1017D100120000121D8F121C8B121D537B007A0008
:1017E10079AD121899121CF97B007A00797A755E2D
:1017F10003E4FD1219C3787AE678A2F6787BE678DD
:10180100A3F6787CE678A4F67B007A00799F755E72
:10181100037D081219C3789FE678ADF678A0E678C3
:10182100AEF678A1E678AFF6121D7C121764120BA2
:0C1831008B120FB01215FC12120F80EF8A
:0C173E000176000177FF0178000179FFBF
:101A3C00ED4C600FA8077401088002C333D8FC4238
:101A4C0076800EA8077401088002C333D8FCF452C8
:101A5C0076E57665776013E576F4F580E5A0541F9E
:0A1A6C004480F5A053A01F85767793
:011A7600224D
:101C2600EF600543784080035378BFE578657960B7
:101C360011857880E5A0541F44A0F5A053A01F8508
:021C46007879AB
:011C48002279
:10174A000D08C0F9A4B0999282F88090FFBFC6082C
:09175A0015010204081020408072
:101AB2007580FFE5A0541F44E0F5A053A01F7415E4
:101AC2002FF8E6F580E5A0541F44C0F5A053A01FEF
:101AD20074082DF8E6F580EB4A600353807FE5A099
:0A1AE200541F44E0F5A053A01F229A
:10167F00E4FFC2C4D2C2D2B5D2B420B3027F0420D9
:10168F00B2027F0520B1027F0620B0027F07D2C4CD
:10169F00C2C2D2B5D2B420B3027F0820B2027F09F2
:1016AF0020B1027F0A20B0027F0BD2C4D2C2C2B5D2
:1016BF00D2B420B3027F0C20B2027F0D20B1027F83
:1016CF000E20B0027F0FD2C4D2C2D2B5C2B420B3A3
:1016DF00027F1020B2027F1120B1027F1220B002D0
:0216EF007F1367
:0116F10022D6
:101C8B007580FFE5A0541F4480F5A053A01FE4F519
:0D1C9B0080E5A0541F44A0F5A053A01F2217
:101CF900759850438E01438E0475D7C775D6FE4338
:071D09008E10D2ACD2AF2214
:080003008F993099FDC299228A
:101CA800E4FEEEC3940874809480500FC297EF133B
:0B1CB80092A3EFC313FFD2970E80E74A
:011CC30022FE
:101D6800C29300C29700D29300121CA8AF05121CA0
:041D7800A8C2932248
:0A197C00E55E25E0FFC374859FFFC0
:10198600E4FDC29300C29700D29300121CA8E4FFA4
:10199600EFC39408748094805011C297EDC313FD71
:1019A60030A303430580D2970F80E5C29300C29708
:0C19B60000D29700C2A300D2A300AF052E
:0119C2002202
:061899008B5C8A5D895E94
:10189F00E4FD7F8E121D68E4FCECC3940374809406
:1018AF0080502FEC25E0FFC374849FFFAB5CAA5DD3
:1018BF00A95E8C827583001205B7FE75F00A84C489
:1018CF0054F0FDEE75F00A84E5F04DFD121D680C25
:0918DF0080C77D807F8E021D6828
:061A77008B5B8A5C895DB7
:101A7D00E4F55EC3E55E94037480948050261219DC
:101A8D007CEFC4540F75F00AA4FC12197CEF540FAF
:101A9D002CAB5BAA5CA95D855E827583001205F691
:041AAD00055E80CF83
:011AB1002212
:04000E00D2A07F05F8
:0800120000AE071FEE70F92299
:0F1D9E00D2A112000EC2A17F05120012C2A02214
:0C1DAD00C2A112000ED2A17F050200129C
:101D1000C2A0A20092A17F0512001212000EC2A062
:071D2000D2A17F05020012B1
:0A1CC400AB07121D9E7F90121A0755
:101CCE0012000EA2A19200C2A07F05120012A20065
:011CDE0022E3
:071A0000AB05121D9E7FA043
:021A0700AD0729
:101A0900E4FCECC39408748094805024C2A07F0540
:101A1900120012ED30E704D2A18002C2A17F0512A3
:101A29000012D2A0ED25E0FD7F051200120C80D234
:021A3900C2A049
:011A3B002288
:101BDA00E4FCECC3940874809480501712000EED54
:101BEA0025E0FD30A103430501C2A07F05120012C2
:051BFA000C80DFAF05C7
:011BFF0022C3
:101C0000121CC4AF03121A07121CCE121D9E7F9124
:101C1000121A07121CCE121BDAAD07D200121D10C9
:051C2000121DADAF052F
:011C2500229C
:1019C3008B5A8A5B895C121A00121CCEAF03121A5F
:1019D30007121CCEAF5E155EEF601FAB5A055CE5C8
:1019E3005CAA5B7002055B14F912059EFF121A07CD
:0D19F300121CCE7FC812001280DA021DAD5A
:1018E8008B5C8A5D895E121A00121CCEAF03121A35
:1018F80007121CCE121D9E7FA1121A07121CCEAF12
:10190800601560EF6024121BDAAB5C055EE55EAA29
:101918005D7002055D14F9EF1205E4E5606004C22C
:0D192800008002D200121D1080D5021DADFE
:101D2700121CC47F41121A07121CCEAF03121A07E6
:061D3700121CCE021DADDE
:041D3D007F057E00A0
:101D41007C007D0C120618EF1FAC0670011E4C7052
:021D5100F62278
:021B8C00AB07A5
:101B8E00E4FAEAC39408748094805012C294EB1362
:101B9E009294121D3DD294EBC313FB0A80E47F0591
:051BAE007E00021D4154
:101C4900E4FAEAC39408748094805014C294EBC3F4
:101C590013FBD294309403430380121D3D0A80E2A2
:021C6900AF03C7
:011C6B002256
:101BB300C211D2947F0C7E00121D41C2947F507ECD
:101BC30000121D41D2947F0A7E00121D41A29492FD
:061BD30011121D3DA211DC
:011BD90022E9
:101B5800121BB37FCC121B8C7F44121B8C121BB33D
:101B68007FCC121B8C7FBE121B8C121C49A907123A
:101B78001C49EFAD01FCEC12024AE4FBFA798078CB
:041B88004102012FE6
:061DB90000007F26DFFEA2
:011DBF002201
:101CDF00E4FEEEC3940874809480500DD290121DD0
:091CEF00B9C290121DB90E80E982
:011CF80022C9
:101AEC00E4F5D9F5E9F5F9121CDFD2DE30910330BB
:101AFC00DFFAC2DE20DF1CAFF9EFFEADE9EDFFAC83
:101B0C0006E412024A7B967A43798B783C120026C3
:071B1C00020283C2DF7F001B
:011B2300229F
:10002600EC4D6011E8497017ED33EC3304600DE4D4
:10003600FCFFFEFD22E933E8330470F80202EF12FA
:1000460002BA58046009E4CC2481500628500902FB
:1000560002F92840030202F6C0E0EB4A7044B98078
:1000660006D0E0FB0202E5EF4E701CBD8008EBFFF8
:10007600EAFEE9FD80EBE98DF0A4FEE5F002010F52
:10008600E9CDF9EAFEEBFFEF89F0A4FCE5F0CE89B5
:10009600F0A42EFFE435F0CD89F0A42DFEE435F072
:1000A6008067EF4E7005BD80D780C3EF8BF0A4ACA0
:1000B600F0EE8BF0A42CFCE435F0F8EF8AF0A42CDB
:1000C600E5F038FCE433CB8DF0A42CFCE5F03BF8EE
:1000D600EE8AF0A42CFCE5F038F8E433CF89F0A4DE
:1000E6002CFCE5F038CF3400CE89F0A42FFFE5F0E4
:1000F6003EFEE433C98DF0A42EFEE5F039CD8AF03C
:10010600A42FFFE5F03EFEE43DFD33D0E0FB5007B3
:100116000BBB000F0202F9EC2CFCEF33FFEE33FEB3
:06012600ED33FD0202D1E1
:10012C000202F9EC5D046005E8590470030202EF69
:10013C001202BA580460F6EC4860F2EC7004FDFE52
:10014C00FF22C860DB2481C85009C39860025006A6
:10015C000202F69850CAF582E9294B4A7005AB8227
:10016C000202E575F0007C1A7880C3EF9BEE9AEDE5
:10017C0099400DC3EF9BFFEE9AFEED99FDE842F01E
:10018C00DC23ACF0D0E0FFD0E0FED0E0FDAB822071
:10019C00E7101BEB60BAEC2CFCEF33FFEE33FEEDFB
:1001AC0033FD0202D1E803F830E705C0F075F0002A
:1001BC00EF2FFFEE33FEED33FD40B830E7C280AADF
:1001CC0074F8CC6480CCC86480C8F58204604FC3DA
:1001DC00EB9FF5F0EA9E42F0E99D42F0E89C45F079
:1001EC00603C501DE5825FFFE582D313CB5BCBF403
:1001FC002B5582FB50280ABA002409B9002008802C
:10020C001DE5825BFBE582D313CF5FCFF4C3132FC5
:10021C005582FF50090EBE00050DBD00010CC3EB4D
:10022C009FF5F0EA9E42F0E99D42F0E89C45F060B3
:09023C0007CC4820E701B3EC22D5
:1002450075F020800E75F010800575F0087D007E34
:10025500007F003392D530D50312067FEC33401072
:10026500EF33FFEE33FEED33FDEC33FCD5F0ED223D
:0E027500E5F0247EA2D513CC92E7CDCEFF2279
:10028300EDD2E7CD33EC3392D524814006E4FFFE73
:10029300FDFC22FCE4CFCECDCC24E0501174FF80D2
:1002A300EDC3CC13CCCD13CDCE13CECF13CF04706F
:0702B300F030D5DE02067FEA
:10071C00E571245DF8E6057122785A300702785DA0
:10072C00E475F00112068D02059E2000EB7F2ED29F
:10073C00008018EF540F2490D43440D4FF30040BB5
:10074C00EF24BFB41A0050032461FFE57260021558
:10075C00720575E5757002057430070D785AE475ED
:10076C00F00112068DEF0205E40200037403D207B8
:10077C008003E4C207F5718B5A8A5B895CE4F572DD
:10078C00F574F575E57260077F2012075780F575D3
:10079C0073FFC201C200C202C203C205C206C20874
:1007AC00120725FF700D3007057F00120768AF7523
:1007BC00AE7422B4255FC2D5C204120725FF24D023
:1007CC00B40A00501A75F00A787230D50508B6FFD5
:1007DC000106C6A426F620D5047002D20380D924C3
:1007EC00CFB41A00EF5004C2E5D204020A55D2016C
:1007FC0080C6D20080C0D20280BCD2D580BAD205CD
:10080C0080B47F201207572002077401B572004094
:10081C00F112071CFF120757020790D208D206806C
:10082C009512071CFB12071CFA12071CF94A4B7095
:10083C0006794C7A0B7BFF20022EE572602A7E0033
:10084C008E827583001205B760060EEE657370F02C
:10085C00C2D5EBC0E0EAC0E0E9C0E0EE120AB5D0C8
:10086C00E0F9D0E0FAD0E0FB12059EFF60AAEBC0E5
:10087C00E0EAC0E0E9C0E0120757D0E02401F9D06B
:10088C00E03400FAD0E0FBE5730460DCD573D9806A
:10089C0087D20280A2120A9860F7E57370010412E5
:1008AC000304A973600DE573600914F573120B3F13
:1008BC00EF60F3EA30E702F404C3995077EAF425C9
:1008CC00730430E701E404F573800D120A9860C1DB
:1008DC00EA05732573120304EA7870F630E701E435
:1008EC00257304D5730420050114120AB5E4C0E085
:1008FC00120B3F7870E6601320E70714F612073FDF
:10090C00802204F6D0E014C0E07F0012073FE573AC
:10091C0060071207361573800B300503120736D0AB
:10092C00E0020790D0E00480C5120A9860A0E5733D
:10093C00041203047870EAF6E573200502600104E2
:05094C002404120AB5AD
:1009510074FF04C0E0120B3F12073FE5732005024C
:100961006003120736D0E0B573E87F451207497876
:1009710070E67F2B30E7047F2DF404C0E0120757A7
:10098100D0E075F00A84C0F0120740D0E0120740B1
:10099100020790791080027908C206C2088008D245
:1009A100D5790A8004790AC2D5E573047002F5731A
:1009B100E4FAFDFEFF12071CFC7B0820011312075D
:1009C1001CFD7B1030000A12071CFE12071CFF7B66
:1009D10020EC3382D592D55013C3E43000069FFF3B
:1009E100E49EFEE42001039DFDE49CFCE4CBF8C2FF
:1009F10001EC700CCFCECDCCE824F8F870F3801761
:100A0100C3EF33FFEE33FEED33FDEC33FCEB33FB91
:100A1100994002FB0FD8E9EB300105F8D0E0C4485A
:100A2100B201C0E00AEC4D4E4F78207B0070C2EA63
:100A3100B5730040BCC0E0120AB7D0F0D0E020018D
:100A410004C4C0E0C4B201C0F0120740D0F0D5F038
:100A5100EB02079012069D082D5309945807FE4C8E
:100A610007FA4209984F09A04409A049081343090C
:100A7100A65508D74609354508A1470B6C50080211
:100A81002D08062E08292B080A230827200B552A92
:100A910007C24800000821E573B4FF03757306120D
:100AA100071CFC12071CFD12071CFE12071CFF7815
:100AB10069020333790AA2D5200314300509B9105C
:100AC100020404B9080104A2D52006025001042041
:100AD10002689202B572005034C0E07F20300319E1
:100AE1007F30A20272067205500F120B0EC202C2B3
:100AF10006C205C2087F30800F300503E9C0E0124D
:100B01000757300503D0E0F9D0E0B572CC300517B6
:100B11007F30B9100C1207577F583004077F788057
:100B210003B908031207573002057F2D0207577FCB
:100B3100202008F87F2B2006F322920280CF7F002D
:100B4100B4070050052469F8E6FF22286E756C6C25
:100B51002900D20112071C3001F8C201787230D588
:100B61000108F60207C22D5043495812071C2403FD
:100B7100B405004001E4900B6793120748743A12E0
:0A0B81000748D203757204020994BC
:1002BA00E9D2E7C933E833F892D5EDD2E7CD33EC8A
:0702CA0033FC5002B2D52203
:1002D100EC30E7100FBF000C0EBE00080DBD00048E
:1002E1000BEB6014A2D5EB13FCED92E7FD2274FF3A
:1002F100FCFDFEFF22E480F8A2D574FF13FC7D8093
:03030100E480EFA6
:10030400F920E72824F950037907E4F42402FB18C0
:10031400DBFDE624FB5014E9600DE4F618E604F670
:0F032400B40A08E4F6D9F57401F60A22C2D5220C
:10033300ED33EC3392D5FA602AB4FF33EDC2E77B99
:10034300FF60067A037958E4227A03796120D504A1
:100353007A03795C224E614E002B494E46002D49AB
:100363004E4600E47A08F608DAFC7B00740722E8BC
:10037300C0E0ECC0E0EDC0E0EEC0E0EFC0E0EA7545
:10038300F010A4CAABF075F04DA42BFBE435F0FCE0
:10039300EA2410FAEB34C5FBEC34D9FCEDC2E7FFD9
:1003A30075F056A4F42411C5F0F434C58FF0A42AD3
:1003B300E5F03BE43CF620E71412055ED0E0FFD005
:1003C300E0FED0E0FDD0E0FC12012F8014F4041213
:1003D300055ED0E0FFD0E0FED0E0FDD0E0FC1200EF
:1003E30026D0E0F8E6FAEDD2E7CD33EC332482FBF6
:1003F300E4C3CF33CFCE33CECD33CD33DBF37B0763
:1004030075F00A846004F6081B0AE5F0F6088FF01D
:10041300740AA4FFACF08EF0740AA42CFEACF05066
:10042300010C8DF0740AA42CFDE435F0F608DBDE34
:0304330074072229
:100436000202EFE86480F8E933E83360110460F003
:10044600ED33EC337009E8FCE9FDEAFEEBFF22042C
:1004560060DED3EB9FEA9EE99DE8C2E78CF0C2F727
:1004660095F0400CE8CCF8E9CDF9EACEFAEBCFFBF3
:100476001202BA85D0F05804700320D5B3E8047090
:10048600075002B2D50202F992D5EC0460F7E4CC2B
:10049600C0E0C398F8603B94186008400DD0E0FBBC
:1004A6000202D1E4FBFAC9FC8028E830E406E4C97C
:1004B600FBE4CAFCE830E305E4C9CACBFCE8540710
:1004C6006010F8C3E913F9EA13FAEB13FBEC13FC1B
:1004D600D8F130F52FC3E49CFCEF9BFFEE9AFEEDBE
:1004E60099FDD0E0FBEF4E4D4C701222DB03020269
:1004F600F6EC2CFCEF33FFEE33FEED33FDED30E78B
:10050600EB0202D1EF2BFFEE3AFEED39FDD0E0FB18
:1005160050130BBB00030202F9ED13FDEE13FEEFC1
:0805260013FFEC13FC0202D1EB
:10052E003F8000004120000042C80000447A0000D5
:10053E00461C400047C35000497424004B18968057
:10054E004CBEBC205A0E1BCA6753C21C749DC5AE4E
:10055E00FB60065407601C232312058CEB54386095
:10056E0009120578120587120026ECF8EDF9EEFA5D
:10057E00EFCB22EB12058780F1543803241C900533
:10058E002EFE93FC0EEE93FD0EEE930ECE93FF22F7
:0300000002157076
:0C157000787FE4F6D8FD7581BB0215B74A
:10059E00BB010689828A83E0225002E722BBFE025B
:0905AE00E32289828A83E493228E
:1005B700BB010CE58229F582E5833AF583E02250F9
:1005C70006E92582F8E622BBFE06E92582F8E22243
:0D05D700E58229F582E5833AF583E493225D
:1005E400BB010689828A83F0225002F722BBFE01F6
:0205F400F322F0
:1005F600F8BB010DE58229F582E5833AF583E8F03B
:10060600225006E92582C8F622BBFE05E92582C8E6
:02061600F222CE
:10061800EF8DF0A4A8F0CF8CF0A428CE8DF0A42EF6
:02062800FE22B0
:10062A00BC000BBE0029EF8DF084FFADF022E4CCB4
:10063A00F875F008EF2FFFEE33FEEC33FCEE9DEC7D
:10064A00984005FCEE9DFE0FD5F0E9E4CEFD22EDC3
:10065A00F8F5F0EE8420D21CFEADF075F008EF2F0D
:10066A00FFED33FD4007985006D5F0F222C398FDFE
:05067A000FD5F0EA229B
:0E067F00C3E49FFFE49EFEE49DFDE49CFC228C
:10068D00FAE6FB0808E6F925F0F618E6CA3AF6226E
:10069D00D083D082F8E4937012740193700DA3A3EC
:1006AD0093F8740193F5828883E473740293686000
:0606BD00EFA3A3A380DF00
:1006C300D083D082F8E4937012740193700DA3A3C6
:1006D30093F8740193F5828883E473740293B5F0FD
:0D06E300067403936860E9A3A3A3A380D865
:1006F000EF4E6012EF60010EEDBB010B89828A8321
:10070000F0A3DFFCDEFA2289F05007F709DFFCA92D
:0C071000F022BBFEFCF309DFFCA9F02284
:10157C000217D1E493A3F8E493A34003F68001F29D
:10158C0008DFF48029E493A3F85407240CC8C33370
:10159C00C4540F4420C8834004F456800146F6DF3F
:1015AC00E4800B01020408102040809016F2E47EC7
:1015BC00019360BCA3FF543F30E509541FFEE49334
:1015CC00A360010ECF54C025E060A840B8E493A3FB
:1015DC00FAE493A3F8E493A3C8C582C8CAC583CA26
:1015EC00F0A3C8C582C8CAC583CADFE9DEE780BEDE
:011763000085
:00000001FF
