:0A0E6B0004080C10090D110A0E1204
:1009180008490A0A0A0A0A0A0A0A083700000000EF
:1009280000000000085B0000000000000000087ED6
:10093800010203040506070808860B0B0B0B0B0BBB
:070948000B0B032623595598
:100CF400E4FFEFC3940874809480501574492FF86E
:100D0400E4F674372FF8E4F6745B2FF8E4F60F80FA
:010D1400E1FD
:010D150022BB
:10047000E55460030205BD7554011208A58F22E5FD
:10048000246522FF5522F523E522F45FF525852218
:1004900024E5581470030205921470030205BD246C
:1004A0000260030205BDC3E559940874809480502E
:0504B0004BE52360474D
:1004B50078647C007D007BFF7A0E796B7E007F0A75
:1004C50012035BE4F563AF637E00C3EF940A7480A7
:1004D5009480500E74642563F8E665236004056313
:1004E50080E4EF640A4E7006E52364127009748691
:0704F5002559F8A663055923
:1004FC00E52364077044F563C3E563940874809442
:10050C0080502B74862563F9747E2563F8E667604A
:10051C0019D203D205E4FFEFC39408748094805081
:10052C000D74862FF8760B0F80ED056380CAE5639A
:10053C0064087006C203C2050558E52364067027DB
:10054C00E5596408700375590774862559F8760BBC
:10055C00AF59D3EF940074809480400BEF940774E0
:10056C0080948050021559E52464057011D206E57B
:10057C005764E87004E55664037036055822C206C9
:10058C00E4F556F55722E52464077002D201E525FF
:10059C0064077007120CF4C200C201AF237E00EF97
:1005AC0064047002B202EF64064E70050558020C2A
:0105BC00F44A
:0105BD00221B
:1005BE00E55345526003020704F552755301E558A1
:1005CE00146069046003020704E5596043E4F563AF
:1005DE00E563C39559501AC3E5599563FF74852F8A
:1005EE00F8E6FFC3740795632449F8A607056380F0
:1005FE00DF855963C3E563940874809480400302D9
:10060E000704C3740795632449F8760B056380E4E9
:10061E00E4F563C3E5639408748094804003020795
:10062E000474492563F8760B056380E72000030206
:02063E0006C7ED
:10064000120AF7EF75F0648485F064120C89E4FBFC
:10065000FA7920784112002612020A8E658F667F91
:1006600041120C638F67E56475F00A84F549E5640F
:1006700075F00A8485F04AD3EF94327480948040F8
:10068000047F0180027F008F4B754C0BAE65AF6617
:100690007C007D6412040D8F4DAE65AF667C007DDD
:1006A0006412040D7E007F0ACFCDCFCECCCE1204D3
:1006B0000D8F4EAE65AF667C007D0A12040D8D4F26
:0606C000753C0175500CB1
:1006C600227B007A007926120B98E526C4540FF592
:1006D60049E526540FF54A3007047F0B80027F0A4E
:1006E6008F4E8F4BE527C4540FF54CE527540FF575
:0E06F6004DE528C4540FF54FE528540FF5507C
:0107040022D2
:08000300A205E433FF020CAE7C
:080E7500E551700375510122E3
:10000E00538E7F5389F0758A18758CFCC28DD28CF5
:05001E00D2A9D2AF22BF
:03000B00020705E4
:10070500C0E0C0F0C083C082C0D075D000C000C0BA
:1007150001C002C003C004C005C006C0070554E5FA
:1007250054640A7002F5540553E55370020552FFEF
:10073500AE52BE0109BFF40675520075530005514E
:10074500E55164C87002F5510555E5556408700218
:10075500F55530061F0557E55770020556C394E851
:10076500E55694035006AE56AF5780047E037FE8E6
:100775008E568F57052AE52A70020529FFAE29BE38
:10078500010BBFF408752900752A00B207052CE591
:100795002C7002052BFFAE2BBE020BBFBC08752BC0
:1007A50000752C00B20430012B0557E55770020582
:1007B50056C394E8E55694035006AE56AF578004E9
:1007C5007E037FE88E568F57E557B4E807E556B4A4
:1007D5000302D20074492555F8E6FD7C00743725DF
:1007E50055F8E6FB7A00AF55120B2F745B2555F8CB
:1007F500E6FD7C00AF55120ABCD007D006D005D067
:1008050004D003D002D001D000D0D0D082D083D084
:04081500F0D0E0320D
:03002300020D16B5
:100D1600C0E0C0D075D000C00030980B743F255A93
:0E0D2600F8A699055AC298D000D0D0D0E0327D
:0E0E280000007F237E337DB6DDFEDEFCDFFAA8
:010E36002299
:100C1700120C89120E287B007A0079261209C81255
:100C27000D3412000E120DBA1204701205BE120016
:060C370003120E7580F2AD
:10094F00016E00016FFF0170000171FF0172000164
:02095F0073FF24
:100ABC00ED4C600FA8077401088002C333D8FC42C8
:100ACC006E800EA8077401088002C333D8FCF45260
:100ADC006EE56E656F6013E56EF4F580E5A0541F4E
:0A0AEC004480F5A053A01F856E6F33
:010AF60022DD
:100CAE00EF600543704080035370BFE5706571605F
:100CBE0011857080E5A0541F44A0F5A053A01F8598
:020CCE00707143
:010CD0002201
:100CD100EF600543721080035372EFE57265736034
:100CE10011857280E5A0541F44A0F5A053A01F8573
:020CF10072731C
:010CF30022DE
:100961000D08C0F9A4B0999282F88090FFBFC60823
:0909710015010204081020408069
:100B2F007580FFE5A0541F44E0F5A074152FF8E67B
:100B3F00F580E5A0541F44C0F5A053A01F74082DE5
:100B4F00F8E6F580EB4A600353807FE5A0541F441D
:070B5F00E0F5A053A01F22E6
:1008A500E4FFC2C4D2C2D2B5D2B420B3027F0420C1
:1008B500B2027F0520B1027F0620B0027F07D2C4B5
:1008C500C2C2D2B5D2B420B3027F0820B2027F09DA
:1008D50020B1027F0A20B0027F0BD2C4D2C2C2B5BA
:1008E500D2B420B3027F0C20B2027F0D20B1027F6B
:1008F5000E20B0027F0FD2C4D2C2D2B5C2B420B38B
:10090500027F1020B2027F1120B1027F1220B002B7
:020915007F134E
:0109170022BD
:100D34007580FFE5A0541F4480F5A053A01FE4F57F
:0D0D440080E5A0541F44A0F5A053A01F227D
:100DBA00759850438E01438E0475D7C775D6FE4386
:070DCA008E10D2ACD2AF2263
:080E7D008F993099FDC2992202
:100D5100E4FEEEC3940874809480500FC297EF13A1
:0B0D610092A3EFC313FFD2970E80E7B0
:010D6C002264
:100E1400C29300C29700D29300120D51AF05120D78
:040E240051C2932202
:100A0600E4FDC29300C29700D29300120D51E4FF99
:100A1600EFC39408748094805011C297EDC313FD00
:100A260030A303430580D2970F80E5C29300C29797
:0C0A360000D29700C2A300D2A300AF05BD
:010A42002291
:0609C8008B638A6489655F
:1009CE00E4FD7F8E120E14E4FCECC3940374809449
:1009DE0080501EEC25E0FFC374849FFFAB63AA64B6
:1009EE00A9658C8275830012039AFD120E140C8079
:0809FE00D87D807F8E020E14EB
:060B98008B688A69896A7E
:100B9E00E4FCECC3940374809480501EEC25E0FFBB
:100BAE00C374859FFF120A06AB68AA69A96A8C8274
:0A0BBE00758300EF1203D90C80D8F4
:010BC800220A
:040E5300D2A07F05A5
:080E570000AE071FEE70F92246
:0F0E3700D2A1120E53C2A17F05120E57C2A022E4
:0C0E5F00C2A1120E53D2A17F05020E5753
:100DD100C2A0A20892A17F05120E57120E53C2A003
:070DE100D2A17F05020E57AD
:0A0D6D00AB07120E377F90120A87C1
:100D7700120E53A2A19208C2A07F05120E57A20815
:010D87002249
:070A8000AB05120E377FA049
:020A8700AD07B9
:100A8900E4FCECC39408748094805024C2A07F05D0
:100A9900120E57ED30E704D2A18002C2A17F0512E0
:100AA9000E57D2A0ED25E0FD7F05120E570C80D21E
:020AB900C2A0D9
:010ABB002218
:100C3D00E4FCECC39408748094805017120E53EDAD
:100C4D0025E0FD30A103430501C2A07F05120E571B
:050C5D000C80DFAF0573
:010C6200226F
:100C6300120D6DAF03120A87120D77120E377F91A3
:100C7300120A87120D77120C3DAD07D208120DD15F
:050C8300120E5FAF0539
:010C88002249
:100DE800120D6D7F41120A87120D77AF03120A8721
:060DF800120D77020E5FF0
:100A43008B748A758976120A80120D77AF03120AA6
:100A530087120D77AF781578EF601FAB740576E5D5
:100A630076AA757002057514F9120381FF120A87BD
:0D0A7300120D777FC8120E5780DA020E5F59
:10097B008B798A7A897B120A80120D77AF03120A60
:10098B0087120D77120E377FA1120A87120D77AFE0
:10099B007D157DEF6024120C3DAB79057BE57BAAC1
:1009AB007A7002057A14F9EF1203C7E57D6004C271
:0D09BB00088002D208120DD180D5020E5F17
:040DFE007F057E00EF
:100E02007C007D0C1203FBEF1FAC0670011E4C70C0
:020E1200F622C6
:020BC900AB0778
:100BCB00E4FAEAC39408748094805012C294EB1335
:100BDB009294120DFED294EBC313FB0A80E47F05B3
:050BEB007E00020E0275
:0F0B66007FCC120BC97FBE120BC9120B75A907EA
:100B7500E4FAEAC39408748094805014C294EBC3D9
:100B850013FBD294309403430380120DFE0A80E2D6
:020B9500AF03AC
:010B9700223B
:100BF000C208D2947F0C7E00120E02C2947F507EF7
:100C000000120E02D2947F0A7E00120E02A294926B
:060C100008120DFEA2080F
:010C160022BB
:0D0E4600120BF07FCC120BC97F44020BC9C8
:100DA200120BF0120B66EFAD01FCEC1201D1E4FB69
:080DB200FA7980784102012F5B
:100C8900120BF07FCC120BC97F44120BC9120BF067
:100C9900120B66EFAD01FCEC1201D1E4FBFA79808D
:050CA900784102012F5B
:060E850000007F26DFFEE5
:010E8B002244
:100D8800E4FEEEC3940874809480500DD290120E45
:090D980085C290120E850E80E95F
:010DA100222F
:100AF700E4F5D9F5E9F5F9120D88D2DE3091033026
:100B0700DFFAC2DE20DF1CAFF9EFFEADE9EDFFAC87
:100B170006E41201D17B967A43798B783C12002642
:070B270002020AC2DF7F0099
:010B2E0022A4
:10002600EC4D6011E8497017ED33EC3304600DE4D4
:10003600FCFFFEFD22E933E8330470F80202761273
:10004600024158046009E4CC248150062850090274
:10005600028028400302027DC0E0EB4A7044B9806A
:1000660006D0E0FB02026CEF4E701CBD8008EBFF71
:10007600EAFEE9FD80EBE98DF0A4FEE5F002010F52
:10008600E9CDF9EAFEEBFFEF89F0A4FCE5F0CE89B5
:10009600F0A42EFFE435F0CD89F0A42DFEE435F072
:1000A6008067EF4E7005BD80D780C3EF8BF0A4ACA0
:1000B600F0EE8BF0A42CFCE435F0F8EF8AF0A42CDB
:1000C600E5F038FCE433CB8DF0A42CFCE5F03BF8EE
:1000D600EE8AF0A42CFCE5F038F8E433CF89F0A4DE
:1000E6002CFCE5F038CF3400CE89F0A42FFFE5F0E4
:1000F6003EFEE433C98DF0A42EFEE5F039CD8AF03C
:10010600A42FFFE5F03EFEE43DFD33D0E0FB5007B3
:100116000BBB000F020280EC2CFCEF33FFEE33FE2C
:06012600ED33FD0202585A
:10012C00020280EC5D046005E8590470030202765B
:10013C00120241580460F6EC4860F2EC7004FDFECB
:10014C00FF22C860DB2481C85009C39860025006A6
:10015C0002027D9850CAF582E9294B4A7005AB82A0
:10016C0002026C75F0007C1A7880C3EF9BEE9AED5E
:10017C0099400DC3EF9BFFEE9AFEED99FDE842F01E
:10018C00DC23ACF0D0E0FFD0E0FED0E0FDAB822071
:10019C00E7101BEB60BAEC2CFCEF33FFEE33FEEDFB
:1001AC0033FD020258E803F830E705C0F075F000A3
:1001BC00EF2FFFEE33FEED33FD40B830E7C280AADF
:1001CC0075F020800E75F010800575F0087D007EAE
:1001DC00007F003392D530D503120462EC3340100B
:1001EC00EF33FFEE33FEED33FDEC33FCD5F0ED22B7
:0E01FC00E5F0247EA2D513CC92E7CDCEFF22F3
:10020A00EDD2E7CD33EC3392D524814006E4FFFEEC
:10021A00FDFC22FCE4CFCECDCC24E0501174FF804B
:10022A00EDC3CC13CCCD13CDCE13CECF13CF0470E8
:07023A00F030D5DE02046282
:10024100E9D2E7C933E833F892D5EDD2E7CD33EC03
:0702510033FC5002B2D5227C
:10025800EC30E7100FBF000C0EBE00080DBD000407
:100268000BEB6014A2D5EB13FCED92E7FD2274FFB3
:10027800FCFDFEFF22E480F8A2D574FF13FC7D800C
:03028800E480EF20
:03000000020819DA
:0C081900787FE4F6D8FD75818D02086040
:10028B00E709F608DFFA8046E709F208DFFA803E55
:10029B0088828C83E709F0A3DFFA8032E309F60842
:1002AB00DFFA8078E309F208DFFA807088828C83AA
:1002BB00E309F0A3DFFA806489828A83E0A3F6085E
:1002CB00DFFA805889828A83E0A3F208DFFA804C38
:1002DB0080D280FA80C680D4806980F2803380100F
:1002EB0080A680EA809A80A880DA80E280CA803378
:1002FB0089828A83ECFAE493A3C8C582C8CCC583F0
:10030B00CCF0A3C8C582C8CCC583CCDFE9DEE780BF
:10031B000D89828A83E493A3F608DFF9ECFAA9F03E
:10032B00EDFB2289828A83ECFAE0A3C8C582C8CC94
:10033B00C583CCF0A3C8C582C8CCC583CCDFEADEAD
:10034B00E880DB89828A83E493A3F208DFF980CC0F
:10035B0088F0EF60010E4E60C388F0ED2402B40408
:10036B000050B9F582EB2402B4040050AF232345AF
:06037B0082239002DB73F7
:10038100BB010689828A83E0225002E722BBFE027A
:09039100E32289828A83E49322AD
:10039A00BB010CE58229F582E5833AF583E0225018
:1003AA0006E92582F8E622BBFE06E92582F8E22262
:0D03BA00E58229F582E5833AF583E493227C
:1003C700BB010689828A83F0225002F722BBFE0115
:0203D700F3220F
:1003D900F8BB010DE58229F582E5833AF583E8F05A
:1003E900225006E92582C8F622BBFE05E92582C806
:0203F900F222EE
:1003FB00EF8DF0A4A8F0CF8CF0A428CE8DF0A42E16
:02040B00FE22CF
:10040D00BC000BBE0029EF8DF084FFADF022E4CCD3
:10041D00F875F008EF2FFFEE33FEEC33FCEE9DEC9C
:10042D00984005FCEE9DFE0FD5F0E9E4CEFD22EDE2
:10043D00F8F5F0EE8420D21CFEADF075F008EF2F2C
:10044D00FFED33FD4007985006D5F0F222C398FD1D
:05045D000FD5F0EA22BA
:0E046200C3E49FFFE49EFEE49DFDE49CFC22AB
:10082500020C17E493A3F8E493A34003F68001F2C6
:1008350008DFF48029E493A3F85407240CC8C333D4
:10084500C4540F4420C8834004F456800146F6DFA3
:10085500E4800B0102040810204080900918E47E12
:10086500019360BCA3FF543F30E509541FFEE49398
:10087500A360010ECF54C025E060A840B8E493A35F
:10088500FAE493A3F8E493A3C8C582C8CAC583CA8A
:10089500F0A3C8C582C8CAC583CADFE9DEE780BE42
:01097A00007C
:00000001FF
