:101C770054696D65203D2025643A25643A25640042
:101C870025643A25642D2564434D5F25644300048C
:091C9700080C10090D110A0E12CF
:1018510008970A0A0A0A0A0A0A0A0885000000000B
:101861000000000008A50000000000000000082C96
:101871000102030405060708087D0B0B0B0B0B0B7C
:101881000B0B03AD173B3706B00203050905050332
:0C189100A200000006B6000000000000ED
:021A6F008F5C8A
:101A7100785D7C007D007BFF7A1C79967E007F0A71
:101A810012066EE4FFEFFD7C00C3940A748094801B
:101A9100500C745D2FF8E6B55C01220F80E7ED6410
:0C1AA1000A4C7008E55C656660027F641A
:011AAD002216
:100C8100E53B6003021099753B011217DE8F23E5E6
:100C9100256523FF5523F524E523F45FF5268523F8
:100CA10025E5597020C3E54A940874809480501555
:100CB100AF24121A6F8F5BEF64646009747D254A5B
:050CC100F8A65B054AE6
:100CC600E5596003020D6AE52464057002D209C382
:100CD600E54C94B8E54B940B4011E525640570038B
:100CE600755901E5266405700E8006E526640570D3
:100CF60006C209F54BF54CE52424FA6057147064D6
:100D0600E54A6408705EE559705AF55A742C255AFE
:100D1600F8E6FF747D255AF8E6B50708055AE55A40
:100D2600640870E8E55A64087008755901F54AFFC9
:100D3600801DE4F54AF55AC3E55A940874809480F8
:100D4600500B747D255AF8760B055A80EA7F0112FE
:100D56001D3A8010E54A600C154AC37407954A246B
:100D660097F8760BAF59EF64016008EF64026003F1
:100D7600020E0B300C03020E0BE52464077002D240
:100D86000ED3E54994D0E54894074014E525640759
:100D96007003755902E526640770117559018006BE
:100DA600E52664077006C20EF548F549E52424FCDD
:100DB600605114604914600824FB7049D20C8045C8
:100DC600E4F55AC3E55A940374809480502B74ADAD
:100DD600255AF8E675F00A84FFE55A25E024B0F8AE
:100DE600A60774AD255AF8E675F00A84E55A25E09B
:100DF60024B1F8A6F0055A80CA75590380077559BB
:100E0600048002D20FAF597E00EF64036008EF64DE
:100E1600046003021099300C03021099E52424FBA8
:100E26007003020F37147003020F1A14602924F896
:100E3600601324FC601824086003020F39E4F5549B
:100E4600F547020F39755402754702020F3975547A
:100E560004754704020F39EF64034E705C78B0E600
:100E660075F00AA40826799FF708E675F00AA40823
:100E76002609F708E675F00AA4082609F7789FE61A
:100E8600C3941774809480503008E6C3943B7480F2
:100E96009480502508E6C3943B74809480501A7B56
:100EA600007A00799F12198C7B007A00799F756011
:100EB600037D081219DB755901E5596404707478CD
:100EC600B6E675F00AA40826797AF708E675F00AF8
:100ED600A4082609F708E675F00AA4082609F77893
:100EE6007AE6C3941774809480504808E6C3943B0E
:100EF60074809480503D08E6C3943B74809480507F
:100F0600327B007A00797A756003E4FD1219DB758D
:100F16005901801FE55964037008FB7A0079AD1208
:100F2600198CE5596404700B787CF618F618F6806F
:100F360002D20CE5542402FFE433FEC3E5479FEEDC
:100F46006480F87480984003021099E52412079390
:100F56000F78040F95080FEC0910430A0FB20C1016
:100F6600090D10600E0FCF10102611107D12000013
:100F76001099AF597E00EF6403700474B08008EFD7
:100F860064044E700774B62547F8E4F6054722AFA9
:100F9600597E00EF6403700474B08008EF64044E59
:100FA600700774B62547F87601054722AF597E00CB
:100FB600EF6403700474B08008EF64044E70077425
:100FC600B62547F87602054722AF597E00EF64033F
:100FD600700474B08008EF64044E700774B6254739
:100FE600F87603054722AF597E00EF640370047458
:100FF600B08008EF64044E700774B62547F876048F
:10100600054722AF597E00EF6403700474B0800870
:10101600EF64044E700774B62547F8760505472237
:10102600AF597E00EF6403700474B08008EF640467
:101036004E700774B62547F87606054722AF597EE7
:1010460000EF6403700474B08008EF64044E700708
:1010560074B62547F87607054722AF597E00EF6438
:1010660003700474B08008EF64044E700774B625EC
:1010760047F87608054722AF597E00EF64037004EF
:1010860074B08008EF64044E700774B62547F8768E
:0310960009054702
:011099002234
:10109A00E5398538F01207B910B6006410CA00C8DD
:1010AA001105012C116901900000117C0539E539FF
:1010BA00700205387B007A0079AD121B6202117C3E
:1010CA000539E53970020538121BD78F45AD467CC4
:1010DA0000C3ED9FFFEC9400FEC3EF940AEE648018
:1010EA0094804012E5459DFFE49CFEC3EF940AEE0E
:1010FA0064809480507C85454680770539E539704F
:10110A000205387F43121D14AC07E412024F8F58B0
:10111A008E578D568C557F41121D14AC07E412026E
:10112A004FE4FBFA794C784212012F8F448E438D9B
:10113A00428C41AF53AE52AD51AC50120283121ED3
:10114A001CE4FFFE7DC87C42AB58AA57A956A85595
:10115A001201CC60054003D38001C3920B801305B2
:10116A0039E53970020538121C438F2B8E2A8D29D6
:10117A008C28E559640270047F0180027F00788A16
:10118A00A607E55914606014700302123B14700339
:10119A000212951470030212C4240460030212F8A6
:1011AA00E54A6027E4F55AE55AC3954A4003021214
:1011BA00F8C3E54A955AFF747C2FF8E6FFC3740713
:1011CA00955A2497F8A607055A80DCE4F55AC3E530
:1011DA005A94087480948040030212F87497255A2E
:1011EA00F8760B055A80E7E4F55AC3E55A94037476
:1011FA00809480502F74AD255AF8E675F00A84FF62
:10120A00E55A25E0255A2497F8A60774AD255AF819
:10121A00E675F00A84E55A25E0255A2498F8A6F0DE
:10122A00055A80C63010057F0A0212F17F0B02129E
:10123A00F1E54675F00A847897F6E54675F00A8472
:10124A0008A6F0A20BE43308F608760BAF2BAE2AF9
:10125A00AD29AC28120283EF75F00A84789BF6EF69
:10126A0075F00A8408A6F0E4FFFE7D207C41AB2BD2
:10127A00AA2AA929A8281200261202837C007D0A1C
:10128A00120720789DA60508760C2278B0E6789792
:10129A00F678B1E67898F678B2E6789AF678B3E610
:1012AA00789BF678B4E6789DF678B5E6789EF630BF
:1012BA000D047F0A80027F0B802D78B6E67897F6B8
:1012CA0078B7E67898F678B8E6789AF678B9E6784C
:1012DA009BF678BAE6789DF678BBE6789EF6300DEE
:0E12EA00047F0A80027F0B789CEFF67899F65D
:0112F80022D3
:1016E600AF597E00EF70047D0180027D0078A5A6CB
:1016F60005EF64014E70047F0180027F0078A6A684
:1017060007AF597E00EF640370047D0180027D00FF
:1017160078A7A605EF64044E70047F0180027F005F
:1017260078A8A607E559640270047F0180027F004D
:1017360078A9A607E4FFFEFD7C40AB44AA43A94274
:10174600A8411200261202838F4FE4FFFE300B06DB
:101756007D807C3F80047DA07C408F538E528D51CE
:031766008C502282
:1018C300E53745367066F53675370178AEE6FF7055
:1018D3002208E6FE701D7BFF7A1C797778ADE675EA
:1018E3005D00F55EEF755F00F560EE756100F56212
:1018F300120874E55964017033E54E6402702D7863
:10190300ADE6755D00F55E08E6755F00F56075612F
:1019130000854662AF2BAE2AAD29AC281202838E16
:0D192300638F647BFF7A1C798712087422A1
:1012F900AF4D7E00EF700302153DC3E535940AE555
:10130900349400500302153DC20AE4F534F5352042
:101319000C030214D4AD59ED64016008ED64026058
:10132900030213ACEF64044E7079788DE6FFB44480
:101339001208E6B4490D08E6B4530808E6B45003A8
:10134900755902EFB44315788EE6B44B0F08E6B42D
:10135900470A08E6B44205C20C755901788DE6B40E
:10136900531208E6B45A0D08E6B4530808E6B45A0D
:1013790003755903788DE6FFB44E1208E6B45A0D89
:1013890008E6B4530808E6B45A03755904EFB44E95
:1013990012788EE6B45A0C08E6B44B0708E6B4474F
:1013A90002D20FAF59EF64036008EF6404600302CF
:1013B90014D4E54D640660030214B7788DE66448D9
:1013C900704A08E66453704408E66465703E08E6AE
:1013D9006474703808E6FFC394304030EFD3943911
:1013E900502A08E6FFC394304022EFD39439501CA9
:1013F900E5596403700818E624D079B0800778911C
:10140900E624D079B6F708E624D009F7788DE664A2
:101419004D704A08E66453704408E66465703E08F6
:10142900E66474703808E6FFC394304030EFD39413
:1014390039502A08E6FFC394304022EFD39439503B
:101449001CE5596403700818E624D079B28007783E
:1014590091E624D079B8F708E624D009F7788DE623
:101469006453704A08E66453704408E66465703E44
:1014790008E66474703808E6FFC394304030EFD34F
:101489009439502A08E6FFC394304022EFD39439A7
:10149900501CE5596403700818E624D079B4800714
:1014A9007891E624D079BAF708E624D009F7E54D12
:1014B90064047017788DE6B4431108E6B44B0C0840
:1014C900E6B4470708E6B44202C20CE55964017064
:1014D90051E54D640A704B788DE66458704408E60E
:1014E9006447703E7F02748D2FF8E6C39430400E36
:1014F9007891E6D3943950060FEF640870E8EF64E9
:1015090008701FFFEFC39408748094805014748F7F
:101519002FF8E624D0FE742C2FF8A606E4F5590F0F
:1015290080E2AF4D7E007D007B007A00798D120745
:04153900E6E4F54DA2
:01153D00228B
:101E7100538EBF53890F758B83758DFFC28FD28EA1
:031E8100D2AB22BF
:101E4800538E7F5389F0758A18758CFCC28DD28C9D
:051E5800D2A9D2AF2267
:03000B0002153E9D
:10153E00C0E0C0F0C083C082C0D075D000C000C073
:10154E0001C002C003C004C005C006C0070537E5D0
:10155E003770020536FFAE36BE0313BFE810753680
:10156E0000753700054EE54E64037002F54E053BDF
:10157E00E53B640A7002F53B0539E5397002053822
:10158E00FFAE38BE0109BFF4067538007539000587
:10159E003CE53C64087002F53C7497253CF8E6FD8A
:1015AE007C007485253CF8E6FB7A00AF3C121B9D4F
:1015BE00300917054CE54C7002054BFFAE4BBE0FC4
:1015CE0009BFA006754B0F754CA0053EE53E700297
:1015DE00053DFFAE3DBE010EBFF40B753D00753EE1
:1015EE0000A210B392100540E5407002053FFFAE19
:1015FE003FBE020EBFBC0B753F00754000A20DB37F
:10160E00920D300E170549E54970020548FFAE48A8
:10161E00BE0B09BFB80675480B7549B8300A0805E8
:10162E0035E535700205340527E527640A7002F5A5
:10163E0027D007D006D005D004D003D002D001D0D9
:0C164E0000D0D0D082D083D0F0D0E032A9
:03001B0002193097
:10193000C0E0C0F0C083C082C0D075D000C000C07D
:1019400001C002C003C004C005C006C007053AE5D7
:101950003A64087002F53AE527D3954F500B74A509
:10196000253AF8E6FD7C008003E4FDFCAF3A121B4B
:1019700027D007D006D005D004D003D002D001D0A4
:0C19800000D0D0D082D083D0F0D0E03274
:03002300021C0FAD
:101C0F00C0E0C0D075D000C000309813D20A753430
:101C1F0000753500748D254DF8A699054DC298D3E2
:101C2F00E54D940A748094804003754D00D000D028
:041C3F00D0D0E032EF
:10176900121C43E4FBFA79AA78421201CC60F11207
:101779001D80121E487B007A0079AD12198C121D4A
:10178900EE7B007A00797A755E03E4FD121AAE7871
:101799007AE678A2F6787BE678A3F6787CE678A4F0
:1017A900F67B007A00799F755E037D08121AAE7880
:1017B9009FE678ADF678A0E678AEF678A1E678AF40
:1017C900F6121E711218C3120C8112109A1216E623
:0517D9001212F980EF7F
:0C189D000176000177FF0178000179FF5F
:101B2700ED4C600FA8077401088002C333D8FC424C
:101B370076800EA8077401088002C333D8FCF452DC
:101B470076E57665776013E576F4F580E5A0541FB2
:0A1B57004480F5A053A01F857677A7
:011B61002261
:101D3A00EF600543784080035378BFE578657960A2
:101D4A0011857880E5A0541F44A0F5A053A01F85F3
:021D5A00787996
:011D5C002264
:1018A9000D08C0F9A4B0999282F88090FFBFC608CC
:0918B90015010204081020408012
:101B9D007580FFE5A0541F44E0F5A053A01F7415F8
:101BAD002FF8E6F580E5A0541F44C0F5A053A01F03
:101BBD0074082DF8E6F580EB4A600353807FE5A0AD
:0A1BCD00541F44E0F5A053A01F22AE
:1017DE00E4FFC2C4D2C2D2B5D2B420B3027F042079
:1017EE00B2027F0520B1027F0620B0027F07D2C46D
:1017FE00C2C2D2B5D2B420B3027F0820B2027F0992
:10180E0020B1027F0A20B0027F0BD2C4D2C2C2B571
:10181E00D2B420B3027F0C20B2027F0D20B1027F22
:10182E000E20B0027F0FD2C4D2C2D2B5C2B420B342
:10183E00027F1020B2027F1120B1027F1220B0026F
:02184E007F1306
:011850002275
:101D80007580FFE5A0541F4480F5A053A01FE4F523
:0D1D900080E5A0541F44A0F5A053A01F2221
:101DEE00759850438E01438E0475D7C775D6FE4342
:071DFE008E10D2ACD2AF221F
:080003008F993099FDC299228A
:101D9D00E4FEEEC3940874809480500FC297EF1345
:0B1DAD0092A3EFC313FFD2970E80E754
:011DB8002208
:101E5D00C29300C29700D29300121D9DAF05121DB3
:041E6D009DC293225D
:0A1A2800E55E25E0FFC374859FFF13
:101A3200E4FDC29300C29700D29300121D9DE4FF01
:101A4200EFC39408748094805011C297EDC313FDC4
:101A520030A303430580D2970F80E5C29300C2975B
:0C1A620000D29700C2A300D2A300AF0581
:011A6E002255
:06198C008B5C8A5D895EA0
:10199200E4FD7F8E121E5DE4FCECC394037480941C
:1019A20080502FEC25E0FFC374849FFFAB5CAA5DDF
:1019B200A95E8C827583001206ADFE75F00A84C49E
:1019C20054F0FDEE75F00A84E5F04DFD121E5D0C3B
:0919D20080C77D807F8E021E5D3E
:061B62008B5B8A5C895DCB
:101B6800E4F55EC3E55E9403748094805026121AEF
:101B780028EFC4540F75F00AA4FC121A28EF540F6A
:101B88002CAB5BAA5CA95D855E827583001206ECAE
:041B9800055E80CF97
:011B9C002226
:04000E00D2A07F05F8
:0800120000AE071FEE70F92299
:0F1E8400D2A112000EC2A17F05120012C2A0222D
:0C1E9300C2A112000ED2A17F05020012B5
:101E0500C2A0A20092A17F0512001212000EC2A06C
:071E1500D2A17F05020012BB
:0A1DB900AB07121E847F90121AF28D
:101DC30012000EA2A19200C2A07F05120012A2006F
:011DD30022ED
:071AEB00AB05121E847FA071
:021AF200AD073E
:101AF400E4FCECC39408748094805024C2A07F0555
:101B0400120012ED30E704D2A18002C2A17F0512B7
:101B14000012D2A0ED25E0FD7F051200120C80D248
:021B2400C2A05D
:011B2600229C
:101CEE00E4FCECC3940874809480501712000EED3F
:101CFE0025E0FD30A103430501C2A07F05120012AD
:051D0E000C80DFAF05B1
:011D130022AD
:101D1400121DB9AF03121AF2121DC3121E847F9151
:101D2400121AF2121DC3121CEEAD07D200121E05C8
:051D3400121E93AF0533
:011D39002287
:101AAE008B5A8A5B895C121AEB121DC3AF03121A92
:101ABE00F2121DC3AF5E155EEF601FAB5A055CE5FB
:101ACE005CAA5B7002055B14F9120694FF121AF2FF
:0D1ADE00121DC37FC812001280DA021E9391
:1019DB008B5C8A5D895E121AEB121DC3AF03121A60
:1019EB00F2121DC3121E847FA1121AF2121DC3AF75
:1019FB00601560EF6024121CEEAB5C055EE55EAA21
:101A0B005D7002055D14F9EF1206DAE5606004C241
:0D1A1B00008002D200121E0580D5021E932D
:101E1C00121DB97F41121AF2121DC3AF03121AF22E
:061E2C00121DC3021E930B
:041E32007F057E00AA
:101E36007C007D0C12070EEF1FAC0670011E4C7065
:021E4600F62282
:021CA000AB0790
:101CA200E4FAEAC39408748094805012C294EB134D
:101CB2009294121E32D294EBC313FB0A80E47F0586
:051CC2007E00021E3649
:101D5D00E4FAEAC39408748094805014C294EBC3DF
:101D6D0013FBD294309403430380121E320A80E297
:021D7D00AF03B2
:011D7F002241
:101CC700C200D2947F0C7E00121E36C2947F507ED3
:101CD70000121E36D2947F0A7E00121E36A29492FC
:061CE70000121E32A200F3
:011CED0022D4
:101C4300121CC77FCC121CA07F44121CA0121CC7FD
:101C53007FCC121CA07FBE121CA0121D5DA907120F
:101C63001D5DEFAD01FCEC12024AE4FBFA798078CA
:041C73004102012FFA
:061E9F0000007F26DFFEBB
:011EA500221A
:101DD400E4FEEEC3940874809480500DD290121ED9
:091DE4009FC290121E9F0E80E9BF
:011DED0022D3
:101BD700E4F5D9F5E9F5F9121DD4D2DE30910330D9
:101BE700DFFAC2DE20DF1CAFF9EFFEADE9EDFFAC97
:101BF70006E412024A7B967A43798B783C120026D8
:071C0700020283C2DF7F002F
:011C0E0022B3
:10002600EC4D6011E8497017ED33EC3304600DE4D4
:10003600FCFFFEFD22E933E8330470F80202EF12FA
:1000460002BA58046009E4CC2481500628500902FB
:1000560002F92840030202F6C0E0EB4A7044B98078
:1000660006D0E0FB0202E5EF4E701CBD8008EBFFF8
:10007600EAFEE9FD80EBE98DF0A4FEE5F002010F52
:10008600E9CDF9EAFEEBFFEF89F0A4FCE5F0CE89B5
:10009600F0A42EFFE435F0CD89F0A42DFEE435F072
:1000A6008067EF4E7005BD80D780C3EF8BF0A4ACA0
:1000B600F0EE8BF0A42CFCE435F0F8EF8AF0A42CDB
:1000C600E5F038FCE433CB8DF0A42CFCE5F03BF8EE
:1000D600EE8AF0A42CFCE5F038F8E433CF89F0A4DE
:1000E6002CFCE5F038CF3400CE89F0A42FFFE5F0E4
:1000F6003EFEE433C98DF0A42EFEE5F039CD8AF03C
:10010600A42FFFE5F03EFEE43DFD33D0E0FB5007B3
:100116000BBB000F0202F9EC2CFCEF33FFEE33FEB3
:06012600ED33FD0202D1E1
:10012C000202F9EC5D046005E8590470030202EF69
:10013C001202BA580460F6EC4860F2EC7004FDFE52
:10014C00FF22C860DB2481C85009C39860025006A6
:10015C000202F69850CAF582E9294B4A7005AB8227
:10016C000202E575F0007C1A7880C3EF9BEE9AEDE5
:10017C0099400DC3EF9BFFEE9AFEED99FDE842F01E
:10018C00DC23ACF0D0E0FFD0E0FED0E0FDAB822071
:10019C00E7101BEB60BAEC2CFCEF33FFEE33FEEDFB
:1001AC0033FD0202D1E803F830E705C0F075F0002A
:1001BC00EF2FFFEE33FEED33FD40B830E7C280AADF
:1001CC0074F8CC6480CCC86480C8F58204604FC3DA
:1001DC00EB9FF5F0EA9E42F0E99D42F0E89C45F079
:1001EC00603C501DE5825FFFE582D313CB5BCBF403
:1001FC002B5582FB50280ABA002409B9002008802C
:10020C001DE5825BFBE582D313CF5FCFF4C3132FC5
:10021C005582FF50090EBE00050DBD00010CC3EB4D
:10022C009FF5F0EA9E42F0E99D42F0E89C45F060B3
:09023C0007CC4820E701B3EC22D5
:1002450075F020800E75F010800575F0087D007E34
:10025500007F003392D530D503120775EC3340107B
:10026500EF33FFEE33FEED33FDEC33FCD5F0ED223D
:0E027500E5F0247EA2D513CC92E7CDCEFF2279
:10028300EDD2E7CD33EC3392D524814006E4FFFE73
:10029300FDFC22FCE4CFCECDCC24E0501174FF80D2
:1002A300EDC3CC13CCCD13CDCE13CECF13CF04706F
:0702B300F030D5DE020775F3
:10081200E571245DF8E6057122785A300702785DA9
:10082200E475F0011207830206942000EB7F2ED2BA
:10083200008018EF540F2490D43440D4FF30040BBE
:10084200EF24BFB41A0050032461FFE57260021561
:10085200720575E5757002057430070D785AE475F6
:10086200F001120783EF0206DA0200037403D207D3
:100872008003E4C207F5718B5A8A5B895CE4F572E6
:10088200F574F575E57260077F2012084D80F575E5
:1008920073FFC201C200C202C203C205C206C2087D
:1008A20012081BFF700D3007057F0012085EAF753E
:1008B200AE7422B4255FC2D5C20412081BFF24D035
:1008C200B40A00501A75F00A787230D50508B6FFDE
:1008D2000106C6A426F620D5047002D20380D924CC
:1008E200CFB41A00EF5004C2E5D204020B4BD2017E
:1008F20080C6D20080C0D20280BCD2D580BAD205D6
:1009020080B47F2012084D2002077401B5720040A6
:10091200F1120812FF12084D020886D208D2068090
:1009220095120812FB120812FA120812F94A4B70B9
:100932000679427A0C7BFF20022EE572602A7E0045
:100942008E827583001206AD60060EEE657370F03E
:10095200C2D5EBC0E0EAC0E0E9C0E0EE120BABD0DA
:10096200E0F9D0E0FAD0E0FB120694FF60AAEBC0F7
:10097200E0EAC0E0E9C0E012084DD0E02401F9D07D
:10098200E03400FAD0E0FBE5730460DCD573D98073
:1009920087D20280A2120B8E60F7E57370010412F7
:1009A2000304A973600DE573600914F573120C3525
:1009B200EF60F3EA30E702F404C3995077EAF425D2
:1009C200730430E701E404F573800D120B8E60C1ED
:1009D200EA05732573120304EA7870F630E701E43E
:1009E200257304D5730420050114120BABE4C0E097
:1009F200120C357870E6601320E70714F6120835FA
:100A0200802204F6D0E014C0E07F00120835E573BE
:100A1200600712082C1573800B30050312082CD0C6
:100A2200E0020886D0E00480C5120B8E60A0E57358
:100A3200041203047870EAF6E573200502600104EB
:050A42002404120BABBF
:100A470074FF04C0E0120C35120835E57320050267
:100A5700600312082CD0E0B573E87F4512083F7891
:100A670070E67F2B30E7047F2DF404C0E012084DB9
:100A7700D0E075F00A84C0F0120836D0E0120836CC
:100A8700020886791080027908C206C2088008D257
:100A9700D5790A8004790AC2D5E573047002F57323
:100AA700E4FAFDFEFF120812FC7B0820011312086E
:100AB70012FD7B1030000A120812FE120812FF7B8B
:100AC70020EC3382D592D55013C3E43000069FFF44
:100AD700E49EFEE42001039DFDE49CFCE4CBF8C208
:100AE70001EC700CCFCECDCCE824F8F870F380176A
:100AF700C3EF33FFEE33FEED33FDEC33FCEB33FB9B
:100B0700994002FB0FD8E9EB300105F8D0E0C44863
:100B1700B201C0E00AEC4D4E4F78207B0070C2EA6C
:100B2700B5730040BCC0E0120BADD0F0D0E020019F
:100B370004C4C0E0C4B201C0F0120836D0F0D5F04A
:100B4700EB0208861207930923530A8A5808F44CC4
:100B570008F0420A8E4F0A96440A96490909430A41
:100B67009C5509CD460A2B450997470C625008F852
:100B77002D08FC2E091F2B090023091D200C4B2AC9
:100B870008B84800000917E573B4FF037573061228
:100B97000812FC120812FD120812FE120812FF7842
:100BA70069020333790AA2D5200314300509B91065
:100BB700020404B9080104A2D5200602500104204A
:100BC70002689202B572005034C0E07F20300319EA
:100BD7007F30A20272067205500F120C04C202C2C5
:100BE70006C205C2087F30800F300503E9C0E01256
:100BF700084D300503D0E0F9D0E0B572CC300517C9
:100C07007F30B9100C12084D7F583004077F788069
:100C170003B9080312084D3002057F2D02084D7FE6
:100C2700202008F87F2B2006F322920280CF7F0036
:100C3700B4070050052469F8E6FF22286E756C6C2E
:100C47002900D2011208123001F8C201787230D59A
:100C57000108F60208B82D50434958120812240318
:100C6700B405004001E4900C5D9312083E743A12FB
:0A0C7700083ED203757204020A8AD7
:1002BA00E9D2E7C933E833F892D5EDD2E7CD33EC8A
:0702CA0033FC5002B2D52203
:1002D100EC30E7100FBF000C0EBE00080DBD00048E
:1002E1000BEB6014A2D5EB13FCED92E7FD2274FF3A
:1002F100FCFDFEFF22E480F8A2D574FF13FC7D8093
:03030100E480EFA6
:10030400F920E72824F950037907E4F42402FB18C0
:10031400DBFDE624FB5014E9600DE4F618E604F670
:0F032400B40A08E4F6D9F57401F60A22C2D5220C
:10033300ED33EC3392D5FA602AB4FF33EDC2E77B99
:10034300FF60067A037958E4227A03796120D504A1
:100353007A03795C224E614E002B494E46002D49AB
:100363004E4600E47A08F608DAFC7B00740722E8BC
:10037300C0E0ECC0E0EDC0E0EEC0E0EFC0E0EA7545
:10038300F010A4CAABF075F04DA42BFBE435F0FCE0
:10039300EA2410FAEB34C5FBEC34D9FCEDC2E7FFD9
:1003A30075F056A4F42411C5F0F434C58FF0A42AD3
:1003B300E5F03BE43CF620E71412055ED0E0FFD005
:1003C300E0FED0E0FDD0E0FC12012F8014F4041213
:1003D300055ED0E0FFD0E0FED0E0FDD0E0FC1200EF
:1003E30026D0E0F8E6FAEDD2E7CD33EC332482FBF6
:1003F300E4C3CF33CFCE33CECD33CD33DBF37B0763
:1004030075F00A846004F6081B0AE5F0F6088FF01D
:10041300740AA4FFACF08EF0740AA42CFEACF05066
:10042300010C8DF0740AA42CFDE435F0F608DBDE34
:0304330074072229
:100436000202EFE86480F8E933E83360110460F003
:10044600ED33EC337009E8FCE9FDEAFEEBFF22042C
:1004560060DED3EB9FEA9EE99DE8C2E78CF0C2F727
:1004660095F0400CE8CCF8E9CDF9EACEFAEBCFFBF3
:100476001202BA85D0F05804700320D5B3E8047090
:10048600075002B2D50202F992D5EC0460F7E4CC2B
:10049600C0E0C398F8603B94186008400DD0E0FBBC
:1004A6000202D1E4FBFAC9FC8028E830E406E4C97C
:1004B600FBE4CAFCE830E305E4C9CACBFCE8540710
:1004C6006010F8C3E913F9EA13FAEB13FBEC13FC1B
:1004D600D8F130F52FC3E49CFCEF9BFFEE9AFEEDBE
:1004E60099FDD0E0FBEF4E4D4C701222DB03020269
:1004F600F6EC2CFCEF33FFEE33FEED33FDED30E78B
:10050600EB0202D1EF2BFFEE3AFEED39FDD0E0FB18
:1005160050130BBB00030202F9ED13FDEE13FEEFC1
:0805260013FFEC13FC0202D1EB
:10052E003F8000004120000042C80000447A0000D5
:10053E00461C400047C35000497424004B18968057
:10054E004CBEBC205A0E1BCA6753C21C749DC5AE4E
:10055E00FB60065407601C232312058CEB54386095
:10056E0009120578120587120026ECF8EDF9EEFA5D
:10057E00EFCB22EB12058780F1543803241C900533
:10058E002EFE93FC0EEE93FD0EEE930ECE93FF22F7
:0300000002165A8B
:0C165A00787FE4F6D8FD7581BB0216A174
:10059E00E709F608DFFA8046E709F208DFFA803E3F
:1005AE0088828C83E709F0A3DFFA8032E309F6082C
:1005BE00DFFA8078E309F208DFFA807088828C8394
:1005CE00E309F0A3DFFA806489828A83E0A3F60848
:1005DE00DFFA805889828A83E0A3F208DFFA804C22
:1005EE0080D280FA80C680D4806980F280338010F9
:1005FE0080A680EA809A80A880DA80E280CA803362
:10060E0089828A83ECFAE493A3C8C582C8CCC583D9
:10061E00CCF0A3C8C582C8CCC583CCDFE9DEE780A9
:10062E000D89828A83E493A3F608DFF9ECFAA9F028
:10063E00EDFB2289828A83ECFAE0A3C8C582C8CC7E
:10064E00C583CCF0A3C8C582C8CCC583CCDFEADE97
:10065E00E880DB89828A83E493A3F208DFF980CCF9
:10066E0088F0EF60010E4E60C388F0ED2402B404F2
:10067E000050B9F582EB2402B4040050AF23234599
:06068E0082239005EE73CB
:10069400BB010689828A83E0225002E722BBFE0264
:0906A400E32289828A83E4932297
:1006AD00BB010CE58229F582E5833AF583E0225002
:1006BD0006E92582F8E622BBFE06E92582F8E2224C
:0D06CD00E58229F582E5833AF583E4932266
:1006DA00BB010689828A83F0225002F722BBFE01FF
:0206EA00F322F9
:1006EC00F8BB010DE58229F582E5833AF583E8F044
:1006FC00225006E92582C8F622BBFE05E92582C8F0
:02070C00F222D7
:10070E00EF8DF0A4A8F0CF8CF0A428CE8DF0A42EFF
:02071E00FE22B9
:10072000BC000BBE0029EF8DF084FFADF022E4CCBD
:10073000F875F008EF2FFFEE33FEEC33FCEE9DEC86
:10074000984005FCEE9DFE0FD5F0E9E4CEFD22EDCC
:10075000F8F5F0EE8420D21CFEADF075F008EF2F16
:10076000FFED33FD4007985006D5F0F222C398FD07
:050770000FD5F0EA22A4
:0E077500C3E49FFFE49EFEE49DFDE49CFC2295
:10078300FAE6FB0808E6F925F0F618E6CA3AF62277
:10079300D083D082F8E4937012740193700DA3A3F5
:1007A30093F8740193F5828883E473740293686009
:0607B300EFA3A3A380DF09
:1007B900D083D082F8E4937012740193700DA3A3CF
:1007C90093F8740193F5828883E473740293B5F006
:0D07D900067403936860E9A3A3A3A380D86E
:1007E600EF4E6012EF60010EEDBB010B89828A832A
:1007F600F0A3DFFCDEFA2289F05007F709DFFCA937
:0C080600F022BBFEFCF309DFFCA9F0228D
:10166600021769E493A3F8E493A34003F68001F21A
:1016760008DFF48029E493A3F85407240CC8C33385
:10168600C4540F4420C8834004F456800146F6DF54
:10169600E4800B0102040810204080901851E47E7B
:1016A600019360BCA3FF543F30E509541FFEE49349
:1016B600A360010ECF54C025E060A840B8E493A310
:1016C600FAE493A3F8E493A3C8C582C8CAC583CA3B
:1016D600F0A3C8C582C8CAC583CADFE9DEE780BEF3
:0118C2000025
:00000001FF
