:10081300084B000000000000000008330A0A0A0A1F
:100823000A0A0A0A08280000000000000000032545
:0C083300103B32013B110141190153043C
:10071400AE48AF497C007D6312024DED4C7008FB7E
:100724007A007925120943AE48AF497C007DC7128F
:10073400024DED4C70267F01120B2CEF75F064A472
:10074400FFAEF07C007D3312024D8E458F46C3EF21
:100754009464EE940050028001C39201AE48AF4904
:100764007C017DF312024DED4C7029120980E4FBEB
:10077400FA7920784112000E1201528E308F31E541
:100784004175F00AA4D39531E5F095304003D38048
:0507940001C3920022E8
:1003FF00AE48AF497C007D0A12024DED4C600302FE
:10040F0005241207998F21E5246521FF5521F52237
:10041F00E521F45FF523852124AF227E00EF6404EC
:10042F0070270547E5475401F547E4F53CF53DE5F1
:10043F00476401700B853B4485414A8553328009DF
:10044F0085443B854A41853253E54714601B046060
:10045F0003020524EF64054E6003020524053CE505
:10046F003C75F0038485F03C22E5226405700B0592
:10047F003DE53D75F0038485F03DE53D146038148E
:10048F00606324026003020524AF227E00EF64083C
:10049F00700FE54470047D178004E54414FD8D440E
:1004AF0022EF64094E706EE54464177003FF8004F9
:1004BF00E54404FF8F4422AF227E00EF6408700FE3
:1004CF00E54A70047D638004E54A14FD8D4A22EFEE
:1004DF0064094E7040E54A64637003FF8004E54A87
:1004EF0004FF8F4A22AF227E00EF64087011E532BD
:1004FF00640370047D078004E53214FD8D3222EF12
:10050F0064094E7010E532640770047F038004E5C0
:05051F003204FF8F32E1
:0105240022B4
:1002B000AE48AF497C007D1412024DED4C60030244
:1002C00003FEE5471470030203B30460030203FE58
:1002D000E53C1460471470030203662402600302C5
:1002E00003FEE4F52AF52EE52575F00A84F533E5DD
:1002F0002575F00A8485F03475350BE52675F00A0E
:1003000084F536E52675F00A8485F03775380BE5F7
:100310002775F00A84F539E5270203EEE4F52A751E
:100320002E0175330C75370A75360A75350A753422
:100330000AAE30AF31FC7D6412024D7C007D0A12A2
:10034000024D8D38AE30AF317C007D0A12024D7CFB
:10035000007D0A12024D8D39AE30AF317C007D0A2E
:1003600012024D8D3A22752A01E4F52E75330D7572
:10037000340AAE45AF46FC7D6412024D7C007D0A16
:1003800012024D8D35AE45AF467C007D0A12024DFE
:100390007C007D0A12024D8D36AE45AF467C007D55
:1003A0000A12024D8D3775390A75380AA201E433F5
:1003B000F53A22E4F52AF52E75330EE53D04F534C1
:1003C00075380A75370A75360A75350AE53D1460C1
:1003D0001314602224027026E54475F00A84F5396E
:1003E000E544800AE54A75F00A84F539E54A75F076
:0F03F0000A8485F03A2275390AE53204F53A227B
:1005EC00D3E53B9408748094805020C3E52594088F
:1005FC00748094805006E525953B502EE525B53B3F
:10060C0008E5267025E5276026801FC3E52594089C
:10061C00748094804014E525D3953B500DE525B5A9
:10062C003B08E5267004E5276005754B018003E463
:10063C00F54BA200E433F54CC3E54394B8E5429482
:10064C000B500AE53F94B8E53E940B50047F0180B3
:10065C00027F008F4D7F03EFC39408748094805009
:10066C001A30010CEFB553047E0180067E00800227
:0B067C007E00744B2FF8A6060F80DCF8
:010687002250
:100C8A00538E7F5389F0758A18758CFCC28DD28C6D
:050C9A00D2A9D2AF2237
:03000B00020525C6
:10052500C0E0C0F0C083C082C0D075D000C000C09C
:0D05350001C002C003C004C005C006C0071D
:100542000549E54970020548FFAE48BE0309BFE808
:10055200067548007549000540E5405407F54030EE
:10056200011F753E00753F000543E54370020542D9
:10057200C394B8E542940B402575420B7543B9808C
:100582001D754200754300053FE53F7002053EC3FD
:1005920094B8E53E940B4006753E0B753FB9743333
:1005A2002540F8E6FD74282540F8E6FBAF40120925
:1005B200F5756600C3E566940874809480501074E3
:0F05C2004B2566F8E6FDAF661209BB056680E5BE
:1005D100D007D006D005D004D003D002D001D0007E
:0B05E100D0D0D082D083D0F0D0E03228
:0E0CC80000007F237E337DB6DDFEDEFCDFFA0A
:010CD60022FB
:100B7500120C1F120C8A7B007A0079251208731259
:100B85000980120CC81207141203FF1202B01205D5
:030B9500EC80F2FF
:10083F000154000155FF0156000157FF01580001F7
:08084F0059FF015A00015BFF93
:1009BB00ED600FA8077401088002C333D8FC4254C2
:1009CB00800EA8077401088002C333D8FCF452547C
:1009DB00E55465556013E554F4F580E5A0541F44C8
:0909EB0080F5A053A01F855455AE
:0109F40022E0
:100B980030020543564080035356BFE556655760FB
:100BA80011855680E5A0541F44A0F5A053A01F85C9
:020BB80056578E
:010BBA002218
:100BBB0030030543581080035358EFE558655960CF
:100BCB0011855880E5A0541F44A0F5A053A01F85A4
:020BDB00585967
:010BDD0022F5
:100BDE00300405435A208003535ADFE55A655B60A3
:100BEE0011855A80E5A0541F44A0F5A053A01F857F
:020BFE005A5B40
:010C000022D1
:100857000F08C0F9A4B0999282F88090FFBFC686AE
:0B0867008C08170102040810204080DC
:1009F5007580FFE5A0541F44E0F5A074172FF8E6B5
:100A0500F580E5A0541F44C0F5A053A01F74082D20
:100A1500F8E6F580EB600353807FE5A0541F44E0C2
:060A2500F5A053A01F2202
:10079900E4FFC2A9C2C4D2C2D2B5D2B420B3027F87
:1007A9000420B2027F0520B1027F0620B0027F0734
:1007B900D2C4C2C2D2B5D2B420B3027F0820B202D9
:1007C9007F0920B1027F0A20B0027F0BD2C4D2C2B6
:1007D900C2B5D2B420B3027F0C20B2027F0D20B182
:1007E900027F0E20B0027F0FD2C4D2C2D2B5C2B4EA
:1007F90020B3027F1020B2027F1120B1027F1220A4
:09080900B0027F13D2A975B0FF03
:0108120022C3
:100C1F007580FFE5A0541F4480F5A053A01FE4F595
:0D0C2F0080E5A0541F44A0F5A053A01F2293
:100C3C00E4FEEEC3940874809480500FC297EF13B7
:0B0C4C0092A3EFC313FFD2970E80E7C6
:010C5700227A
:100CB400C29300C29700D29300120C3CAF05120CF1
:040CC4003CC2932279
:10090600E4FDC29300C29700D29300120C3CE4FFB0
:10091600EFC39408748094805011C297EDC313FD01
:1009260030A303430580D2970F80E5C29300C29798
:0C09360000D29700C2A300D2A300AF05BE
:010942002292
:060873008B678A688969A9
:10087900E4FD7F8E120CB4E4FCECC3940374809401
:10088900805031AB67AA68A9698C8275830012010F
:10089900ECFF75F00A84C454F0FEEF75F00A84E5A4
:1008A900F04EFBEC25E0FFC374849FFFAD03120CEF
:0B08B900B40C80C57D807F8E020CB463
:060943008B678A688969D8
:10094900E4FCECC3940374809480502AEC25E0FF06
:10095900C374859FFF120906EFC4540F75F00AA4EA
:10096900FEEF540F2EAB67AA68A9698C82758300C4
:0609790012022B0C80CCE1
:01097F002255
:040C5800D2A07F05A2
:100C5C00000000000000000000000000000000AEDA
:060C6C00071FEE70EB22F1
:0F0CD700D2A1120C58C2A17F05120C5CC2A02240
:0C0CE600C2A1120C58D2A17F05020C5CC8
:020A2B00AD0715
:100A2D00E4FCECC39408748094805024C2A07F052C
:100A3D00120C5CED30E704D2A18002C2A17F051239
:100A4D000C5CD2A0ED25E0FD7F05120C5C0C80D274
:020A5D00C2A035
:010A5F002274
:100AE000E4FCECC39408748094805017120C58ED09
:100AF00025E0FD30A103430501C2A07F05120C5C77
:050B00000C80DFAF05D1
:010B050022CD
:100B5100AB05120CD77FA0120A2B120B63AF031245
:020B61000A2B5D
:100B6300120C58A2A1E433FDC2A07F05120C5CAFA6
:010B7300057C
:010B7400225E
:100C7200C2A0EF24FF92A17F05120C5C120C58C295
:080C8200A0D2A17F05020C5C69
:020B2C00AB0715
:100B2E00120CD77F90120B58120CD77F91120A2BF2
:100B3E00120B63120AE0AD077F01120C72120CE663
:020B4E00AF05F1
:010B50002282
:100C9F00AB07120CD77F90120A2B120B637F4112F6
:050CAF000B58020CE6E9
:100A60008B5C8A5D895E120B51AF601560EF601F71
:100A7000AB5C055EE55EAA5D7002055D14F91201CE
:100A8000D3FF120A2B120B637FC8120C5C80DA02B0
:020A90000CE672
:1008C4008B618A628963120B51120CD77FA1120AC1
:1008D4002B120B63AF651565EF6024120AE0AB6160
:1008E4000563E563AA627002056214F9EF12021946
:1008F400E5656004E4FF80027F01120C7280D5027A
:020904000CE6FF
:0600030000007F09DFFE92
:0100090022D4
:040C01007F057E00ED
:100C0500EF1FAA0670011E4A600FE4FDEDC3940CA8
:090C15007480948050EA0D80F314
:010C1E0022B3
:020A9200A907B2
:100A9400E4FBEBC39408748094805012C294E9136D
:100AA4009294120C01D294E9C313F90B80E47F05EC
:050AB4007E00020C05AC
:100B0600E4FBEBC39408748094805017C294ECC342
:100B160013FCD294120003309403430480120C0198
:050B26000B80DFAF04AD
:010B2B0022A7
:100AB900C205D2947F0C7E00120C05C2947F507E31
:100AC90000120C05D2947F0A7E00120C05A29492A2
:060AD90005120C01A2054C
:010ADF0022F4
:10098000120AB97FCC120A927F44120A927FC87E63
:1009900000120C05120AB97FCC120A927FBE120A0D
:1009A00092120B06A907120B06EFAD01FCEC120127
:0B09B00019E4FBFA7980783D02000E8C
:10000E00EC4D6011E8497017ED33EC3304600DE4EC
:10001E00FCFFFEFD22E933E8330470F80201BE1244
:10002E00018958046009E4CC248150062850090245
:10003E0001C82840030201C5C0E0EB4A7044B980F4
:10004E0006D0E0FB0201B4EF4E701CBD8008EBFF42
:10005E00EAFEE9FD80EBE98DF0A4FEE5F00200F783
:10006E00E9CDF9EAFEEBFFEF89F0A4FCE5F0CE89CD
:10007E00F0A42EFFE435F0CD89F0A42DFEE435F08A
:10008E008067EF4E7005BD80D780C3EF8BF0A4ACB8
:10009E00F0EE8BF0A42CFCE435F0F8EF8AF0A42CF3
:1000AE00E5F038FCE433CB8DF0A42CFCE5F03BF806
:1000BE00EE8AF0A42CFCE5F038F8E433CF89F0A4F6
:1000CE002CFCE5F038CF3400CE89F0A42FFFE5F0FC
:1000DE003EFEE433C98DF0A42EFEE5F039CD8AF054
:1000EE00A42FFFE5F03EFEE43DFD33D0E0FB5007CC
:1000FE000BBB000F0201C8EC2CFCEF33FFEE33FEFE
:06010E00ED33FD0201A02B
:1001140075F020800E75F010800575F0087D007E66
:10012400007F003392D530D5031202A2EC33401085
:10013400EF33FFEE33FEED33FDEC33FCD5F0ED226F
:0E014400E5F0247EA2D513CC92E7CDCEFF22AB
:10015200EDD2E7CD33EC3392D524814006E4FFFEA5
:10016200FDFC22FCE4CFCECDCC24E0501174FF8004
:10017200EDC3CC13CCCD13CDCE13CECF13CF0470A1
:07018200F030D5DE0202A2FD
:10018900E9D2E7C933E833F892D5EDD2E7CD33ECBC
:0701990033FC5002B2D52235
:1001A000EC30E7100FBF000C0EBE00080DBD0004C0
:1001B0000BEB6014A2D5EB13FCED92E7FD2274FF6C
:1001C000FCFDFEFF22E480F8A2D574FF13FC7D80C5
:0301D000E480EFD9
:030000000206886D
:0C068800787FE4F6D8FD7581690206CF8A
:1001D300BB010689828A83E0225002E722BBFE022A
:0901E300E32289828A83E493225D
:1001EC00BB010CE58229F582E5833AF583E02250C8
:1001FC0006E92582F8E622BBFE06E92582F8E22212
:0D020C00E58229F582E5833AF583E493222B
:10021900BB010689828A83F0225002F722BBFE01C4
:02022900F322BE
:10022B00F8BB010DE58229F582E5833AF583E8F009
:10023B00225006E92582C8F622BBFE05E92582C8B5
:02024B00F2229D
:10024D00BC000BBE0029EF8DF084FFADF022E4CC95
:10025D00F875F008EF2FFFEE33FEEC33FCEE9DEC5E
:10026D00984005FCEE9DFE0FD5F0E9E4CEFD22EDA4
:10027D00F8F5F0EE8420D21CFEADF075F008EF2FEE
:10028D00FFED33FD4007985006D5F0F222C398FDDF
:05029D000FD5F0EA227C
:0E02A200C3E49FFFE49EFEE49DFDE49CFC226D
:10069400020B75E493A3F8E493A34003F68001F2FC
:1006A40008DFF48029E493A3F85407240CC8C33367
:1006B400C4540F4420C8834004F456800146F6DF36
:1006C400E4800B0102040810204080900813E47EAB
:1006D400019360BCA3FF543F30E509541FFEE4932B
:1006E400A360010ECF54C025E060A840B8E493A3F2
:1006F400FAE493A3F8E493A3C8C582C8CAC583CA1D
:10070400F0A3C8C582C8CAC583CADFE9DEE780BED4
:010872000085
:00000001FF
