:1008060008320A0A0A0A0A0A0A0A082A0000000026
:10081600000000000848000000000000000003255A
:0C0826001659500144110143190142040D
:100C3200EFC39D500F74322FF8760A742A2FF8E40E
:040C4200F60F80EC3D
:010C4600228B
:1004BD00E53C60030205CF753C011207238F21E552
:1004CD00236521FF5521F522E521F45FF5248521D2
:1004DD0023E522640470137D08FF120C320546E5F6
:1004ED00465401F546E4F547F545E52264057027C8
:1004FD00E5467D087011FF120C320545E54575F096
:10050D00038485F04580107F02120C320547E547C4
:10051D0075F0038485F047E546640160030205CF5D
:10052D00AF22FEEF64087047E54714601A14602A85
:10053D002402703B1544C3748094804004AD448004
:10054D00027D008D4480281543C37480948040043F
:10055D00AD4380027D008D4380151542C3E5429465
:10056D0004748094804004AD4280027D048D42EF7E
:10057D0064094E704DE54714601D146030240270FF
:10058D00410544D3E5449417748094805004AF44DE
:10059D0080027F178F44220543D3E5439463748013
:1005AD0094805004AF4380027F638F43220542D372
:1005BD00E5429408748094805004AF4280027F0815
:0205CD008F425B
:0105CF002209
:10036200E53B453A60030204BCF53A753B01FB7A72
:10037200007925120A47120A13E4FBFA7920784120
:1003820012000E1201F28E508F517F01120AECEF11
:1003920075F064A4FFAEF07C007D331202FF8E285C
:1003A2008F29C3E5299432E528940050028001C3C5
:1003B2009200E54614700302047D0460030204BC4B
:1003C200E545146038146071240260030204BCE540
:1003D20025C4540FF532E525540FF53375340BE57A
:1003E20026C4540FF535E526540FF53675370BE55F
:1003F20027C4540FF538E527540FF5392275320C0E
:10040200AE50AF517C007D641202FF7C007D0A1267
:1004120002FF8D37AE50AF517C007D0A1202FF7C85
:10042200007D0A1202FF8D38AE50AF517C007D0A6A
:100432001202FF8D397530012275320DAE28AF29B7
:100442007C007D641202FF7C007D0A1202FF8D3463
:10045200AE28AF297C007D0A1202FF7C007D0A12C1
:1004620002FF8D35AE28AF297C007D0A1202FF8D76
:1004720036752C01A200E433F5392275320EE547B8
:1004820004F533E5471460181460262402702BE546
:100492004475F00A8475F00A8485F038E5448013C7
:1004A200E54375F00A8475F00A8485F038E54380E7
:0B04B20002E54275F00A8485F0392253
:10079600E548C4540F75F00AA4FFE548540F2FFF2F
:1007A600E544D39F500EC3EF942074809480500488
:1007B6007F0180027F008F48E54375F00AA4FFC3DE
:1007C600E5519FE55095F050047F0180027F008F30
:1007D60049300010C3E54194B8E540940B400575D7
:1007E6004A01801120000EC3E53E94B8E53D940B06
:0F07F6004003E4F54A30000774472542F87601C6
:0108050022D0
:100C4700538E7F5389F0758A18758CFCC28DD28CB0
:050C5700D2A9D2AF227A
:03000B000205D01B
:1005D000C0E0C0F0C083C082C0D075D000C000C0F1
:1005E00001C002C003C004C005C006C007053CE549
:1005F0003C640A7002F53C053BE53B7002053AFF9E
:10060000AE3ABE0109BFF406753A00753B00053FDE
:10061000E53F64087002F53F30001F753D00753EF0
:10062000000541E54170020540C394B8E540940BD4
:10063000402575400B7541B9801D7540007541001E
:10064000053EE53E7002053DC394B8E53D940B4080
:1006500006753D0B753EB97432253FF8E6FD7C000A
:10066000742A253FF8E6FB7A00AF3F1209DC744894
:10067000253FF8E6FD7C00AF3F1209A1D007D00668
:10068000D005D004D003D002D001D000D0D0D08289
:07069000D083D0F0D0E0326E
:0E0C700000007F237E337DB6DDFEDEFCDFFA62
:010C7E002253
:100B7B00120A13120C70120B9B120C477B007A009B
:100B8B0079251208AD1204BD12036212079680F587
:100832000152000153FF0154000155FF015600010E
:0208420057FF5E
:1009A100ED4C600FA8077401088002C333D8FC42E4
:1009B10052800EA8077401088002C333D8FCF45298
:1009C10052E55265536013E552F4F580E5A0541FDA
:0A09D1004480F5A053A01F85525387
:0109DB0022F9
:100B1200EF600543544080035354BFE5546555606C
:100B220011855480E5A0541F44A0F5A053A01F8551
:020B3200545518
:010B3400229E
:100B3500EF600543561080035356EFE55665576041
:100B450011855680E5A0541F44A0F5A053A01F852C
:020B55005657F1
:010B5700227B
:100844000F08C0F9A4B0999282F88090FFBFC686C1
:0B0854008C08170102040810204080EF
:1009DC007580FFE5A0541F44E0F5A074172FF8E6CE
:1009EC00F580E5A0541F44C0F5A053A01F74082D3A
:1009FC00F8E6F580EB4A600353807FE5A0541F4472
:070A0C00E0F5A053A01F223A
:10072300E4FFC2C4D2C2D2B5D2B420B3027F042044
:10073300B2027F0520B1027F0620B0027F07D2C438
:10074300C2C2D2B5D2B420B3027F0820B2027F095D
:1007530020B1027F0A20B0027F0BD2C4D2C2C2B53D
:10076300D2B420B3027F0C20B2027F0D20B1027FEE
:100773000E20B0027F0FD2C4D2C2D2B5C2B420B30E
:10078300027F1020B2027F1120B1027F1220B0023B
:020793007F13D2
:010795002241
:100B9B007580FFE5A0541F4480F5A053A01FE4F51A
:0D0BAB0080E5A0541F44A0F5A053A01F2218
:100BB800E4FEEEC3940874809480500FC297EF133C
:0B0BC80092A3EFC313FFD2970E80E74B
:010BD30022FF
:100C5C00C29300C29700D29300120BB8AF05120BCF
:040C6C00B8C2932255
:1008EB00E4FDC29300C29700D29300120BB8E4FF51
:1008FB00EFC39408748094805011C297EDC313FD1D
:10090B0030A303430580D2970F80E5C29300C297B3
:0C091B0000D29700C2A300D2A300AF05D9
:0109270022AD
:0608AD008B628A6389647E
:1008B300E4FD7F8E120C5CE4FCECC394037480941F
:1008C30080501EEC25E0FFC374849FFFAB62AA63D4
:1008D300A9648C8275830012028CFD120C5C0C805F
:0808E300D87D807F8E020C5CC1
:060A47008B628A638964E2
:100A4D00E4FCECC3940374809480501EEC25E0FF0D
:100A5D00C374859FFF1208EBAB62AA63A9648C82F5
:0A0A6D00758300EF1202CB0C80D855
:010A7700225C
:040C8E00D2A07F056C
:080C920000AE071FEE70F9220D
:0F0C7F00D2A1120C8EC2A17F05120C92C2A0222C
:0C0C9A00C2A1120C8ED2A17F05020C92A8
:100BEF00C2A0A20192A17F05120C92120C8EC2A07C
:070BFF00D2A17F05020C9258
:0A0BD400AB07120C7F7F9012096C32
:100BDE00120C8EA2A19201C2A07F05120C92A2014C
:010BEE0022E4
:07096500AB05120C7F7FA01F
:02096C00AD07D5
:10096E00E4FCECC39408748094805024C2A07F05EC
:10097E00120C92ED30E704D2A18002C2A17F0512C3
:10098E000C92D2A0ED25E0FD7F05120C920C80D2C8
:02099E00C2A0F5
:0109A0002234
:100AC600E4FCECC39408748094805017120C8EEDED
:100AD60025E0FD30A103430501C2A07F05120C925B
:050AE6000C80DFAF05EC
:010AEB0022E8
:100AEC00120BD4AF0312096C120BDE120C7F7F9128
:100AFC0012096C120BDE120AC6AD07D201120BEFF3
:050B0C00120C9AAF0578
:010B110022C1
:100C0600120BD47F4112096C120BDEAF0312096C72
:060C1600120BDE020C9A35
:100928008B588A59895A120965120BDEAF031209CE
:100938006C120BDEAF5C155CEF601FAB58055AE517
:100948005AAA597002055914F9120273FF12096C58
:0D095800120BDE7FC8120C9280DA020C9A9E
:100860008B5D8A5E895F120965120BDEAF03120988
:100870006C120BDE120C7F7FA112096C120BDEAF23
:10088000611561EF6024120AC6AB5D055FE55FAAE2
:100890005E7002055E14F9EF1202B9E5616004C2F0
:0D08A000018002D201120BEF80D5020C9AEC
:040C1C007F057E00D2
:100C20007C007D0C1202EDEF1FAC0670011E4C70B3
:020C3000F622AA
:020A7800AB07CA
:100A7A00E4FAEAC39408748094805012C294EB1387
:100A8A009294120C1CD294EBC313FB0A80E47F05E8
:050A9A007E00020C20AB
:100B5800E4FAEAC39408748094805014C294EBC3F6
:100B680013FBD294309403430380120C1C0A80E2D6
:020B7800AF03C9
:010B7A002258
:100A9F00C201D2947F0C7E00120C20C2947F507E34
:100AAF0000120C20D2947F0A7E00120C20A2949286
:060ABF0001120C1CA20153
:010AC500220E
:100A1300120A9F7FCC120A787F44120A78120A9F27
:100A23007FCC120A787FBE120A78120B58A90712DC
:100A33000B58EFAD01FCEC1201B9E4FBFA798078B5
:040A43004102011754
:10000E00EC4D6011E8497017ED33EC3304600DE4EC
:10001E00FCFFFEFD22E933E8330470F802025E12A3
:10002E00022958046009E4CC2481500628500902A4
:10003E000268284003020265C0E0EB4A7044B980B2
:10004E0006D0E0FB020254EF4E701CBD8008EBFFA1
:10005E00EAFEE9FD80EBE98DF0A4FEE5F00200F783
:10006E00E9CDF9EAFEEBFFEF89F0A4FCE5F0CE89CD
:10007E00F0A42EFFE435F0CD89F0A42DFEE435F08A
:10008E008067EF4E7005BD80D780C3EF8BF0A4ACB8
:10009E00F0EE8BF0A42CFCE435F0F8EF8AF0A42CF3
:1000AE00E5F038FCE433CB8DF0A42CFCE5F03BF806
:1000BE00EE8AF0A42CFCE5F038F8E433CF89F0A4F6
:1000CE002CFCE5F038CF3400CE89F0A42FFFE5F0FC
:1000DE003EFEE433C98DF0A42EFEE5F039CD8AF054
:1000EE00A42FFFE5F03EFEE43DFD33D0E0FB5007CC
:1000FE000BBB000F020268EC2CFCEF33FFEE33FE5D
:06010E00ED33FD0202408A
:10011400020268EC5D046005E85904700302025EA3
:10012400120229580460F6EC4860F2EC7004FDFEFB
:10013400FF22C860DB2481C85009C39860025006BE
:100144000202659850CAF582E9294B4A7005AB82D0
:1001540002025475F0007C1A7880C3EF9BEE9AED8E
:1001640099400DC3EF9BFFEE9AFEED99FDE842F036
:10017400DC23ACF0D0E0FFD0E0FED0E0FDAB822089
:10018400E7101BEB60BAEC2CFCEF33FFEE33FEED13
:1001940033FD020240E803F830E705C0F075F000D3
:1001A400EF2FFFEE33FEED33FD40B830E7C280AAF7
:1001B40075F020800E75F010800575F0087D007EC6
:1001C400007F003392D530D503120354EC33401032
:1001D400EF33FFEE33FEED33FDEC33FCD5F0ED22CF
:0E01E400E5F0247EA2D513CC92E7CDCEFF220B
:1001F200EDD2E7CD33EC3392D524814006E4FFFE05
:10020200FDFC22FCE4CFCECDCC24E0501174FF8063
:10021200EDC3CC13CCCD13CDCE13CECF13CF047000
:07022200F030D5DE020354A9
:10022900E9D2E7C933E833F892D5EDD2E7CD33EC1B
:0702390033FC5002B2D52294
:10024000EC30E7100FBF000C0EBE00080DBD00041F
:100250000BEB6014A2D5EB13FCED92E7FD2274FFCB
:10026000FCFDFEFF22E480F8A2D574FF13FC7D8024
:03027000E480EF38
:030000000206975E
:0C069700787FE4F6D8FD7581640206DE71
:10027300BB010689828A83E0225002E722BBFE0289
:09028300E32289828A83E49322BC
:10028C00BB010CE58229F582E5833AF583E0225027
:10029C0006E92582F8E622BBFE06E92582F8E22271
:0D02AC00E58229F582E5833AF583E493228B
:1002B900BB010689828A83F0225002F722BBFE0124
:0202C900F3221E
:1002CB00F8BB010DE58229F582E5833AF583E8F069
:1002DB00225006E92582C8F622BBFE05E92582C815
:0202EB00F222FD
:1002ED00EF8DF0A4A8F0CF8CF0A428CE8DF0A42E25
:0202FD00FE22DF
:1002FF00BC000BBE0029EF8DF084FFADF022E4CCE3
:10030F00F875F008EF2FFFEE33FEEC33FCEE9DECAB
:10031F00984005FCEE9DFE0FD5F0E9E4CEFD22EDF1
:10032F00F8F5F0EE8420D21CFEADF075F008EF2F3B
:10033F00FFED33FD4007985006D5F0F222C398FD2C
:05034F000FD5F0EA22C9
:0E035400C3E49FFFE49EFEE49DFDE49CFC22BA
:1006A300020B7BE493A3F8E493A34003F68001F2E7
:1006B30008DFF48029E493A3F85407240CC8C33358
:1006C300C4540F4420C8834004F456800146F6DF27
:1006D300E4800B0102040810204080900806E47EA9
:1006E300019360BCA3FF543F30E509541FFEE4931C
:1006F300A360010ECF54C025E060A840B8E493A3E3
:10070300FAE493A3F8E493A3C8C582C8CAC583CA0D
:10071300F0A3C8C582C8CAC583CADFE9DEE780BEC5
:01085F000098
:00000001FF
