:10053400084500000000000000000831050A0A0A0E
:100544000A0A0A0A0827000000000000000002430B
:05055400019001307B65
:10021B00E53A60030202E4753A011204BA8F21E554
:10022B00246521FF5521F522E521F45FF523852176
:10023B0024AF227E00EF64077005A200B39200EF9B
:10024B0064064E700B0542E54275F0038485F0425F
:10025B00E52264057033AF42FEEF64017009E53FA0
:10026B00045403F53F8022EF64024E701CE54424D6
:10027B0064FFE43543FED3EF94B0EE940440067E66
:10028B00017F9080008E438F44E5226404703BAF66
:10029B0042FEEF64017010E53F70047D038004E5BE
:1002AB003F14FD8D3F8023EF64024E701DE5442407
:1002BB009CFFE54334FFFEC3EF9490EE9401500690
:1002CB007E047FB080008E438F44E542700BE524A3
:0902DB0064047003D20122C20187
:0102E40022F7
:10011A00E539600302021A7539017F0312061DEFE1
:10012A00C413135403F52FE5427028300116FE7FDD
:10013A00067D0AFB7A00793112048E75370BE52F9A
:10014A0004F538227E007F087D0A7B007A00793127
:10015A0002048E75310BE53F04F53275330B7534A5
:10016A000AAE43AF447C037DE8120439EF4E7004B3
:10017A007F0A80097C007D0A120439AF058F35AEEB
:10018A0043AF447C007D641204397C007D0A12046A
:10019A00398D36AE43AF447C007D0A1204397C00A7
:1001AA007D0A1204398D37AE43AF447C007D0A12B2
:1001BA0004398D38AF427E00EF64017026F51EC304
:1001CA00E51E9403748094805046300209743125E8
:1001DA001EF8E6FD80027D0A7431251EF8A6050583
:1001EA001E80DCEF64024E7027751E04C3E51E9460
:1001FA00087480948050193002097431251EF8E67B
:10020A00FF80027F0A7431251EF8A607051E80DCCE
:01021A0022C1
:10000E00E53C2401FDE433FCE52F75F003A4D39DFC
:10001E00EC6480F8E5F0648098500302010A200039
:10002E000302010AE53F14603714605E1470030288
:10003E0000D124036003020119E4F51EC3E51E94EA
:10004E0008748094804003020119E51EB53D047FBB
:10005E000180027F007445251EF8A607051E80DC70
:10006E00E4F51EC3E51E94087480948040030201DB
:10007E0019C37407951EB53D047F0180027F00747D
:10008E0045251EF8A607051E80D9E4F51EC3E51EFC
:10009E009404748094805073E51EB53D047F0180F6
:1000AE00027F007445251EF8A607E51EB53D047FA8
:1000BE000180027F00C37407951E2445F8A607052C
:1000CE001E80CAE4F51EC3E51E940474809480500D
:1000DE003AE51EB53D047F0180027F00C37403958F
:1000EE001E2445F8A607E51EB53D047F0180027F5C
:1000FE00007449251EF8A607051E80CA7E007F08DB
:0B010E007D007B007A00794512048E12
:0101190022C3
:1006BC00538E7F5389F0758A18758CFCC28DD28C41
:0506CC00D2A9D2AF220B
:03000B000202E509
:1002E500C0E0C0F0C083C082C0D075D000C000C0DF
:1002F50001C002C003C004C005C006C007053AE539
:100305003A640A7002F53A0539E53964C87002F5B0
:1003150039053BE53B64087002F53B053CE53C646B
:100325000C7002F53C0526E52670020525FFAE2575
:10033500BE030EBF200BA202B392027525007526DF
:10034500003000210541E54170020540C39544E5B3
:100355004095434019754000754100053DE53D5404
:1003650007F53D8009754000754100753D00743104
:10037500253BF8E6FD7427253BF8E6FBAF3B120568
:10038500B27445253BF8E6FDAF3B120578D007D0A2
:1003950006D005D004D003D002D001D000D0D0D0F3
:0803A50082D083D0F0D0E032D9
:1006E60012066D1206BC12021B12011A12000E80AF
:0106F600F50E
:06055900011C00011DFF62
:10057800ED600FA8077401088002C333D8FC421C41
:10058800800EA8077401088002C333D8FCF4521CFB
:10059800E51C651D6013E51CF4F580E5A0541F44B7
:0905A80080F5A053A01F851C1D65
:0105B1002227
:10055F000C08C0F9A4B0999282F88090FFBF0814DC
:08056F00010204081020408085
:1005B2007580FFE5A0541F44E0F5A074142FF8E6FF
:1005C200F580E5A0541F44C0F5A053A01F74082D68
:1005D200F8E6F580EB600353807FE5A0541F44E00A
:0605E200F5A053A01F224A
:1004BA00E4FFC2A9C2C4D2C2D2B5D2B420B3027F69
:1004CA000420B2027F0520B1027F0620B0027F0716
:1004DA00D2C4C2C2D2B5D2B420B3027F0820B202BB
:1004EA007F0920B1027F0A20B0027F0BD2C4D2C298
:1004FA00C2B5D2B420B3027F0C20B2027F0D20B164
:10050A00027F0E20B0027F0FD2C4D2C2D2B5C2B4CB
:10051A0020B3027F1020B2027F1120B1027F122085
:09052A00B0027F13D2A975B0FFE5
:0105330022A5
:10066D007580FFE5A0541F4480F5A053A01FE4F54D
:0D067D0080E5A0541F44A0F5A053A01F224B
:04068A00D2A07F0576
:10068E00000000000000000000000000000000AEAE
:06069E00071FEE70EB22C5
:0F06F700D2A112068AC2A17F0512068EC2A022CE
:0C070600C2A112068AD2A17F0502068E55
:0205E800AD075D
:1005EA00E4FCECC39408748094805024C2A07F0574
:1005FA0012068EED30E704D2A18002C2A17F051255
:10060A00068ED2A0ED25E0FD7F0512068E0C80D263
:02061A00C2A07C
:01061C0022BB
:10064700E4FCECC3940874809480501712068AED7A
:1006570025E0FD30A103430501C2A07F0512068EE8
:050667000C80DFAF056F
:01066C00226B
:0306D1001205E827
:1006D40012068AA2A1E433FDC2A07F0512068EAFE2
:0106E4000510
:0106E50022F2
:1006A400C2A0EF24FF92A17F0512068E12068AC211
:0806B400A0D2A17F0502068E11
:02061D00AB0729
:10061F001206F77F901206D1AF031206D11206F71A
:10062F007F911205E81206D4120647AD077F01121B
:07063F0006A4120706AF0537
:010646002291
:030000000203AD4B
:0C03AD00787FE4F6D8FD75814C0203F463
:10043900BC000BBE0029EF8DF084FFADF022E4CCA7
:10044900F875F008EF2FFFEE33FEEC33FCEE9DEC70
:10045900984005FCEE9DFE0FD5F0E9E4CEFD22EDB6
:10046900F8F5F0EE8420D21CFEADF075F008EF2F00
:10047900FFED33FD4007985006D5F0F222C398FDF1
:050489000FD5F0EA228E
:10048E00EF4E6012EF60010EEDBB010B89828A8385
:10049E00F0A3DFFCDEFA2289F05007F709DFFCA992
:0C04AE00F022BBFEFCF309DFFCA9F022E9
:1003B9000206E6E493A3F8E493A34003F68001F26E
:1003C90008DFF48029E493A3F85407240CC8C33345
:1003D900C4540F4420C8834004F456800146F6DF14
:1003E900E4800B0102040810204080900534E47E6B
:1003F900019360BCA3FF543F30E509541FFEE49309
:10040900A360010ECF54C025E060A840B8E493A3CF
:10041900FAE493A3F8E493A3C8C582C8CAC583CAFA
:10042900F0A3C8C582C8CAC583CADFE9DEE780BEB2
:010577000083
:00000001FF
