:10070D0008430000000000000000082F0A0A0A0A32
:10071D000A0A0A0A08260000000000000000104C1A
:10072D0000000000000000000000000000000000BC
:03073D00012E7B0F
:10027300E4F55CF55DAE40AF41FC7D0A120210ED82
:100283004C60030203C21206368F21E5246521FF69
:100293005521F522E521F45FF523852124E53E145C
:1002A30070030203771470030203942402600302B1
:1002B30003C2E52264046003020356D2011207E776
:1002C3008F3F744C254BF8A63F854B5AE54B700581
:1002D30085553D8008744B254BF8E6F53D054BE508
:1002E3004B75F00A8485F04B7B007A00794C75627C
:1002F30008E4FD12075F7B007A0079547562087D7C
:100303000812075FE53FC395425007E4F55CF55DCE
:10031300802BC3E53F9542FFE49400FE7C007D33D0
:100323001201FEAC06AD07EC1201197B0A7AD779EC
:10033300A3783C12000E1201528E5C8F5DC3E55D03
:1003430094FFE55C94004006755C00755DFFAF5D4E
:100353001209B6AF227E00EF64077005A202B392C2
:1003630002EF64054E7003753E01EF64064E704F55
:10037300753E0222AF227E00EF64057002F53EEF68
:1003830064074E703A053CE53C75F00A8485F03C01
:1003930022E52264067012F53E85425BFB7A007902
:1003A300547562087D0812075FE52264077010E543
:0F03B30042645A7003FF8005E542240AFF8F421F
:0103C2002218
:1003C300E4AE40AF41FC7D14120210ED4C60030219
:1003D300050BE53E1470030204721470030204C398
:1003E3002402600302050BA202E433F52F75300AE1
:1003F30030020AE53D253FFBE433FA80047A00AB83
:100403003D7C007D64AF03AE021202107C007D0AC6
:10041300120210ED4C70047F0A8002AF058F317C0D
:10042300007D0AAF03AE021202107C007D0A1202A5
:1004330010ED4C700AE531640A70047F0A8002AF44
:10044300058F32AE02AF037C007D0A1202108D339A
:10045300E53F75F0648475F00A8485F034E53F75F3
:10046300F00A8475F00A8485F035E53F020504E55A
:100473003C2401FBE433FA7C007D0AAF03FE120245
:1004830010EF75F00A8485F02F7C007D0AAF03AE70
:10049300021202108D3075330A75320A75310A74EF
:1004A3004C253CF8E6FF75F0648475F00A8485F00A
:1004B30034EF75F00A8475F00A8485F035E68041DF
:1004C300752F0B75330A75320A75310A75300AE5D3
:1004D3004275F0648475F00A84AFF0EF70047F0A0C
:1004E30080008F34E54275F00A8475F00A84AFF01A
:1004F300EF700AE534640A70047F0A80008F35E5E3
:080503004275F00A8485F03610
:01050B0022CD
:1008C800A200E433F543AF3E7E00EF640270047D7E
:1008D8000180027D008D49EF64014E70047F018024
:0608E800027F008F4A228E
:1009A100538E7F5389F0758A18758CFCC28DD28C59
:0509B100D2A9D2AF2223
:03000B0002050CDF
:10050C00C0E0C0F0C083C082C0D075D000C000C0B5
:10051C0001C002C003C004C005C006C0070541E508
:10052C004170020540FFAE40BE0309BFE8067540AE
:10053C0000754100053BE53B64087002F53B30015A
:10054C001B0525E52564C87009F525A200B39200AA
:10055C00053AE53A6414700CC201800875250075E3
:10056C003A00C200742F253BF8E6FD7426253BF8B3
:10057C00E6FBAF3B12085D7443253BF8E6FDAF3B51
:10058C00120823D007D006D005D004D003D002D057
:0E059C0001D000D0D0D082D083D0F0D0E03299
:1006B0001209381209A17B007A0079387560017D32
:1006C000101207A5E538652E7B00600E7A00792EA2
:1006D0007562017D1012075F80287A00794C756081
:1006E00008E4FD1207A57B007A0079547560087D47
:1006F000081207A5855B42855A4B744C254BF8E6DA
:0D070000F53D1202731203C31208C880F504
:06074000011C00011DFF79
:10082300ED600FA8077401088002C333D8FC421C93
:10083300800EA8077401088002C333D8FCF4521C4D
:10084300E51C651D6013E51CF4F580E5A0541F4409
:0908530080F5A053A01F851C1DB7
:01085C002279
:100746000C08C0F9A4B0999282F88090FF8608142C
:0807560001020408102040809C
:10085D007580FFE5A0541F44E0F5A074142FF8E651
:10086D00F580E5A0541F44C0F5A053A01F74082DBA
:10087D00F8E6F580EB600353807FE5A0541F44E05C
:06088D00F5A053A01F229C
:10063600E4FFC2A9C2C4D2C2D2B5D2B420B3027FEB
:100646000420B2027F0520B1027F0620B0027F0798
:10065600D2C4C2C2D2B5D2B420B3027F0820B2023D
:100666007F0920B1027F0A20B0027F0BD2C4D2C21A
:10067600C2B5D2B420B3027F0C20B2027F0D20B1E6
:10068600027F0E20B0027F0FD2C4D2C2D2B5C2B44E
:1006960020B3027F1020B2027F1120B1027F122008
:0906A600B0027F13D2A975B0FF68
:0106AF002228
:100938007580FFE5A0541F4480F5A053A01FE4F57F
:0D09480080E5A0541F44A0F5A053A01F227D
:04095500D2A07F05A8
:10095900000000000000000000000000000000AEE0
:06096900071FEE70EB22F7
:0F09CB00D2A1120955C2A17F05120959C2A0225B
:0C09DA00C2A1120955D2A17F05020959E3
:02089300AD07AF
:10089500E4FCECC39408748094805024C2A07F05C6
:1008A500120959ED30E704D2A18002C2A17F0512D9
:1008B5000959D2A0ED25E0FD7F051209590C80D21A
:0208C500C2A0CF
:0108C700220E
:1008EE00E4FCECC39408748094805017120955ED03
:1008FE0025E0FD30A103430501C2A07F0512095971
:05090E000C80DFAF05C5
:0109130022C1
:10091400AB051209CB7FA0120893120926AF03126C
:02092400089336
:10092600120955A2A1E433FDC2A07F05120959AFF1
:0109360005BB
:01093700229D
:10098900C2A0EF24FF92A17F05120959120955C28D
:08099900A0D2A17F050209595B
:1009B600AB071209CB7F901208931209267F4112CA
:0509C600091B0209DA23
:10075F008B5E8A5F8960120914AF621562EF601FAA
:10076F00AB5E0560E560AA5F7002055F14F91201C8
:10077F00D3FF1208931209267FC812095980DA1283
:10078F0009DA7FFF1209597FFF1209597FFF1209FA
:06079F00597FFF02095919
:1007A5008B5C8A5D895E1209141209CB7FA1120840
:1007B50093120926AF601560EF60241208EEAB5C5A
:1007C500055EE55EAA5D7002055D14F9EF1201ECA8
:1007D500E5606004E4FF80027F0112098980D5028B
:0207E50009DA2F
:0600030000007F21DFFE7A
:0100090022D4
:10096F00E4FEEEC3940874809480500DD290120070
:09097F0003C2901200030E80E98E
:01098800224C
:1007E700E4F5E9F5F9F5D8C2AF12096FD2AFD2DE59
:1007F70030910330DFFAC2DE20DF1CAFF9EFFEAD28
:10080700E9EDFFAC06E41201197B967A43798B7800
:0B0817003C12000E020152C2DF7F0005
:0108220022B3
:10000E00EC4D6011E8497017ED33EC3304600DE4EC
:10001E00FCFFFEFD22E933E8330470F80201BE1244
:10002E00018958046009E4CC248150062850090245
:10003E0001C82840030201C5C0E0EB4A7044B980F4
:10004E0006D0E0FB0201B4EF4E701CBD8008EBFF42
:10005E00EAFEE9FD80EBE98DF0A4FEE5F00200F783
:10006E00E9CDF9EAFEEBFFEF89F0A4FCE5F0CE89CD
:10007E00F0A42EFFE435F0CD89F0A42DFEE435F08A
:10008E008067EF4E7005BD80D780C3EF8BF0A4ACB8
:10009E00F0EE8BF0A42CFCE435F0F8EF8AF0A42CF3
:1000AE00E5F038FCE433CB8DF0A42CFCE5F03BF806
:1000BE00EE8AF0A42CFCE5F038F8E433CF89F0A4F6
:1000CE002CFCE5F038CF3400CE89F0A42FFFE5F0FC
:1000DE003EFEE433C98DF0A42EFEE5F039CD8AF054
:1000EE00A42FFFE5F03EFEE43DFD33D0E0FB5007CC
:1000FE000BBB000F0201C8EC2CFCEF33FFEE33FEFE
:06010E00ED33FD0201A02B
:1001140075F020800E75F010800575F0087D007E66
:10012400007F003392D530D503120265EC334010C2
:10013400EF33FFEE33FEED33FDEC33FCD5F0ED226F
:0E014400E5F0247EA2D513CC92E7CDCEFF22AB
:10015200EDD2E7CD33EC3392D524814006E4FFFEA5
:10016200FDFC22FCE4CFCECDCC24E0501174FF8004
:10017200EDC3CC13CCCD13CDCE13CECF13CF0470A1
:07018200F030D5DE0202653A
:10018900E9D2E7C933E833F892D5EDD2E7CD33ECBC
:0701990033FC5002B2D52235
:1001A000EC30E7100FBF000C0EBE00080DBD0004C0
:1001B0000BEB6014A2D5EB13FCED92E7FD2274FF6C
:1001C000FCFDFEFF22E480F8A2D574FF13FC7D80C5
:0301D000E480EFD9
:030000000205AA4C
:0C05AA00787FE4F6D8FD7581620205F14F
:1001D300BB010689828A83E0225002E722BBFE022A
:0901E300E32289828A83E493225D
:1001EC00BB010689828A83F0225002F722BBFE01F2
:0201FC00F322EC
:1001FE00EF8DF0A4A8F0CF8CF0A428CE8DF0A42E15
:02020E00FE22CE
:10021000BC000BBE0029EF8DF084FFADF022E4CCD2
:10022000F875F008EF2FFFEE33FEEC33FCEE9DEC9B
:10023000984005FCEE9DFE0FD5F0E9E4CEFD22EDE1
:10024000F8F5F0EE8420D21CFEADF075F008EF2F2B
:10025000FFED33FD4007985006D5F0F222C398FD1C
:050260000FD5F0EA22B9
:0E026500C3E49FFFE49EFEE49DFDE49CFC22AA
:1005B6000206B0E493A3F8E493A34003F68001F2A5
:1005C60008DFF48029E493A3F85407240CC8C33346
:1005D600C4540F4420C8834004F456800146F6DF15
:1005E600E4800B010204081020408090070DE47E91
:1005F600019360BCA3FF543F30E509541FFEE4930A
:10060600A360010ECF54C025E060A840B8E493A3D0
:10061600FAE493A3F8E493A3C8C582C8CAC583CAFB
:10062600F0A3C8C582C8CAC583CADFE9DEE780BEB3
:01075E00009A
:00000001FF
