:10071A00082D0A0A0A0A0A0A0A0A0825000000001D
:0E072A00000000000842000000000000000077
:10046400E537600302052675370112065D8F21E525
:10047400236521FF5521F522E521F45FF52485212B
:1004840023E522700302052624F3606F24FD602413
:1004940014604724057076E540700CFB7A007941BE
:1004A400755001FD1207940540E54075F0038485FD
:1004B400F0408055E5406401701EE5412405FFE4E9
:1004C40033FED3EF9432EE6480948040047F008046
:1004D40005E5412405FF8F41802FE5406401701933
:1004E400E54124FBE434FFC36480948050047F32EC
:1004F4008005E54124FBFF8F41800EE540640270D6
:1005040008F53FF53EF53DF53CE4F539220539C3E0
:10051400E53994037480948040047F038002AF39EA
:020524008F390D
:0105260022B2
:1002A400E53645356003020463F535753601E540EE
:1002B40014700302036514700302038F24026003A5
:1002C400020463752D0B7F0312086EEF75F064A4AE
:1002D400FFAEF07C007D33120173AB07AA06E54143
:1002E40075F00AA4FFAEF0D3E54B9FE54A9E401B90
:1002F400EB9FEA9E5015E53F2401F53FE4353EF5BA
:100304003EE4353DF53DE4353CF53CE54175F00A08
:10031400A4FFC3EB9FEA95F05004D2008002C20010
:100324008A4A8B4B7C007D64AF03AE021201737C5E
:10033400007D0A1201738D327C007D64AF03AE022E
:100344001201737E007F0ACFCDCFCECCCE120173C3
:100354008F33AE02AF037C007D0A1201738D3480AB
:1003640026752D0CE54175F0648475F00A8485F0DA
:1003740032E54175F00A8475F00A8485F033E5416D
:1003840075F00A8485F034752A0122752D0D7B8061
:100394007A9679987800AF3FAE3EAD3DAC3C120200
:1003A40004E47B0AFAF9F8120204AF038F2E7B40AF
:1003B4007A42790F7800AF3FAE3EAD3DAC3C1202BD
:1003C40004E47B0AFAF9F8120204AF038F2F7BA02E
:1003D4007A8679017800AF3FAE3EAD3DAC3C120267
:1003E40004E47B0AFAF9F8120204AF038F30E47BC9
:1003F400107A27F9F8AF3FAE3EAD3DAC3C12020493
:10040400E47B0AFAF9F8120204AF038F31E47BE8C3
:100414007A03F9F8AF3FAE3EAD3DAC3C120204E4C2
:100424007B0AFAF9F8120204AF038F32E47B64FA10
:10043400F9F8AF3FAE3EAD3DAC3C120204E47B0A9A
:10044400FAF9F8120204AF038F33E47B0AFAF9F8DD
:0F045400AF3FAE3EAD3DAC3C120204AF038F3460
:010463002276
:10089E00C3E53B9488E53A941340047F0180027FC0
:1008AE00008F42E53F5401FF8F43C3E53994037433
:0E08BE0080948040047F0180027F008F4422DE
:1009ED00538E7F5389F0758A18758CFCC28DD28C0D
:0509FD00D2A9D2AF22D7
:03000B00020527C4
:10052700C0E0C0F0C083C082C0D075D000C000C09A
:1005370001C002C003C004C005C006C0070537E5F7
:1005470037640A7002F5370536E53670020535FF60
:10055700AE35BE0109BFF40675350075360005389E
:10056700E53864087002F538300019053BE53B7043
:1005770002053AC39488E53A9413400E753A137509
:100587003B888006753A00753B00742D2538F8E6E0
:10059700FD7C0074252538F8E6FB7A00AF38120792
:1005A700CE74422538F8E6FD7C00AF38120759D0E3
:1005B70007D006D005D004D003D002D001D000D098
:0A05C700D0D082D083D0F0D0E03213
:0E0A020000007F237E337DB6DDFEDEFCDFFAD2
:010A100022C3
:1009400012083A120A021209881209ED7B007A0095
:100950007941755001E4FD1206D01204641202A41C
:0509600012089E80F565
:06073800011E00011FFF7D
:10075900ED4C600FA8077401088002C333D8FC422E
:100769001E800EA8077401088002C333D8FCF45216
:100779001EE51E651F6013E51EF4F580E5A0541FF4
:0A0789004480F5A053A01F851E1F39
:010793002243
:10073E000E08C0F9A4B0999282F88090FFC18CC8BF
:0A074E000816010204081020408084
:1007CE007580FFE5A0541F44E0F5A074162FF8E6DF
:1007DE00F580E5A0541F44C0F5A053A01F74082D4A
:1007EE00F8E6F580EB4A600353807FE5A0541F4482
:0707FE00E0F5A053A01F224B
:10065D00E4FFC2C4D2C2D2B5D2B420B3027F04200B
:10066D00B2027F0520B1027F0620B0027F07D2C4FF
:10067D00C2C2D2B5D2B420B3027F0820B2027F0924
:10068D0020B1027F0A20B0027F0BD2C4D2C2C2B504
:10069D00D2B420B3027F0C20B2027F0D20B1027FB5
:1006AD000E20B0027F0FD2C4D2C2D2B5C2B420B3D5
:1006BD00027F1020B2027F1120B1027F1220B00202
:0206CD007F1399
:0106CF002208
:100988007580FFE5A0541F4480F5A053A01FE4F52F
:0D09980080E5A0541F44A0F5A053A01F222D
:040A2000D2A07F05DC
:080A240000AE071FEE70F9227D
:0F0A1100D2A1120A20C2A17F05120A24C2A0227C
:0C0A2C00C2A1120A20D2A17F05020A24F8
:1009C000C2A0A20192A17F05120A24120A20C2A08D
:0709D000D2A17F05020A24F9
:0A09A500AB05120A117FA01208052D
:1009AF00120A20A2A19201C2A07F05120A24A2015D
:0109BF002215
:02080500AD073D
:10080700E4FCECC39408748094805024C2A07F0554
:10081700120A24ED30E704D2A18002C2A17F05129B
:100827000A24D2A0ED25E0FD7F05120A240C80D210
:02083700C2A05D
:01083900229C
:10091A00E4FCECC39408748094805017120A20ED0A
:10092A0025E0FD30A103430501C2A07F05120A2478
:05093A000C80DFAF0599
:01093F002295
:02086E00AB07D6
:10087000120A117F901208051209AFAF0312080582
:100880001209AF120A117F911208051209AF12095D
:0D0890001AAD07D2011209C0120A2CAF05E3
:01089D002238
:100794008B4C8A4D894E1209A5AF03120805120924
:1007A400AFAF501550EF601FAB4C054EE54EAA4D50
:1007B4007002054D14F9120136FF1208051209AF33
:0A07C4007FC8120A2480DA020A2C12
:1006D0008B4C8A4D894E1209A5AF031208051209E9
:1006E000AF120A117FA11208051209AFAF501550C1
:1006F000EF602412091AAB4C054EE54EAA4D70026C
:10070000054D14F9EF12014FE5506004C20180025B
:0A071000D2011209C080D5020A2CA4
:0409D7007F057E001A
:1009DB007C007D0C120161EF1FAC0670011E4C7088
:0209EB00F622F2
:0208CC00AB0778
:1008CE00E4FAEAC39408748094805012C294EB1335
:1008DE0092941209D7D294EBC313FB0A80E47F05DE
:0508EE007E000209DBA1
:10096500E4FAEAC39408748094805014C294EBC3EB
:1009750013FBD2943094034303801209D70A80E213
:02098500AF03BE
:01098700224D
:1008F300C201D2947F0C7E001209DBC2947F507E2A
:10090300001209DBD2947F0A7E001209DBA29492C3
:06091300011209D7A20148
:0109190022BB
:10083A001208F37FCC1208CC7F441208CC1208F3BA
:10084A007FCC1208CC7FBE1208CC120965A9071208
:10085A000965EFAD01FCEC1200B3E4FBFA7980788C
:04086A004102001136
:10000E0002012BEC5D046005E85904700302012126
:10001E001200EC580460F6EC4860F2EC7004FDFE41
:10002E00FF22C860DB2481C85009C39860025006C5
:10003E000201289850CAF582E9294B4A7005AB8215
:10004E0002011775F0007C1A7880C3EF9BEE9AEDD3
:10005E0099400DC3EF9BFFEE9AFEED99FDE842F03D
:10006E00DC23ACF0D0E0FFD0E0FED0E0FDAB822090
:10007E00E7101BEB60BAEC2CFCEF33FFEE33FEED1A
:10008E0033FD020103E803F830E705C0F075F00018
:10009E00EF2FFFEE33FEED33FD40B830E7C280AAFE
:1000AE0075F020800E75F010800575F0087D007ECD
:1000BE00007F003392D530D503120296EC334010F8
:1000CE00EF33FFEE33FEED33FDEC33FCD5F0ED22D6
:0E00DE00E5F0247EA2D513CC92E7CDCEFF2212
:1000EC00E9D2E7C933E833F892D5EDD2E7CD33EC5A
:0700FC0033FC5002B2D522D3
:10010300EC30E7100FBF000C0EBE00080DBD00045D
:100113000BEB6014A2D5EB13FCED92E7FD2274FF09
:10012300FCFDFEFF22E480F8A2D574FF13FC7D8062
:03013300E480EF76
:030000000205D125
:0C05D100787FE4F6D8FD75815002061812
:10013600BB010689828A83E0225002E722BBFE02C7
:09014600E32289828A83E49322FA
:10014F00BB010689828A83F0225002F722BBFE018F
:02015F00F32289
:10016100EF8DF0A4A8F0CF8CF0A428CE8DF0A42EB2
:02017100FE226C
:10017300BC000BBE0029EF8DF084FFADF022E4CC70
:10018300F875F008EF2FFFEE33FEEC33FCEE9DEC39
:10019300984005FCEE9DFE0FD5F0E9E4CEFD22ED7F
:1001A300F8F5F0EE8420D21CFEADF075F008EF2FC9
:1001B300FFED33FD4007985006D5F0F222C398FDBA
:0501C3000FD5F0EA2257
:1001C80075F008758200EF2FFFEE33FECD33CDCCEE
:1001D80033CCC58233C5829BED9AEC99E582984071
:1001E8000CF582EE9BFEED9AFDEC99FC0FD5F0D64E
:1001F800E4CEFBE4CDFAE4CCF9A88222B800C1B978
:100208000059BA002DEC8BF084CFCECDFCE5F0CBB5
:10021800F97818EF2FFFEE33FEED33FDEC33FCEBEE
:1002280033FB10D703994004EB99FB0FD8E5E4F9A9
:10023800FA227818EF2FFFEE33FEED33FDEC33FC96
:10024800C933C910D7059BE99A4007EC9BFCE99A8A
:10025800F90FD8E0E4C9FAE4CCFB2275F010EF2FCF
:10026800FFEE33FEED33FDCC33CCC833C810D707CF
:100278009BEC9AE899400AED9BFDEC9AFCE899F80A
:0E0288000FD5F0DAE4CDFBE4CCFAE4C8F9229D
:0E029600C3E49FFFE49EFEE49DFDE49CFC2279
:1005DD00020940E493A3F8E493A34003F68001F2EB
:1005ED0008DFF48029E493A3F85407240CC8C3331F
:1005FD00C4540F4420C8834004F456800146F6DFEE
:10060D00E4800B010204081020408090071AE47E5C
:10061D00019360BCA3FF543F30E509541FFEE493E2
:10062D00A360010ECF54C025E060A840B8E493A3A9
:10063D00FAE493A3F8E493A3C8C582C8CAC583CAD4
:10064D00F0A3C8C582C8CAC583CADFE9DEE780BE8C
:0107580000A0
:00000001FF
