:10084500082D0A0A0A0A0A0A0A0A082500000000F1
:1008550000000000083F0000000000000000013D0E
:010865001979
:100C3F00E4FFEFC3940874809480500F742D2FF845
:0B0C4F00760A74252FF8E4F60F80E70A
:010C5A002277
:10075A00E53770737537011207D28F21E5236521BA
:10076A00FF5521F522E521F45FF524852123E522B1
:10077A0024FB604E24FD601614602B240570481279
:10078A000C3F053EE53E75F0038485F03E22E53ECA
:10079A0064017033153DC37480948050047F0080D7
:1007AA0002AF3D8F3D22E53E6401701B053DD3E556
:1007BA003D94637480948040047F638002AF3D8FD0
:0707CA003D22A200B39200E2
:0107D1002205
:1004D300E53645356003020645F535753601120AE2
:1004E300BA8F3C8E3B8D3A8C39E4FFFE7DC87C424B
:1004F300AB3CAA3BA93AA8391201061203638E1E2C
:100503008F1F300073E4FFFE7D207C42AB3CAA3B8F
:10051300A93AA8391202AC40057547CC805AE4FFCA
:10052300FE7DA07C41AB3CAA3BA93AA8391202ACA0
:1005330060025005754733803FE4FFFE7DA07CC118
:10054300AB3CAA3BA93AA839120015E4FBFA79405F
:100553007840120106E4FBFA79A0784112020FE415
:10056300FBFA7980783F120015E4FBFA794C784264
:100573001201061203638F47AC47E412032FE4FB17
:10058300FA794C784212020FE4FBFA79C8784212E6
:100593000106120363AB07AA06E53E14604F14601D
:1005A3006624026003020645752D0BAE1EAF1F7C49
:1005B300037DE81204707C007D0A1204708D31AE55
:1005C3001EAF1F7C007D641204707C007D0A120440
:1005D300708D32AE1EAF1F7C007D0A1204707C004A
:1005E3007D0A1204708D33AE1EAF1F8049752D0C2A
:1005F300E53D75F00A8475F00A8485F033E53D75B1
:10060300F00A8485F03422752D0D7C007D64AF03E0
:10061300AE021204707C007D0A1204708D327C00DD
:100623007D0AAF03AE021204707C007D0A120470CF
:100633008D33AE02AF037C007D0A1204708D3475D6
:020643002A018A
:010645002292
:10099800AF47120CDA2000047F0180027F008F3FEE
:1009A800AF3E7E00EF70047D0180027D008D40EF38
:1009B80064014E70047F0180027F008F41E53E6430
:0C09C8000270047F0180027F008F422239
:100D0600538E7F5389F0758A18758CFCC28DD28CF0
:050D1600D2A9D2AF22BA
:03000B000206D218
:1006D200C0E0C0F0C083C082C0D075D000C000C0EE
:1006E20001C002C003C004C005C006C0070537E54B
:1006F20037640A7002F5370536E53670020535FFB4
:10070200AE35BE0109BFF4067535007536000538F1
:10071200E53864087002F538742D2538F8E6FD7C5A
:100722000074252538F8E6FB7A00AF38120A837484
:100732003F2538F8E6FD7C00AF38120A10D007D00A
:1007420006D005D004D003D002D001D000D0D0D042
:0807520082D083D0F0D0E03228
:0E0D2F0000007F237E337DB6DDFEDEFCDFFAA2
:010D3D002293
:100CAC00120ABA120D2F120C22120D0612075A122A
:070CBC0004D312099880F532
:100866000148000149FF014A00014BFF014C00010C
:020876004DFF34
:100A1000ED4C600FA8077401088002C333D8FC4274
:100A200048800EA8077401088002C333D8FCF45232
:100A300048E54865496013E548F4F580E5A0541F92
:0A0A40004480F5A053A01F8548492B
:010A4A002289
:100BB900EF6005434A408003534ABFE54A654B60ED
:100BC90011854A80E5A0541F44A0F5A053A01F85B4
:020BD9004A4B85
:010BDB0022F7
:100BDC00EF6005434C108003534CEFE54C654D60C2
:100BEC0011854C80E5A0541F44A0F5A053A01F858F
:020BFC004C4D5E
:010BFE0022D4
:100878000E08C0F9A4B0999282F88090FFC68C88BF
:0A0888000816010204081020408049
:100A83007580FFE5A0541F44E0F5A074162FF8E627
:100A9300F580E5A0541F44C0F5A053A01F74082D92
:100AA300F8E6F580EB4A600353807FE5A0541F44CA
:070AB300E0F5A053A01F2293
:1007D200E4FFC2C4D2C2D2B5D2B420B3027F042095
:1007E200B2027F0520B1027F0620B0027F07D2C489
:1007F200C2C2D2B5D2B420B3027F0820B2027F09AE
:1008020020B1027F0A20B0027F0BD2C4D2C2C2B58D
:10081200D2B420B3027F0C20B2027F0D20B1027F3E
:100822000E20B0027F0FD2C4D2C2D2B5C2B420B35E
:10083200027F1020B2027F1120B1027F1220B0028B
:020842007F1322
:010844002291
:100C22007580FFE5A0541F4480F5A053A01FE4F592
:0D0C320080E5A0541F44A0F5A053A01F2290
:100C5B00E4FEEEC3940874809480500FC297EF1398
:0B0C6B0092A3EFC313FFD2970E80E7A7
:010C7600225B
:100D1B00C29300C29700D29300120C5BAF05120C6A
:040D2B005BC29322F2
:10091E00E4FDC29300C29700D29300120C5BE4FF79
:10092E00EFC39408748094805011C297EDC313FDE9
:10093E0030A303430580D2970F80E5C29300C29780
:0C094E0000D29700C2A300D2A300AF05A6
:01095A00227A
:0608E0008B588A59895A69
:1008E600E4FD7F8E120D1BE4FCECC394037480942C
:1008F60080501EEC25E0FFC374849FFFAB58AA59B5
:10090600A95A8C827583001203FDFD120D1B0C8003
:08091600D87D807F8E020D1BCD
:060AEE008B5B8A5C895D50
:100AF400E4FCECC3940374809480501EEC25E0FF66
:100B0400C374859FFF12091EAB5BAA5CA95D8C822E
:0A0B1400758300EF12043C0C80D83A
:010B1E0022B4
:040D4D00D2A07F05AC
:080D510000AE071FEE70F9224D
:0F0D3E00D2A1120D4DC2A17F05120D51C2A022EC
:0C0D5900C2A1120D4DD2A17F05020D5168
:100CC300C2A0A20192A17F05120D51120D4DC2A027
:070CD300D2A17F05020D51C3
:0A0C7700AB07120D3E7F901209DB5F
:100C8100120D4DA2A19202C2A07F05120D51A20226
:010C91002240
:0709D400AB05120D3E7FA0F0
:0209DB00AD0766
:1009DD00E4FCECC39408748094805024C2A07F057D
:1009ED00120D51ED30E704D2A18002C2A17F051294
:1009FD000D51D2A0ED25E0FD7F05120D510C80D2D9
:020A0D00C2A085
:010A0F0022C4
:100B6D00E4FCECC39408748094805017120D4DED85
:100B7D0025E0FD30A103430501C2A07F05120D51F3
:050B8D000C80DFAF0544
:010B92002240
:100B9300120C77AF031209DB120C81120D3E7F9109
:100BA3001209DB120C81120B6DAD07D201120CC3BB
:050BB300120D59AF0511
:010BB800221A
:100CDA00120C777F411209DB120C81AF031209DB78
:060CEA00120C81020D59FD
:10095B008B4E8A4F89501209D4120C81AF031209A6
:10096B00DB120C81AF521552EF601FAB4E0550E5F9
:10097B0050AA4F7002054F14F91203E4FF1209DB62
:0D098B00120C817FC8120D5180DA020D5947
:100893008B538A5489551209D4120C81AF03120960
:1008A300DB120C81120D3E7FA11209DB120C81AF0A
:1008B300571557EF6024120B6DAB530555E555AA39
:1008C300547002055414F9EF12042AE5576004C268
:0D08D300018002D201120CC380D5020D5924
:040CF0007F057E00FE
:100CF4007C007D0C12045EEF1FAC0670011E4C706C
:020D0400F622D5
:020B1F00AB0722
:100B2100E4FAEAC39408748094805012C294EB13DF
:100B31009294120CF0D294EBC313FB0A80E47F056C
:050B41007E00020CF42F
:100BFF00E4FAEAC39408748094805014C294EBC34F
:100C0F0013FBD294309403430380120CF00A80E25A
:020C1F00AF0321
:010C210022B0
:100B4600C202D2947F0C7E00120CF4C2947F507EB7
:100B560000120CF4D2947F0A7E00120CF4A2949236
:060B660002120CF0A202D5
:010B6C002266
:100ABA00120B467FCC120B1F7F44120B1F120B46E0
:100ACA007FCC120B1F7FBE120B1F120BFFA907123E
:100ADA000BFFEFAD01FCEC12032AE4FBFA798078F4
:040AEA004102020FB4
:0600030000007F26DFFE75
:0100090022D4
:100C9200E4FEEEC3940874809480500DD29012004A
:090CA20003C2901200030E80E968
:010CAB002226
:100A4B00E4F5D9F5E9F5F9120C92D2DE30910330C9
:100A5B00DFFAC2DE20DF1CAFF9EFFEADE9EDFFAC34
:100A6B0006E412032A7B967A43798B783C120106B3
:070A7B00020363C2DF7F00EC
:010A82002251
:10000E000203CFE86480F8E933E83360110460F04E
:10001E00ED33EC337009E8FCE9FDEAFEEBFF220458
:10002E0060DED3EB9FEA9EE99DE8C2E78CF0C2F753
:10003E0095F0400CE8CCF8E9CDF9EACEFAEBCFFB1F
:10004E0012039A85D0F05804700320D5B3E80470DB
:10005E00075002B2D50203D992D5EC0460F7E4CC76
:10006E00C0E0C398F8603B94186008400DD0E0FBE8
:10007E000203B1E4FBFAC9FC8028E830E406E4C9C7
:10008E00FBE4CAFCE830E305E4C9CACBFCE854073C
:10009E006010F8C3E913F9EA13FAEB13FBEC13FC47
:1000AE00D8F130F52FC3E49CFCEF9BFFEE9AFEEDEA
:1000BE0099FDD0E0FBEF4E4D4C701222DB03020394
:1000CE00D6EC2CFCEF33FFEE33FEED33FDED30E7D7
:1000DE00EB0203B1EF2BFFEE3AFEED39FDD0E0FB64
:1000EE0050130BBB00030203D9ED13FDEE13FEEF0D
:0800FE0013FFEC13FC0203B137
:10010600EC4D6011E8497017ED33EC3304600DE4F3
:10011600FCFFFEFD22E933E8330470F80203CF1238
:10012600039A58046009E4CC248150062850090239
:1001360003D92840030203D6C0E0EB4A7044B980D5
:1001460006D0E0FB0203C5EF4E701CBD8008EBFF36
:10015600EAFEE9FD80EBE98DF0A4FEE5F00201EF91
:10016600E9CDF9EAFEEBFFEF89F0A4FCE5F0CE89D4
:10017600F0A42EFFE435F0CD89F0A42DFEE435F091
:100186008067EF4E7005BD80D780C3EF8BF0A4ACBF
:10019600F0EE8BF0A42CFCE435F0F8EF8AF0A42CFA
:1001A600E5F038FCE433CB8DF0A42CFCE5F03BF80D
:1001B600EE8AF0A42CFCE5F038F8E433CF89F0A4FD
:1001C6002CFCE5F038CF3400CE89F0A42FFFE5F003
:1001D6003EFEE433C98DF0A42EFEE5F039CD8AF05B
:1001E600A42FFFE5F03EFEE43DFD33D0E0FB5007D3
:1001F6000BBB000F0203D9EC2CFCEF33FFEE33FEF2
:06020600ED33FD0203B11F
:10020C000203D9EC5D046005E8590470030203CFC6
:10021C0012039A580460F6EC4860F2EC7004FDFE90
:10022C00FF22C860DB2481C85009C39860025006C5
:10023C000203D69850CAF582E9294B4A7005AB8265
:10024C000203C575F0007C1A7880C3EF9BEE9AED23
:10025C0099400DC3EF9BFFEE9AFEED99FDE842F03D
:10026C00DC23ACF0D0E0FFD0E0FED0E0FDAB822090
:10027C00E7101BEB60BAEC2CFCEF33FFEE33FEED1A
:10028C0033FD0203B1E803F830E705C0F075F00068
:10029C00EF2FFFEE33FEED33FD40B830E7C280AAFE
:1002AC0074F8CC6480CCC86480C8F58204604FC3F9
:1002BC00EB9FF5F0EA9E42F0E99D42F0E89C45F098
:1002CC00603C501DE5825FFFE582D313CB5BCBF422
:1002DC002B5582FB50280ABA002409B9002008804B
:1002EC001DE5825BFBE582D313CF5FCFF4C3132FE5
:1002FC005582FF50090EBE00050DBD00010CC3EB6D
:10030C009FF5F0EA9E42F0E99D42F0E89C45F060D2
:09031C0007CC4820E701B3EC22F4
:1003250075F020800E75F010800575F0087D007E53
:10033500007F003392D530D5031204C5EC3340104D
:10034500EF33FFEE33FEED33FDEC33FCD5F0ED225C
:0E035500E5F0247EA2D513CC92E7CDCEFF2298
:10036300EDD2E7CD33EC3392D524814006E4FFFE92
:10037300FDFC22FCE4CFCECDCC24E0501174FF80F1
:10038300EDC3CC13CCCD13CDCE13CECF13CF04708E
:07039300F030D5DE0204C5C5
:10039A00E9D2E7C933E833F892D5EDD2E7CD33ECA9
:0703AA0033FC5002B2D52222
:1003B100EC30E7100FBF000C0EBE00080DBD0004AD
:1003C1000BEB6014A2D5EB13FCED92E7FD2274FF59
:1003D100FCFDFEFF22E480F8A2D574FF13FC7D80B2
:0303E100E480EFC6
:03000000020646AF
:0C064600787FE4F6D8FD75815D02068D1A
:1003E400BB010689828A83E0225002E722BBFE0217
:0903F400E32289828A83E493224A
:1003FD00BB010CE58229F582E5833AF583E02250B5
:10040D0006E92582F8E622BBFE06E92582F8E222FE
:0D041D00E58229F582E5833AF583E4932218
:10042A00BB010689828A83F0225002F722BBFE01B1
:02043A00F322AB
:10043C00F8BB010DE58229F582E5833AF583E8F0F6
:10044C00225006E92582C8F622BBFE05E92582C8A2
:02045C00F2228A
:10045E00EF8DF0A4A8F0CF8CF0A428CE8DF0A42EB2
:02046E00FE226C
:10047000BC000BBE0029EF8DF084FFADF022E4CC70
:10048000F875F008EF2FFFEE33FEEC33FCEE9DEC39
:10049000984005FCEE9DFE0FD5F0E9E4CEFD22ED7F
:1004A000F8F5F0EE8420D21CFEADF075F008EF2FC9
:1004B000FFED33FD4007985006D5F0F222C398FDBA
:0504C0000FD5F0EA2257
:0E04C500C3E49FFFE49EFEE49DFDE49CFC2248
:10065200020CACE493A3F8E493A34003F68001F206
:1006620008DFF48029E493A3F85407240CC8C333A9
:10067200C4540F4420C8834004F456800146F6DF78
:10068200E4800B0102040810204080900845E47EBB
:10069200019360BCA3FF543F30E509541FFEE4936D
:1006A200A360010ECF54C025E060A840B8E493A334
:1006B200FAE493A3F8E493A3C8C582C8CAC583CA5F
:1006C200F0A3C8C582C8CAC583CADFE9DEE780BE17
:010892000065
:00000001FF
