:1008D50008570000000000000000083B050A0A0A4E
:1008E5000A0A0A0A08300000000000000000032878
:0608F50011595601501ECE
:100BC900E4F556F525F526F53AF551F552F52CFFDC
:100BD900EFC39403748094805009742D2FF8E4F6C0
:030BE9000F80ED8D
:010BEC0022E6
:100C6800E4FFEFC3940874809480500F743B2FF80E
:0B0C7800760A74302FF8E4F60F80E7D6
:010C8300224E
:10096600C3E54794C8E5469400400BD3E54794D0C9
:10097600E54694074006E4FFFEFDFC22E5472438E1
:10098600FFE54634FFFEEF25E0FFEE33FE7C007DFB
:0F0996002D1202E4EF240AFDE43EFCE41201C935
:0109A500222F
:10072200E54560030207D57545011208628F21E590
:10073200236521FF5521F522E521F45FF52485216A
:1007420023E52264047011120C680553E55375F019
:10075200038485F053E4F527E55364017014E52220
:100762006405700E120C680527E52775F003848571
:10077200F027AF537E00EF64027036AD22FCED64C9
:100782000870170550D3E550946374809480400438
:100792007B638002AB508B508017ED64094C701163
:1007A2001550C37480948050047D008002AD508D3A
:1007B20050EF4E701EE52264097002D202E52464F5
:1007C200097010C3E54C94D0E54B94074003120B1B
:0307D200C9C20297
:0107D5002201
:10034700E54445436003020627F5437544017F01F1
:10035700120B2BE54FD39432748094804010EF94A6
:1003670032748094805007200404D2048010300433
:100377000DC3E54E94B8E54D940B4002C2048F4F70
:100387002004030204CD753D0A753C0AE4F5367571
:100397003B10120AC6E4FBFA7920784112001E12BC
:1003A70002028E088F09120966E4FBFA7920784168
:1003B70012001E120202AB07AA06AE08AF097C00A4
:1003C7007D0A1202E47C007D0A1202E48D3EAE082B
:1003D700AF097C007D0A1202E48D3F75400BEB4AA2
:1003E7007009D20575411175421122C205E5507594
:1003F700F00AA4FFD3E5099FE50895F04003D380F1
:1004070001C39201C3E52C9402748094804018D3F1
:10041700EB9555EA9554400FD3E5099539E50895CD
:10042700384004D2038002C2038A548B55850838AA
:100437008509397C007D0AAF03AE021202E47C0015
:100447007D0A1202E48D417C007D0AAF03AE0212E1
:1004570002E48D42052CE52C64647003752C63D38C
:10046700E5569509E495084004AF568002AF098F19
:1004770056D3E53A9BE49A4004AF3A8002AF038F24
:100487003AE52C24FFFFE434FFFEAC25AD2612022B
:10049700D2E5092FFFE5083EFEAD2C7C001202E4F1
:1004A7008E258F26E52C24FFFFE434FFFEAC51ADEB
:1004B700521202D2EF2BFFEE3AFEAD2C7C00120255
:1004C700E48E518F5222E5531460421470030206E2
:1004D7000E240260030206277B007A007928120A9D
:1004E700FAE528C4540FF53BE528540FF53C753D54
:1004F7000BE529C4540FF53EE529540FF53F754028
:100507000BE52AC4540FF541E52A020609E527142D
:10051700605E1470030205D3240260030206277588
:100527003B0CE52C7003020627E55675F00A847527
:10053700F00A8485F03DE55675F00A8485F03E752E
:100547003F0BAE25AF267C007D641202E47C007D64
:100557000A1202E48D40AE25AF267C007D0A120206
:10056700E47C007D0A1202E48D41AE25AF26804F60
:10057700753B0DE52C7003020627E53A75F00A84F2
:1005870075F00A8485F03DE53A75F00A8485F03EFA
:10059700753F0BAE51AF527C007D641202E47C00C4
:1005A7007D0A1202E48D40AE51AF527C007D0A12E3
:1005B70002E47C007D0A1202E48D41AE51AF527C09
:1005C700007D0A1202E48D4275360122753B0EE565
:1005D7002C75F00A8475F00A8485F03CE52C75F0DB
:1005E7000A8485F03DE52C6037E52DC4540FF53EB0
:1005F700E52D540FF53F75400BE52EC4540FF5411B
:10060700E52E540FF54222753B0FE55075F00A842D
:1006170075F00A8485F041E55075F00A8485F0424B
:0106270022B0
:10092000AF537E00EF70047D0180027D008D57EF94
:1009300064014E70047F0180027F008F58E553648C
:100940000270047F0180027F008F59300107A200EE
:10095000E433FF80027F008F5AA205E433F55BA2E7
:0609600003E433F55C2204
:100CF800538E7F5389F0438905E4F58AF58CC28DBC
:030D0800D28C2268
:100CBA00538EBF53890F758B18758DFCC28FD28ED8
:050CCA00D2ABD2AF2205
:03001B00020628B2
:10062800C0E0C0F0C083C082C0D075D000C000C098
:1006380001C002C003C004C005C006C0070545E5E7
:1006480045640A7002F5450544E5447002054364B3
:10065800C845437004F543F5440548E54864087007
:1006680002F548054AE54A70020549FFAE49BE034E
:1006780019BFE816754900754A00AF8CEFAD8AF5C9
:1006880046EDF547758C00758A00300419054EE56E
:100698004E7002054DC394B8E54D940B400E754D50
:1006A8000B754EB98006754D00754E003002190560
:1006B8004CE54C7002054BC394D0E54B9407400EB3
:1006C800754B07754CD18006754B00754C00052B92
:1006D800E52B64647007F52BA200B39200743B25E8
:1006E80048F8E6FD74302548F8E6FBAF48120A5B87
:1006F80074572548F8E624FF9206AF48120A21D01D
:1007080007D006D005D004D003D002D001D000D045
:0A071800D0D082D083D0F0D0E032C0
:100C2E00120C4B120CF8120CBA7B007A00792812B7
:0D0C3E0009A612072212034712092080F5B3
:10086200E4FFC2C4D2C2D2B5D2B420B3027F042004
:10087200B2027F0520B1027F0620B0027F07D2C4F8
:10088200C2C2D2B5D2B420B3027F0820B2027F091D
:1008920020B1027F0A20B0027F0BD2C4D2C2C2B5FD
:1008A200D2B420B3027F0C20B2027F0D20B1027FAE
:1008B2000E20B0027F0FD2C4D2C2D2B5C2B420B3CE
:1008C200027F1020B2027F1120B1027F1220B002FB
:0208D2007F1392
:0108D4002201
:100C8400E4FEEEC3940874809480500FC297EF136F
:0B0C940092A3EFC313FFD2970E80E77E
:010C9F002232
:100CE400C29300C29700D29300120C84AF05120C79
:040CF40084C2932201
:1009E400E4FDC29300C29700D29300120C84E4FF8A
:1009F400EFC39408748094805011C297EDC313FD23
:100A040030A303430580D2970F80E5C29300C297B9
:0C0A140000D29700C2A300D2A300AF05DF
:010A200022B3
:0609A6008B088A09890A92
:1009AC00E4FD7F8E120CE4E4FCECC394037480949D
:1009BC0080501EEC25E0FFC374849FFFAB08AA098E
:1009CC00A90A8C82758300120283FD120CE40C8040
:0809DC00D87D807F8E020CE43F
:060AFA008B0A8A0B890C37
:100B0000E4FCECC3940374809480501EEC25E0FF59
:100B1000C374859FFF1209E4AB0AAA0BA90C8C824F
:0A0B2000758300EF1202B00C80D8BC
:010B2A0022A8
:040CA000D2A07F055A
:100CA400000000000000000000000000000000AE92
:060CB400071FEE70EB22A9
:0F0D0B00D2A1120CA0C2A17F05120CA4C2A0227B
:0C0D1A00C2A1120CA0D2A17F05020CA403
:020A9100AD07AF
:100A9300E4FCECC39408748094805024C2A07F05C6
:100AA300120CA4ED30E704D2A18002C2A17F05128B
:100AB3000CA4D2A0ED25E0FD7F05120CA40C80D27E
:020AC300C2A0CF
:010AC500220E
:100BA300E4FCECC39408748094805017120CA0EDFD
:100BB30025E0FD30A103430501C2A07F05120CA46B
:050BC3000C80DFAF050E
:010BC800220A
:030CCF00120A9175
:100CD200120CA0A2A1E433FDC2A07F05120CA4AFA6
:010CE200050C
:010CE30022EE
:10000300C2A0EF24FF92A17F05120CA4120CA0C280
:08001300A0D2A17F05020CA49C
:020B2B00AB0716
:100B2D00120D0B7F90120CCFAF03120CCF120D0BC9
:100B3D007F91120A91120CD2120BA3AD077F0112F5
:070B4D000003120D1AAF05B1
:010B5400227E
:100C4B007580FFE5A0541F4480F5A053A01FE4F569
:0D0C5B0080E5A0541F44A0F5A053A01F2267
:0608FB00010D00010EFFDB
:100A210030060FA8077401088002C333D8FC420DB9
:100A3100800EA8077401088002C333D8FCF4520D5C
:100A4100E50D650E6013E50DF4F580E5A0541F4436
:090A510080F5A053A01F850D0ED5
:010A5A002279
:040C10007F057E00DE
:100C1400EF1FAA0670011E4A600FE4FDEDC3940C99
:090C24007480948050EA0D80F305
:010C2D0022A4
:020B5500A907EE
:100B5700E4FBEBC39408748094805012C294E913A9
:100B67009294120C10D294E9C313F90B80E47F0519
:050B77007E00020C14D9
:100BED00E4FBEBC39408748094805014C294ECC35E
:100BFD0013FCD294309403430480120C100B80E24A
:020C0D00AF0432
:010C0F0022C2
:100B7C00C207D2947F0C7E00120C14C2947F507E5C
:100B8C0000120C14D2947F0A7E00120C14A29492C0
:060B9C0007120C10A20775
:010BA2002230
:100AC600120B7C7FCC120B557F44120B55120B7CFC
:100AD6007FCC120B557FBE120B55120BEDA90712D8
:100AE6000BEDEFAD01FCEC1201C9E4FBFA7980785D
:040AF6004102012791
:10090100125FC0F9A4B0999282F88090FFBFC689A6
:0E0911008E8C86880871010204081020408038
:100A5B007580FFE5A0541F44E0F5A074712FF8E6F4
:100A6B00F580E5A0541F44C0F5A053A01F745F2D63
:100A7B00F8E6F580EB600353807FE5A0541F44E05C
:060A8B00F5A053A01F229C
:10001E00EC4D6011E8497017ED33EC3304600DE4DC
:10002E00FCFFFEFD22E933E8330470F802026E1283
:10003E00023958046009E4CC248150062850090284
:10004E000278284003020275C0E0EB4A7044B98082
:10005E0006D0E0FB020264EF4E701CBD8008EBFF81
:10006E00EAFEE9FD80EBE98DF0A4FEE5F002010762
:10007E00E9CDF9EAFEEBFFEF89F0A4FCE5F0CE89BD
:10008E00F0A42EFFE435F0CD89F0A42DFEE435F07A
:10009E008067EF4E7005BD80D780C3EF8BF0A4ACA8
:1000AE00F0EE8BF0A42CFCE435F0F8EF8AF0A42CE3
:1000BE00E5F038FCE433CB8DF0A42CFCE5F03BF8F6
:1000CE00EE8AF0A42CFCE5F038F8E433CF89F0A4E6
:1000DE002CFCE5F038CF3400CE89F0A42FFFE5F0EC
:1000EE003EFEE433C98DF0A42EFEE5F039CD8AF044
:1000FE00A42FFFE5F03EFEE43DFD33D0E0FB5007BC
:10010E000BBB000F020278EC2CFCEF33FFEE33FE3C
:06011E00ED33FD0202506A
:10012400020278EC5D046005E85904700302026E73
:10013400120239580460F6EC4860F2EC7004FDFEDB
:10014400FF22C860DB2481C85009C39860025006AE
:100154000202759850CAF582E9294B4A7005AB82B0
:1001640002026475F0007C1A7880C3EF9BEE9AED6E
:1001740099400DC3EF9BFFEE9AFEED99FDE842F026
:10018400DC23ACF0D0E0FFD0E0FED0E0FDAB822079
:10019400E7101BEB60BAEC2CFCEF33FFEE33FEED03
:1001A40033FD020250E803F830E705C0F075F000B3
:1001B400EF2FFFEE33FEED33FD40B830E7C280AAE7
:1001C40075F020800E75F010800575F0087D007EB6
:1001D400007F003392D530D503120339EC3340103D
:1001E400EF33FFEE33FEED33FDEC33FCD5F0ED22BF
:0E01F400E5F0247EA2D513CC92E7CDCEFF22FB
:10020200EDD2E7CD33EC3392D524814006E4FFFEF4
:10021200FDFC22FCE4CFCECDCC24E0501174FF8053
:10022200EDC3CC13CCCD13CDCE13CECF13CF0470F0
:07023200F030D5DE020339B4
:10023900E9D2E7C933E833F892D5EDD2E7CD33EC0B
:0702490033FC5002B2D52284
:10025000EC30E7100FBF000C0EBE00080DBD00040F
:100260000BEB6014A2D5EB13FCED92E7FD2274FFBB
:10027000FCFDFEFF22E480F8A2D574FF13FC7D8014
:03028000E480EF28
:030000000207D61E
:0C07D600787FE4F6D8FD75817802081DDC
:10028300BB010CE58229F582E5833AF583E0225030
:1002930006E92582F8E622BBFE06E92582F8E2227A
:0D02A300E58229F582E5833AF583E4932294
:1002B000F8BB010DE58229F582E5833AF583E8F084
:1002C000225006E92582C8F622BBFE05E92582C830
:0202D000F22218
:1002D200EF8DF0A4A8F0CF8CF0A428CE8DF0A42E40
:0202E200FE22FA
:1002E400BC000BBE0029EF8DF084FFADF022E4CCFE
:1002F400F875F008EF2FFFEE33FEEC33FCEE9DECC7
:10030400984005FCEE9DFE0FD5F0E9E4CEFD22ED0C
:10031400F8F5F0EE8420D21CFEADF075F008EF2F56
:10032400FFED33FD4007985006D5F0F222C398FD47
:050334000FD5F0EA22E4
:0E033900C3E49FFFE49EFEE49DFDE49CFC22D5
:1007E200020C2EE493A3F8E493A34003F68001F2F3
:1007F20008DFF48029E493A3F85407240CC8C33318
:10080200C4540F4420C8834004F456800146F6DFE6
:10081200E4800B01020408102040809008D5E47E99
:10082200019360BCA3FF543F30E509541FFEE493DB
:10083200A360010ECF54C025E060A840B8E493A3A2
:10084200FAE493A3F8E493A3C8C582C8CAC583CACD
:10085200F0A3C8C582C8CAC583CADFE9DEE780BE85
:01091F0000D7
:00000001FF
