:10148F002425642C25302E32660D0A002325642C6A
:0D149F0025640D0A006572726F720D0A005F
:1010F30008380A0A0A0A0A0A0A0A0826000000002F
:0E11030000000000084E000000000000000088
:1014C900E4FFEFC3940874809480500F74382FF8A8
:0B14D900760A74262FF8E4F60F80E777
:0114E40022E5
:100B5E00E5456003020CA6754501120FC78F22E50D
:100B6E00246522FF5522F523E522F45FF525852223
:100B7E0024E523640D7002D20AE525640D704BC383
:100B8E00E54894E8E54794034013E4F556F557FB22
:100B9E007A007956755C01FD1211BA80261214C9BD
:100BAE00300B160557E557700205567B007A007913
:100BBE0056755C01E4FD1211BAA20BB3920BC20C76
:100BCE00E4F54BE4F547F548C20AE523640C7002E0
:100BDE00D20AE525640C702AC3E54894E8E54794EB
:100BEE00034007A209B392098018300B07A20CB379
:100BFE00920C800E1214C9054BE54B75F0038485DB
:100C0E00F04B200B03020CA6300C47AF237E00EFF7
:100C1E0064107019E54C24FBE434FFC364809480A7
:100C2E0050047D008005E54C24FBFD8D4CEF6411D6
:100C3E004E7065E54C2405FFE433FED3EF9463EE6E
:100C4E006480948040047F638005E54C2405FF8F0B
:100C5E004C22AF237E00EF64107019E54924FEE4A8
:100C6E0034FFC36480948050047D008005E54924E0
:100C7E00FEFD8D49EF64114E701EE5492402FFE41E
:100C8E0033FED3EF9463EE6480948040047F6380E0
:080C9E0005E5492402FF8F491E
:010CA600222B
:100CA700E54445436003020DEEF543754401121216
:100CB700DEE4FBFA79C878421200261202838E40DE
:100CC7008F4112126E8F4A200B03020DC4E54B149D
:100CD700605A14606C24026003020DEE75380BAE87
:100CE70040AF417C037DE812062A7C007D0A12068C
:100CF7002A8D3CAE40AF417C007D6412062A7C0001
:100D07007D0A12062A8D3DAE40AF417C007D0A1256
:100D1700062A7C007D0A12062A8D3EAE40AF417C32
:100D2700007D0A12062A8D3F752B012275380CE5C6
:100D37004A75F00A8475F00A8485F03EE54A020D8B
:100D4700E775380DAE56AF577C277D1012062A7C03
:100D5700007D0A12062A8D3BAE56AF577C037DE80D
:100D670012062A7C007D0A12062A8D3CAE56AF5722
:100D77007C007D6412062A7C007D0A12062A8D3DBE
:100D8700AE56AF577C007D0A12062A7C007D0A12F8
:100D9700062A8D3EAE56AF577C007D0A12062A8D75
:100DA7003F7F03EFC3940674809480503A74382FC2
:100DB700F8E6703374382FF8760A0F80E675380E28
:100DC700A20CE43304F53B300C0CE54C75F00A84B7
:100DD700F53EE54C800AE54975F00A84F53EE5499C
:070DE70075F00A8485F03F5E
:010DEE0022E2
:10103A0030090FE54AD3954C50047F6680067FCC71
:10104A0080027F14121564AC40AD41E412024AE4F6
:10105A00FBFA79C8784212012FC004C005C006C045
:10106A0007AC49E412024FA804A905AA06AB07D0A7
:10107A0007D006D005D0041201CC600250047F01CB
:10108A0080027F008F4EE54AC3954C50047F018051
:0C109A00027F008F4FA209E433F55022C2
:100EA300E5426003020F3A754201E52E7003020F1B
:100EB3003A64537039E52F64547033E530640D7030
:100EC3002DE531B40A28755B00854A5CAC40AD4121
:100ED300E412024AE4FBFA79C8784212012F8F60C8
:100EE3008E5F8D5E8C5D7BFF7A14798F8034E52E67
:100EF30064507028E52F64417022E530B4521DE53B
:100F030031B44118E532B40D13E533B40A0E7BFF57
:100F13007A14799B854C5B85495C80067BFF7A1448
:100F230079A41207517E007F0A7D007B007A007945
:080F33002E1206C3E4F54D2265
:10000E00538E7F5389F0758A18758CFCC28DD28CF5
:05001E00D2A9D2AF22BF
:03000B00020DEFF4
:100DEF00C0E0C0F0C083C082C0D075D000C000C0CA
:100DFF0001C002C003C004C005C006C0070545E519
:100E0F0045640A7002F5450544E54470020543FF49
:100E1F00AE43BE0109BFF406754300754400054299
:100E2F00E54264C87002F5420546E5466408700263
:100E3F00F546300A190548E54870020547C394E89E
:100E4F00E5479403400E7547037548E880067547DC
:100E5F000075480074382546F8E6FD7C0074262599
:100E6F0046F8E6FB7A00AF461212A7744E2546F8F5
:100E7F00E6FD7C00AF46121233D007D006D005D066
:100E8F0004D003D002D001D000D0D0D082D083D0F4
:040E9F00F0D0E0327D
:0300230002147153
:10147100C0E0C0D075D000C00030980B742E254D4F
:0E148100F8A699054DC298D000D0D0D0E03228
:0E15A40000007F237E337DB6DDFEDEFCDFFA25
:0115B2002216
:101343001212DE1215A41214AC12000E1215367B03
:10135300007A007956755C01E4FD1210A6120B5E4B
:0B136300120CA712103A120EA380F229
:101111000174000175FF0176000177FF017800017C
:0211210079FF54
:10123300ED4C600FA8077401088002C333D8FC4249
:1012430074800EA8077401088002C333D8FCF452DB
:1012530074E57465756013E574F4F580E5A0541FB7
:0A1263004480F5A053A01F857475A8
:01126D00225E
:10140800EF600543764080035376BFE576657760E5
:1014180011857680E5A0541F44A0F5A053A01F8530
:021428007677D5
:01142A00229F
:10142B00EF600543781080035378EFE578657960BA
:10143B0011857880E5A0541F44A0F5A053A01F850B
:02144B007879AE
:01144D00227C
:101123000F08C0F9A4B0999282F88090FFC6C7C88F
:0B1133008C0817010204081020408007
:1012A7007580FFE5A0541F44E0F5A074172FF8E6FA
:1012B700F580E5A0541F44C0F5A053A01F74082D66
:1012C700F8E6F580EB4A600353807FE5A0541F449E
:0712D700E0F5A053A01F2267
:100FC700E4FFC2C4D2C2D2B5D2B420B3027F042098
:100FD700B2027F0520B1027F0620B0027F07D2C48C
:100FE700C2C2D2B5D2B420B3027F0820B2027F09B1
:100FF70020B1027F0A20B0027F0BD2C4D2C2C2B591
:10100700D2B420B3027F0C20B2027F0D20B1027F41
:101017000E20B0027F0FD2C4D2C2D2B5C2B420B361
:10102700027F1020B2027F1120B1027F1220B0028E
:021037007F1325
:011039002294
:1014AC007580FFE5A0541F4480F5A053A01FE4F500
:0D14BC0080E5A0541F44A0F5A053A01F22FE
:10153600759850438E01538EFB75D7CC75D6FF43F5
:071546008E10D2ACD2AF22DF
:080003008F993099FDC299228A
:1014E500E4FEEEC3940874809480500FC297EF1306
:0B14F50092A3EFC313FFD2970E80E715
:0115000022C8
:10159000C29300C29700D293001214E5AF05121453
:0415A000E5C29322EB
:10117D00E4FDC29300C29700D293001214E5E4FF80
:10118D00EFC39408748094805011C297EDC313FD82
:10119D0030A303430580D2970F80E5C29300C29719
:0C11AD0000D29700C2A300D2A300AF053F
:0111B9002213
:06113F008B7A8A7B897C9B
:10114500E4FD7F8E121590E4FCECC3940374809447
:1011550080501EEC25E0FFC374849FFFAB7AAA7B09
:10116500A97C8C827583001205B7FD1215900C8041
:08117500D87D807F8E021590E9
:061312008B7D8A7E897FBD
:10131800E4FCECC3940374809480501EEC25E0FF39
:10132800C374859FFF12117DAB7DAA7EA97F8C8235
:0A133800758300EF1205F60C80D853
:011342002288
:0415C200D2A07F052F
:0815C60000AE071FEE70F922D0
:0F15B300D2A11215C2C2A17F051215C6C2A02275
:0C15CE00C2A11215C2D2A17F050215C6F1
:10154D00C2A0A20092A17F051215C61215C2C2A09B
:07155D00D2A17F050215C6B3
:0A150100AB071215B37F901211FE24
:10150B001215C2A2A19200C2A07F051215C6A2009D
:01151B0022AD
:0711F700AB051215B37FA048
:0211FE00AD073B
:10120000E4FCECC39408748094805024C2A07F0551
:101210001215C6ED30E704D2A18002C2A17F0512EB
:1012200015C6D2A0ED25E0FD7F051215C60C80D2B3
:02123000C2A05A
:011232002299
:1013BC00E4FCECC394087480948050171215C2EDB1
:1013CC0025E0FD30A103430501C2A07F051215C61F
:0513DC000C80DFAF05ED
:0113E10022E9
:1013E200121501AF031211FE12150B1215B37F91E4
:1013F2001211FE12150B1213BCAD07D20012154DBD
:051402001215CEAF053C
:0114070022C2
:101564001215017F411211FE12150BAF031211FE69
:0615740012150B0215CE5A
:1011BA008B588A59895A1211F712150BAF0312115B
:1011CA00FE12150BAF5C155CEF601FAB58055AE5B4
:1011DA005AAA597002055914F912059EFF1211FEF6
:0D11EA0012150B7FC81215C680DA0215CE53
:1010A6008B588A59895A1211F712150BAF03121170
:1010B600FE12150B1215B37FA11211FE12150BAFFE
:1010C6005C155CEF60241213BCAB58055AE55AAAAE
:1010D600597002055914F9EF1205E4E55C6004C283
:0D10E600008002D20012154D80D50215CEFB
:04157A007F057E006B
:10157E007C007D0C120618EF1FAC0670011E4C701D
:02158E00F62243
:02136E00AB07CB
:10137000E4FAEAC39408748094805012C294EB1388
:10138000929412157AD294EBC313FB0A80E47F0582
:051390007E0002157E45
:10144E00E4FAEAC39408748094805014C294EBC3F7
:10145E0013FBD29430940343038012157A0A80E270
:02146E00AF03CA
:011470002259
:10139500C200D2947F0C7E0012157EC2947F507ECF
:1013A5000012157ED2947F0A7E0012157EA29492B9
:0613B5000012157AA200EF
:0113BB00220F
:1012DE001213957FCC12136E7F4412136E12139558
:1012EE007FCC12136E7FBE12136E12144EA907120C
:1012FE00144EEFAD01FCEC12024AE4FBFA79807851
:04130E004102012F68
:0615DA0000007F26DFFE89
:0115E00022E8
:10151C00E4FEEEC3940874809480500DD2901215A2
:09152C00DAC2901215DA0E80E912
:011535002293
:10126E0053890FE4F58BF58D12151CD28E30910338
:10127E00308FFAC28E208F1CAF8DEFFEAD8BEDFF3F
:10128E00AC06E412024A7B967A43798B783C1200C4
:08129E0026020283C28F7F00CB
:0112A6002225
:10002600EC4D6011E8497017ED33EC3304600DE4D4
:10003600FCFFFEFD22E933E8330470F80202EF12FA
:1000460002BA58046009E4CC2481500628500902FB
:1000560002F92840030202F6C0E0EB4A7044B98078
:1000660006D0E0FB0202E5EF4E701CBD8008EBFFF8
:10007600EAFEE9FD80EBE98DF0A4FEE5F002010F52
:10008600E9CDF9EAFEEBFFEF89F0A4FCE5F0CE89B5
:10009600F0A42EFFE435F0CD89F0A42DFEE435F072
:1000A6008067EF4E7005BD80D780C3EF8BF0A4ACA0
:1000B600F0EE8BF0A42CFCE435F0F8EF8AF0A42CDB
:1000C600E5F038FCE433CB8DF0A42CFCE5F03BF8EE
:1000D600EE8AF0A42CFCE5F038F8E433CF89F0A4DE
:1000E6002CFCE5F038CF3400CE89F0A42FFFE5F0E4
:1000F6003EFEE433C98DF0A42EFEE5F039CD8AF03C
:10010600A42FFFE5F03EFEE43DFD33D0E0FB5007B3
:100116000BBB000F0202F9EC2CFCEF33FFEE33FEB3
:06012600ED33FD0202D1E1
:10012C000202F9EC5D046005E8590470030202EF69
:10013C001202BA580460F6EC4860F2EC7004FDFE52
:10014C00FF22C860DB2481C85009C39860025006A6
:10015C000202F69850CAF582E9294B4A7005AB8227
:10016C000202E575F0007C1A7880C3EF9BEE9AEDE5
:10017C0099400DC3EF9BFFEE9AFEED99FDE842F01E
:10018C00DC23ACF0D0E0FFD0E0FED0E0FDAB822071
:10019C00E7101BEB60BAEC2CFCEF33FFEE33FEEDFB
:1001AC0033FD0202D1E803F830E705C0F075F0002A
:1001BC00EF2FFFEE33FEED33FD40B830E7C280AADF
:1001CC0074F8CC6480CCC86480C8F58204604FC3DA
:1001DC00EB9FF5F0EA9E42F0E99D42F0E89C45F079
:1001EC00603C501DE5825FFFE582D313CB5BCBF403
:1001FC002B5582FB50280ABA002409B9002008802C
:10020C001DE5825BFBE582D313CF5FCFF4C3132FC5
:10021C005582FF50090EBE00050DBD00010CC3EB4D
:10022C009FF5F0EA9E42F0E99D42F0E89C45F060B3
:09023C0007CC4820E701B3EC22D5
:1002450075F020800E75F010800575F0087D007E34
:10025500007F003392D530D50312067FEC33401072
:10026500EF33FFEE33FEED33FDEC33FCD5F0ED223D
:0E027500E5F0247EA2D513CC92E7CDCEFF2279
:10028300EDD2E7CD33EC3392D524814006E4FFFE73
:10029300FDFC22FCE4CFCECDCC24E0501174FF80D2
:1002A300EDC3CC13CCCD13CDCE13CECF13CF04706F
:0702B300F030D5DE02067FEA
:1006EF00E56F245BF8E6056F227858300702785BD8
:1006FF00E475F00112068D02059E2000EB7F2ED2CD
:10070F00008018EF540F2490D43440D4FF30040BE2
:10071F00EF24BFB41A0050032461FFE57060021587
:10072F00700573E5737002057230070D7858E47524
:10073F00F00112068DEF0205E40200037403D207E5
:10074F008003E4C207F56F8B588A59895AE4F57014
:10075F00F572F573E57060077F2012072A80F57533
:10076F0071FFC201C200C202C203C205C206C208A3
:10077F001206F8FF700D3007057F0012073BAF73AD
:10078F00AE7222B4255FC2D5C2041206F8FF24D080
:10079F00B40A00501A75F00A787030D50508B6FF04
:1007AF000106C6A426F620D5047002D20380D924F0
:1007BF00CFB41A00EF5004C2E5D204020A28D201C6
:1007CF0080C6D20080C0D20280BCD2D580BAD205FA
:1007DF0080B47F2012072A2002077401B5700040F1
:1007EF00F11206EFFF12072A020763D208D2068022
:1007FF00951206EFFB1206EFFA1206EFF94A4B704D
:10080F0006791F7A0B7BFF20022EE570602A7E008F
:10081F008E827583001205B760060EEE657170F05B
:10082F00C2D5EBC0E0EAC0E0E9C0E0EE120A88D022
:10083F00E0F9D0E0FAD0E0FB12059EFF60AAEBC012
:10084F00E0EAC0E0E9C0E012072AD0E02401F9D0C5
:10085F00E03400FAD0E0FBE5710460DCD571D9809B
:10086F0087D20280A2120A6B60F7E5717001041241
:10087F000304A971600DE571600914F571120B1273
:10088F00EF60F3EA30E702F404C3995077EAF425F6
:10089F00710430E701E404F571800D120A6B60C139
:1008AF00EA05712571120304EA786EF630E701E468
:1008BF00257104D5710420050114120A88E4C0E0E3
:1008CF00120B12786EE6601320E70714F612071268
:1008DF00802204F6D0E014C0E07F00120712E57109
:1008EF0060071207091571800B300503120709D035
:1008FF00E0020763D0E00480C5120A6B60A0E571C7
:10090F0004120304786EEAF6E57120050260010413
:05091F002404120A8807
:1009240074FF04C0E0120B12120712E571200502D5
:100934006003120709D0E0B571E87F4512071C78FF
:100944006EE67F2B30E7047F2DF404C0E012072A03
:10095400D0E075F00A84C0F0120713D0E012071338
:10096400020763791080027908C206C2088008D29F
:10097400D5790A8004790AC2D5E571047002F5714B
:10098400E4FAFDFEFF1206EFFC7B082001131206B9
:10099400EFFD7B1030000A1206EFFE1206EFFF7B1C
:1009A40020EC3382D592D55013C3E43000069FFF68
:1009B400E49EFEE42001039DFDE49CFCE4CBF8C22C
:1009C40001EC700CCFCECDCCE824F8F870F380178E
:1009D400C3EF33FFEE33FEED33FDEC33FCEB33FBBF
:1009E400994002FB0FD8E9EB300105F8D0E0C44888
:1009F400B201C0E00AEC4D4E4F78207B0070C2EA91
:100A0400B5710040BCC0E0120A8AD0F0D0E02001E9
:100A140004C4C0E0C4B201C0F0120713D0F0D5F092
:100A2400EB02076312069D08005309675807D14C6F
:100A340007CD42096B4F09734409734907E643091B
:100A4400795508AA460908450874470B3F5007D54D
:100A54002D07D92E07FC2B07DD2307FA200B282AA4
:100A6400079548000007F4E571B4FF037571061299
:100A740006EFFC1206EFFD1206EFFE1206EFFF78FA
:100A840067020333790AA2D5200314300509B9108B
:100A9400020404B9080104A2D5200602500104206E
:100AA40002689202B570005034C0E07F2030031910
:100AB4007F30A20272067205500F120AE1C202C20E
:100AC40006C205C2087F30800F300503E9C0E0127A
:100AD400072A300503D0E0F9D0E0B570CC30051713
:100AE4007F30B9100C12072A7F583004077F7880B2
:100AF40003B9080312072A3002057F2D02072A7F53
:100B0400202008F87F2B2006F322920280CF7F005A
:100B1400B4070050052467F8E6FF22286E756C6C54
:100B24002900D2011206EF3001F8C201787030D5E5
:100B34000108F60207952D504349581206EF240385
:100B4400B405004001E4900B3A9312071B743A1267
:0A0B5400071BD20375700402096745
:1002BA00E9D2E7C933E833F892D5EDD2E7CD33EC8A
:0702CA0033FC5002B2D52203
:1002D100EC30E7100FBF000C0EBE00080DBD00048E
:1002E1000BEB6014A2D5EB13FCED92E7FD2274FF3A
:1002F100FCFDFEFF22E480F8A2D574FF13FC7D8093
:03030100E480EFA6
:10030400F920E72824F950037907E4F42402FB18C0
:10031400DBFDE624FB5014E9600DE4F618E604F670
:0F032400B40A08E4F6D9F57401F60A22C2D5220C
:10033300ED33EC3392D5FA602AB4FF33EDC2E77B99
:10034300FF60067A037958E4227A03796120D504A1
:100353007A03795C224E614E002B494E46002D49AB
:100363004E4600E47A08F608DAFC7B00740722E8BC
:10037300C0E0ECC0E0EDC0E0EEC0E0EFC0E0EA7545
:10038300F010A4CAABF075F04DA42BFBE435F0FCE0
:10039300EA2410FAEB34C5FBEC34D9FCEDC2E7FFD9
:1003A30075F056A4F42411C5F0F434C58FF0A42AD3
:1003B300E5F03BE43CF620E71412055ED0E0FFD005
:1003C300E0FED0E0FDD0E0FC12012F8014F4041213
:1003D300055ED0E0FFD0E0FED0E0FDD0E0FC1200EF
:1003E30026D0E0F8E6FAEDD2E7CD33EC332482FBF6
:1003F300E4C3CF33CFCE33CECD33CD33DBF37B0763
:1004030075F00A846004F6081B0AE5F0F6088FF01D
:10041300740AA4FFACF08EF0740AA42CFEACF05066
:10042300010C8DF0740AA42CFDE435F0F608DBDE34
:0304330074072229
:100436000202EFE86480F8E933E83360110460F003
:10044600ED33EC337009E8FCE9FDEAFEEBFF22042C
:1004560060DED3EB9FEA9EE99DE8C2E78CF0C2F727
:1004660095F0400CE8CCF8E9CDF9EACEFAEBCFFBF3
:100476001202BA85D0F05804700320D5B3E8047090
:10048600075002B2D50202F992D5EC0460F7E4CC2B
:10049600C0E0C398F8603B94186008400DD0E0FBBC
:1004A6000202D1E4FBFAC9FC8028E830E406E4C97C
:1004B600FBE4CAFCE830E305E4C9CACBFCE8540710
:1004C6006010F8C3E913F9EA13FAEB13FBEC13FC1B
:1004D600D8F130F52FC3E49CFCEF9BFFEE9AFEEDBE
:1004E60099FDD0E0FBEF4E4D4C701222DB03020269
:1004F600F6EC2CFCEF33FFEE33FEED33FDED30E78B
:10050600EB0202D1EF2BFFEE3AFEED39FDD0E0FB18
:1005160050130BBB00030202F9ED13FDEE13FEEFC1
:0805260013FFEC13FC0202D1EB
:10052E003F8000004120000042C80000447A0000D5
:10053E00461C400047C35000497424004B18968057
:10054E004CBEBC205A0E1BCA6753C21C749DC5AE4E
:10055E00FB60065407601C232312058CEB54386095
:10056E0009120578120587120026ECF8EDF9EEFA5D
:10057E00EFCB22EB12058780F1543803241C900533
:10058E002EFE93FC0EEE93FD0EEE930ECE93FF22F7
:03000000020F3BB1
:0C0F3B00787FE4F6D8FD75817F020F82FC
:10059E00BB010689828A83E0225002E722BBFE025B
:0905AE00E32289828A83E493228E
:1005B700BB010CE58229F582E5833AF583E02250F9
:1005C70006E92582F8E622BBFE06E92582F8E22243
:0D05D700E58229F582E5833AF583E493225D
:1005E400BB010689828A83F0225002F722BBFE01F6
:0205F400F322F0
:1005F600F8BB010DE58229F582E5833AF583E8F03B
:10060600225006E92582C8F622BBFE05E92582C8E6
:02061600F222CE
:10061800EF8DF0A4A8F0CF8CF0A428CE8DF0A42EF6
:02062800FE22B0
:10062A00BC000BBE0029EF8DF084FFADF022E4CCB4
:10063A00F875F008EF2FFFEE33FEEC33FCEE9DEC7D
:10064A00984005FCEE9DFE0FD5F0E9E4CEFD22EDC3
:10065A00F8F5F0EE8420D21CFEADF075F008EF2F0D
:10066A00FFED33FD4007985006D5F0F222C398FDFE
:05067A000FD5F0EA229B
:0E067F00C3E49FFFE49EFEE49DFDE49CFC228C
:10068D00FAE6FB0808E6F925F0F618E6CA3AF6226E
:10069D00D083D082F8E4937012740193700DA3A3EC
:1006AD0093F8740193F5828883E473740293686000
:0606BD00EFA3A3A380DF00
:1006C300EF4E6012EF60010EEDBB010B89828A834E
:1006D300F0A3DFFCDEFA2289F05007F709DFFCA95B
:0C06E300F022BBFEFCF309DFFCA9F022B2
:100F4700021343E493A3F8E493A34003F68001F26A
:100F570008DFF48029E493A3F85407240CC8C333AB
:100F6700C4540F4420C8834004F456800146F6DF7A
:100F7700E4800B01020408102040809010F3E47E07
:100F8700019360BCA3FF543F30E509541FFEE4936F
:100F9700A360010ECF54C025E060A840B8E493A336
:100FA700FAE493A3F8E493A3C8C582C8CAC583CA61
:100FB700F0A3C8C582C8CAC583CADFE9DEE780BE19
:01113E0000B0
:00000001FF
