:10072800083A0A0A0A0A0A0A0A0A08240000000003
:1007380000000000084C0000000000000000032139
:030748000B0C0D8A
:1009B700200019D2001204DB8F48E5456548FF5532
:0D09C70048F544E548F45FF54A85484522AF
:060AE700200202D20222EF
:01001E0022BF
:10087B00E54B6021C3E547940AE54694004016C258
:10088B0001E4F546F547AF4BFEFDFB7A00792E12DE
:06089B000368E4F54B22A6
:100AAA00538E7F5389F0438905E4F58AF58CC28D0C
:030ABA00D28C22B9
:100A5800538EBF53890F758B18758DFCC28FD28E3C
:050A6800D2ABD2AF2269
:03001B0002039449
:10039400C0E0C0F0C083C082C0D075D000C000C02F
:1003A40001C002C003C004C005C006C0070543E580
:1003B4004370020542FFAE42BE010BBF9008754276
:1003C40000754300C202AE42AF437C007D0A1203B3
:1003D40005ED4C7002C2003001080547E547700284
:1003E40005460539E53970020538FFAE38BE0319F4
:1003F400BFE816753800753900AF8CEFAD8AF52C5F
:10040400EDF52D758C00758A00E5435407FBFF2438
:100414003AF8E6FD7C0074242BF8E6FB7A00120619
:1004240037E5435407FF244CF8E6FD7C001206B57B
:10043400D007D006D005D004D003D002D001D0001C
:0B044400D0D0D082D083D0F0D0E032C6
:030023000207933E
:10079300C0E0C0D075D000C000309813D2017546B8
:1007A30000754700742E254BF8A699054BC298D3C4
:1007B300E54B940A748094804003754B00D000D0BD
:0407C300D0D0E03280
:100979001209D4120A587B007A00792112054E1205
:100989000A411209B7120AE712001E12087B80F207
:10074B000108000109FF010A00010BFF010C000168
:02075B000DFF90
:1006B500ED4C600FA8077401088002C333D8FC42D3
:1006C50008800EA8077401088002C333D8FCF452D1
:1006D50008E50865096013E508F4F580E5A0541FF1
:0A06E5004480F5A053A01F8508090A
:0106EF0022E8
:10091000EF6005430A408003530ABFE50A650B6098
:1009200011850A80E5A0541F44A0F5A053A01F859F
:020930000A0BB0
:0109320022A2
:10093300EF6005430C108003530CEFE50C650D606D
:1009430011850C80E5A0541F44A0F5A053A01F857A
:020953000C0D89
:01095500227F
:100A8200C0F9A4B0999282F88090FF88010204080C
:040A92001020408070
:100637007580FFE5A0541F44E0F5A053A01FEF907D
:100647000A8E93F580E5A0541F44C0F5A053A01F60
:1006570074822DF582740A3CF583E493F580EB4AA6
:10066700600353807FE5A0541F44E0F5A053A01F0B
:010677002260
:1004DB00E4FFC2C4D2C2D2B5D2B420B3027F04208F
:1004EB00B2027F0520B1027F0620B0027F07D2C483
:1004FB00C2C2D2B5D2B420B3027F0820B2027F09A8
:10050B0020B1027F0A20B0027F0BD2C4D2C2C2B587
:10051B00D2B420B3027F0C20B2027F0D20B1027F38
:10052B000E20B0027F0FD2C4D2C2D2B5C2B420B358
:10053B00027F1020B2027F1120B1027F1220B00285
:02054B007F131C
:01054D00228B
:1009D4007580FFE5A0541F4480F5A053A01FE4F5E3
:0D09E40080E5A0541F44A0F5A053A01F22E1
:100A4100759850438E01438E0475D7C775D6FE4302
:070A51008E10D2ACD2AF22DF
:080AD8008F993099FDC29922AB
:1009F100E4FEEEC3940874809480500FC297EF1305
:0B0A010092A3EFC313FFD2970E80E713
:010A0C0022C7
:100A9600C29300C29700D293001209F1AF05120962
:040AA600F1C29322E4
:10067800E4FDC29300C29700D293001209F1E4FF8F
:10068800EFC39408748094805011C297EDC313FD92
:1006980030A303430580D2970F80E5C29300C29729
:0C06A80000D29700C2A300D2A300AF054F
:0106B4002223
:06054E008B548A5589560A
:10055400E4FD7F8E120A96E4FCECC3940374809449
:10056400805036EC25E0FFC374849FFFAB54AA553A
:10057400A9568C827583001202A4FE75F00A847554
:10058400F00A84ADF0EDC454F0FDEE75F00A84E594
:10059400F04DFD120A960C80C07D807F8E020A9673
:0605A4008B0E8A0F891086
:1005AA00E4F511C3E511940374809480503CE5117D
:1005BA0025E0FFC374859FFF1206787512008F131A
:1005CA00E512C4F854F0C8E513C4540F4875F00A8C
:1005DA00A4FFE513540F2FAB0EAA0FA910851182A1
:0A05EA007583001202E3051180B9C9
:0105F40022E4
:040A0D00D2A07F0AEA
:100A1100000000000000000000000000000000AE27
:060A2100071FEE70EB223E
:0F0ABD00D2A1120A0DC2A17F0A120A11C2A022F1
:0C0ACC00C2A1120A0DD2A17F0A020A1179
:02075E00AD07E5
:10076000E4FCECC39408748094805024C2A07F0AF7
:10077000120A11ED30E704D2A18002C2A17F0A1251
:100780000A11D2A0ED25E0FD7F0A120A110C80D2D9
:02079000C2A005
:010792002244
:1008A100E4FCECC39408748094805017120A0DED97
:1008B10025E0FD30A103430501C2A07F0A120A1100
:0508C1000C80DFAF0513
:0108C600220F
:1008EC00AB05120ABD7FA012075E1208FEAF031201
:0208FC00075E95
:1008FE00120A0DA2A1E433FDC2A07F0A120A11AFA3
:01090E0005E3
:01090F0022C5
:10000300C2A0EF24FF92A17F0A120A11120A0DC2A5
:08001300A0D2A17F0A020A112C
:0208C700AB077D
:1008C900120ABD7F901208F3120ABD7F9112075ECA
:1008D9001208FE1208A1AD077F01120003120ACC0B
:0208E900AF0559
:0108EB0022EA
:100A6D00AB07120ABD7F9012075E1208FE7F41127E
:050A7D0008F3020ACCA1
:1007FB008B148A1589161208ECAF181518EF601FA9
:10080B00AB140516E516AA157002051514F912029C
:10081B008BFF12075E1208FE7FC8120A1180DA02E4
:02082B000ACCF5
:1005F5008B198A1A891B1208EC120ABD7FA11207F2
:100605005E1208FEAF1D151DEF60241208A1AB197F
:10061500051BE51BAA1A7002051A14F9EF1202D17F
:10062500E51D6004E4FF80027F0112000380D5020E
:020635000ACCED
:040999007F057E0058
:10099D00EF1FAA0670011E4A600FE4FDEDC3940C13
:0909AD007480948050EA0D80F37F
:0109B600221E
:02082D00A90719
:10082F00E4FBEBC39408748094805012C294E913D4
:10083F009294120999D294E9C313F90B80E47F05BE
:05084F007E0002099D7E
:10095600E4FBEBC39408748094805014C294ECC3F7
:1009660013FCD2943094034304801209990B80E25D
:02097600AF04CC
:01097800225C
:10085400C203D2947F0C7E0012099DC2947F507E05
:100864000012099DD2947F0A7E0012099DA29492DF
:0608740003120999A20322
:01087A00225B
:1007C7001208547FCC12082D7F4412082D120854AA
:1007D7007FCC12082D7FBE12082D120956A90712C9
:1007E7000956EFAD01FCEC1201D1E4FBFA798078F0
:0407F7004102012F8B
:060AE00000007F21DFFE93
:010AE60022ED
:100A2700E4FEEEC3940874809480500DD290120AAD
:090A3700E0C290120AE00E80E911
:010A40002293
:1006F000E4F5D9F5E9F5F9120A27D2DE3091033095
:10070000DFFAC2DE20DF1CAFF9EFFEADE9EDFFAC92
:1007100006E41201D17B967A43798B783C1200264D
:0707200002020AC2DF7F00A4
:0107270022AF
:10002600EC4D6011E8497017ED33EC3304600DE4D4
:10003600FCFFFEFD22E933E8330470F80202761273
:10004600024158046009E4CC248150062850090274
:10005600028028400302027DC0E0EB4A7044B9806A
:1000660006D0E0FB02026CEF4E701CBD8008EBFF71
:10007600EAFEE9FD80EBE98DF0A4FEE5F002010F52
:10008600E9CDF9EAFEEBFFEF89F0A4FCE5F0CE89B5
:10009600F0A42EFFE435F0CD89F0A42DFEE435F072
:1000A6008067EF4E7005BD80D780C3EF8BF0A4ACA0
:1000B600F0EE8BF0A42CFCE435F0F8EF8AF0A42CDB
:1000C600E5F038FCE433CB8DF0A42CFCE5F03BF8EE
:1000D600EE8AF0A42CFCE5F038F8E433CF89F0A4DE
:1000E6002CFCE5F038CF3400CE89F0A42FFFE5F0E4
:1000F6003EFEE433C98DF0A42EFEE5F039CD8AF03C
:10010600A42FFFE5F03EFEE43DFD33D0E0FB5007B3
:100116000BBB000F020280EC2CFCEF33FFEE33FE2C
:06012600ED33FD0202585A
:10012C00020280EC5D046005E8590470030202765B
:10013C00120241580460F6EC4860F2EC7004FDFECB
:10014C00FF22C860DB2481C85009C39860025006A6
:10015C0002027D9850CAF582E9294B4A7005AB82A0
:10016C0002026C75F0007C1A7880C3EF9BEE9AED5E
:10017C0099400DC3EF9BFFEE9AFEED99FDE842F01E
:10018C00DC23ACF0D0E0FFD0E0FED0E0FDAB822071
:10019C00E7101BEB60BAEC2CFCEF33FFEE33FEEDFB
:1001AC0033FD020258E803F830E705C0F075F000A3
:1001BC00EF2FFFEE33FEED33FD40B830E7C280AADF
:1001CC0075F020800E75F010800575F0087D007EAE
:1001DC00007F003392D530D50312035AEC33401014
:1001EC00EF33FFEE33FEED33FDEC33FCD5F0ED22B7
:0E01FC00E5F0247EA2D513CC92E7CDCEFF22F3
:10020A00EDD2E7CD33EC3392D524814006E4FFFEEC
:10021A00FDFC22FCE4CFCECDCC24E0501174FF804B
:10022A00EDC3CC13CCCD13CDCE13CECF13CF0470E8
:07023A00F030D5DE02035A8B
:10024100E9D2E7C933E833F892D5EDD2E7CD33EC03
:0702510033FC5002B2D5227C
:10025800EC30E7100FBF000C0EBE00080DBD000407
:100268000BEB6014A2D5EB13FCED92E7FD2274FFB3
:10027800FCFDFEFF22E480F8A2D574FF13FC7D800C
:03028800E480EF20
:0300000002044FA8
:0C044F00787FE4F6D8FD75815602049613
:10028B00BB010689828A83E0225002E722BBFE0271
:09029B00E32289828A83E49322A4
:1002A400BB010CE58229F582E5833AF583E022500F
:1002B40006E92582F8E622BBFE06E92582F8E22259
:0D02C400E58229F582E5833AF583E4932273
:1002D100BB010689828A83F0225002F722BBFE010C
:0202E100F32206
:1002E300F8BB010DE58229F582E5833AF583E8F051
:1002F300225006E92582C8F622BBFE05E92582C8FD
:02030300F222E4
:10030500BC000BBE0029EF8DF084FFADF022E4CCDC
:10031500F875F008EF2FFFEE33FEEC33FCEE9DECA5
:10032500984005FCEE9DFE0FD5F0E9E4CEFD22EDEB
:10033500F8F5F0EE8420D21CFEADF075F008EF2F35
:10034500FFED33FD4007985006D5F0F222C398FD26
:050355000FD5F0EA22C3
:0E035A00C3E49FFFE49EFEE49DFDE49CFC22B4
:10036800EF4E6012EF60010EEDBB010B89828A83AC
:10037800F0A3DFFCDEFA2289F05007F709DFFCA9B9
:0C038800F022BBFEFCF309DFFCA9F02210
:10045B00020979E493A3F8E493A34003F68001F235
:10046B0008DFF48029E493A3F85407240CC8C333A2
:10047B00C4540F4420C8834004F456800146F6DF71
:10048B00E4800B0102040810204080900728E47ED2
:10049B00019360BCA3FF543F30E509541FFEE49366
:1004AB00A360010ECF54C025E060A840B8E493A32D
:1004BB00FAE493A3F8E493A3C8C582C8CAC583CA58
:1004CB00F0A3C8C582C8CAC583CADFE9DEE780BE10
:01075D00009B
:00000001FF
