:10048C00084C000000000000000008300A0A0A0AAC
:10049C000A0A0A0A082800000000000000000325D0
:0304AC0013111118
:10000E00E53A60030201D2753A0112039D8F21E594
:10001E00246521FF5521F522E521F45FF523852185
:10002E0024E522640460030200E8E54364016003F2
:10003E000200C1AF44FE7C037DE812038BAC06AD1B
:10004E0007E54575F064A42DFDEC35F0FCE546752D
:10005E00F00AA42DFFE5F03CFE7C00EF2547F542AB
:10006E00EC3EF541E53EC4540F75F00AA4FFE53EA3
:10007E00540F2FF554E53FC4540F75F00AA4FFE555
:10008E003F540F2FF555E541F556E542F5577B00E8
:10009E007A007954755D04E4FD120664D3E5429549
:1000AE003DE541953C4003D38001C3920085413C20
:1000BE0085423D0543E54375F0038485F043E4F541
:1000CE0058C3E558940474809480500B744425589A
:1000DE00F8760A055880EAE4F539E54364016003D1
:1000EE000201D2E5226405701BF558C3E55894044D
:1000FE0074809480500B74442558F8760A05588005
:10010E00EAE4F539E53964017008FB7A00793E12AC
:10011E000696C3E53994047480948040030201D29C
:10012E00E52224FAB40D0040030201D29001487575
:10013E00F003A4C58325F0C5837302016F0201D2BB
:10014E000201790201970201B50201D20201830276
:10015E0001A10201BF0201D202018D0201AB020117
:10016E00C974442539F8E4F605392274442539F862
:10017E00760705392274442539F876080539227434
:10018E00442539F8760905392274442539F8760460
:10019E0005392274442539F876050539227444252B
:1001AE0039F8760605392274442539F87601053971
:1001BE002274442539F8760205392274442539F81B
:0401CE007603053976
:0101D200220A
:1001D300E5386003020284753801E54314603E1478
:1001E3006079240260030202847B007A007925127D
:1001F3000696E525C4540FF530E525540FF5317502
:10020300320BE526C4540FF533E526540FF5347548
:10021300350BE527C4540FF536E527806075300CA0
:1002230075330A75320A75310AE539700D75370A67
:1002330075360A75350A75340A22E4FFEFC395391A
:10024300503FEFFDE539C39DFD74432DF8E6FEC332
:1002530074079F2430F8A6060F80E175300D7532C0
:100263000A75310AE53EC4540FF533E53E540FF5E4
:100273003475350BE53FC4540FF536E53F540FF5A0
:010283003743
:010284002257
:10063200AF437E00EF70047D0180027D008D4CEFA0
:1006420064014E70047F0180027F008F4DE5436498
:100652000270047F0180027F008F4EA200E433F516
:020662004F2225
:1007AC00538E7F5389F0758A18758CFCC28DD28C50
:0507BC00D2A9D2AF221A
:03000B00020417D5
:10041700C0E0C0F0C083C082C0D075D000C000C0AB
:1004270001C002C003C004C005C006C007053AE505
:100437003A640A7002F53A0538E53864C87002F57F
:1004470038053BE53B64087002F53B7430253BF803
:10045700E6FD7428253BF8E6FBAF3B1205C7744C55
:10046700253BF8E6FDAF3B12058DD007D006D0053A
:10047700D004D003D002D001D000D0D0D082D08316
:05048700D0F0D0E032CE
:1006C7001207411207AC7B007A0079251205127BCD
:1006D700007A007948755C04E4FD1204D0E54AF518
:1006E7003CE54BF53D12000E1201D312063280F5A0
:0604AF00011E00011FFF09
:10058D00ED600FA8077401088002C333D8FC421E2A
:10059D00800EA8077401088002C333D8FCF4521EE4
:1005AD00E51E651F6013E51EF4F580E5A0541F449C
:0905BD0080F5A053A01F851E1F4C
:0105C6002212
:1004B5000E08C0F9A4B0999282F88090FFBFC68655
:0A04C5000816010204081020408010
:1005C7007580FFE5A0541F44E0F5A074162FF8E6E8
:1005D700F580E5A0541F44C0F5A053A01F74082D53
:1005E700F8E6F580EB600353807FE5A0541F44E0F5
:0605F700F5A053A01F2235
:10039D00E4FFC2A9C2C4D2C2D2B5D2B420B3027F87
:1003AD000420B2027F0520B1027F0620B0027F0734
:1003BD00D2C4C2C2D2B5D2B420B3027F0820B202D9
:1003CD007F0920B1027F0A20B0027F0BD2C4D2C2B6
:1003DD00C2B5D2B420B3027F0C20B2027F0D20B182
:1003ED00027F0E20B0027F0FD2C4D2C2D2B5C2B4EA
:1003FD0020B3027F1020B2027F1120B1027F1220A4
:09040D00B0027F13D2A975B0FF03
:0104160022C3
:100741007580FFE5A0541F4480F5A053A01FE4F578
:0D07510080E5A0541F44A0F5A053A01F2276
:10075E00E4FEEEC3940874809480500FC297EF139A
:0B076E0092A3EFC313FFD2970E80E7A9
:01077900225D
:1007C100C29300C29700D2930012075EAF051207D1
:0407D1005EC293224F
:10055000E4FDC29300C29700D2930012075EE4FF4D
:10056000EFC39408748094805011C297EDC313FDBB
:1005700030A303430580D2970F80E5C29300C29752
:0C05800000D29700C2A300D2A300AF0578
:01058C00224C
:060512008B588A59895A3A
:10051800E4FD7F8E1207C1E4FCECC394037480945D
:1005280080501EEC25E0FFC374849FFFAB58AA5986
:10053800A95A8C8275830012032AFD1207C10C8008
:08054800D87D807F8E0207C1FF
:060696008B598A5A895BB2
:10069C00E4FCECC3940374809480501EEC25E0FFC2
:1006AC00C374859FFF120550AB59AA5AA95B8C8263
:0A06BC00758300EF1203690C80D86B
:0106C6002211
:04077A00D2A07F0585
:10077E00000000000000000000000000000000AEBD
:06078E00071FEE70EB22D4
:0F07D500D2A112077AC2A17F0512077EC2A0220D
:0C07E400C2A112077AD2A17F0502077E95
:0205FD00AD0748
:1005FF00E4FCECC39408748094805024C2A07F055F
:10060F0012077EED30E704D2A18002C2A17F05124E
:10061F00077ED2A0ED25E0FD7F0512077E0C80D26C
:02062F00C2A067
:0106310022A6
:1006F700E4FCECC3940874809480501712077AEDD9
:1007070025E0FD30A103430501C2A07F0512077E46
:050717000C80DFAF05BE
:01071C0022BA
:10071D00AB051207D57FA01205FD12072FAF0312EF
:02072D0005FDC8
:10072F0012077AA2A1E433FDC2A07F0512077EAFA4
:01073F0005B4
:010740002296
:10079400C2A0EF24FF92A17F0512077E12077AC23E
:0807A400A0D2A17F0502077E2F
:100664008B598A5A895B12071DAF5D155DEF601FB8
:10067400AB59055BE55BAA5A7002055A14F91203DB
:1006840011FF1205FD12072F7FC812077E80DA02C0
:0206940007E479
:1004D0008B588A59895A12071D1207D57FA1120518
:1004E000FD12072FAF5C155CEF60241206F7AB58C6
:1004F000055AE55AAA597002055914F9EF12035723
:10050000E55C6004E4FF80027F0112079480D5025D
:0205100007E4FE
:0300000002028574
:0C028500787FE4F6D8FD75815D0202CCA4
:10031100BB010689828A83E0225002E722BBFE02EA
:09032100E32289828A83E493221D
:10032A00BB010CE58229F582E5833AF583E0225088
:10033A0006E92582F8E622BBFE06E92582F8E222D2
:0D034A00E58229F582E5833AF583E49322EC
:10035700BB010689828A83F0225002F722BBFE0185
:02036700F3227F
:10036900F8BB010DE58229F582E5833AF583E8F0CA
:10037900225006E92582C8F622BBFE05E92582C876
:02038900F2225E
:10038B00EF8DF0A4A8F0CF8CF0A428CE8DF0A42E86
:02039B00FE2240
:100291000206C7E493A3F8E493A34003F68001F2B6
:1002A10008DFF48029E493A3F85407240CC8C3336E
:1002B100C4540F4420C8834004F456800146F6DF3D
:1002C100E4800B010204081020408090048CE47E3D
:1002D100019360BCA3FF543F30E509541FFEE49332
:1002E100A360010ECF54C025E060A840B8E493A3F9
:1002F100FAE493A3F8E493A3C8C582C8CAC583CA24
:10030100F0A3C8C582C8CAC583CADFE9DEE780BEDB
:0104CF00002C
:00000001FF
