:100DCA000861000000000000000008340A0A0A0A4C
:0E0DDA000A0A0A0A08290000000000000000B2
:100F7000E4F55D75272875421EF56C756901756A83
:050F80005475260A2251
:100AC100AE5FAF607C017DF412039FED4C7076AD9B
:100AD1006AAC69AF6C120C718E3C8F3D300366C3FA
:100AE100E53D940AE53C9400500AE52675F00AA418
:100AF100F5098038C3E53D945AE53C9400400575FD
:100B010009F48028C374059526FDE49400FCE53DB5
:100B110024A6FFE53C34FFFE12038D7C007D6412A8
:100B2100038D7D5012039FEF24F4F509AF09E533DE
:100B310025E02445F8760008A6070533E53375F06E
:100B41000C8485F033AE5FAF607C017DF412039FAE
:100B5100ED4C7014120D20E4FBFA7920784112015A
:080B6100061202EA8E318F3208
:010B69002269
:1006EC003003030208F1AE5FAF607C007D0A120399
:1006FC009FED4C60030208F1120BF68F21E5246587
:10070C0021FF5521F522E521F45FF523852124E510
:10071C002464597012D200D201D3E54194D0E54043
:10072C0094074003120F70300007E52460030208A1
:10073C00F1C200AF227E00EF64047012055DE55D2E
:10074C0075F0038485F05DE4F53EF56BF55EE55DD3
:10075C00146032147003020811240260030208F1C1
:10076C00EF64054E7008055EE55E5401F55EE5220A
:10077C0064087002D203E522640960030208F1D216
:10078C000275330B22E52264057008053EE53E54E4
:10079C0001F53EE53E14603C0460030208F1AF2213
:1007AC007E00EF64087012E527645A70047D0A809D
:1007BC0005E527240AFD8D2722EF64094E6003020C
:1007CC0008F1E527640A70047F5A8005E52724F6B2
:1007DC00FF8F2722AF227E00EF64087010E5426481
:1007EC00507003FD8004E54204FD8D4222EF640944
:1007FC004E60030208F1E54270047F508004E5422C
:10080C0014FF8F4222E5226405700B056BE56B75B6
:10081C00F0038485F06BE56B1460501470030208D0
:10082C00C1240260030208F1AF227E00EF6408705D
:10083C0018AD6CED3395E0FCED645A4C70047DA65C
:10084C008004ED2405FD8D6C22EF64094E600302DB
:10085C0008F1AF6CEF3395E0FEBEFF07BFA6047F37
:10086C005A8005E56C24FBFF8F6C22AF227E00EFD3
:10087C006408701EE56AB4060BE569B427067C00B3
:10088C007D008009E56A240AFDE43569FC8C698DDC
:10089C006A22EF64094E704DE56A640A4569700678
:1008AC007E277F06800AE56A24F6FFE56934FFFEA1
:1008BC008E698F6A22AF227E00EF64087011E526E4
:1008CC00641470047D018004E52604FD8D2622EF5E
:1008DC0064094E7010E526640170047F148004E5F1
:0508EC002614FF8F2619
:0108F10022E4
:10042E00E56CF404FBAE5FAF607C007D1412039F9D
:10043E00ED4C60030206EBE55D14700302056D14CE
:10044E0070030205AF240260030206EB752A01E475
:10045E00F52FAE31AF32FC7D6412039F7C007D0A16
:10046E0012039F8D34AE31AF327C007D0A12039F92
:10047E007C007D0A12039F8D35AE31AF327C007D3C
:10048E000A12039F8D3675370BE55E600302051F5A
:10049E00F52EAE3CAF3D7C037DE812039FEF4E7010
:1004AE00047F0A80008F38EF640A7019AE3CAF3DAE
:1004BE00FC7D6412039F7C007D0A12039FED4C703D
:1004CE00047F0A8014AE3CAF3D7C007D6412039F16
:1004DE007C007D0A12039FAF058F39EF640A7019F5
:1004EE00AE3CAF3DFC7D0A12039F7C007D0A1203D9
:1004FE009FED4C70047F0A8014AE3CAF3D7C007DB6
:10050E000A12039F7C007D0A12039FAF058F3A806B
:10051E0047752E01C3E53D94E8E53C940350047FF6
:10052E000A800BAE3CAF3D7C037DE812039F8F38F3
:10053E00AE3CAF3D7C007D6412039F7C007D0A12B1
:10054E00039F8D39AE3CAF3D7C007D0A12039F7C2C
:10055E00007D0A12039F8D3AAE3CAF3D0206B7E412
:10056E00F52FF52EF52A75340CE53E04F535753963
:10057E000A75380A75370A75360AAF3E7E00EF7077
:10058E0004E5278002E54275F00A84FD8D3AEF4EB0
:10059E007004E5278002E54275F00A84AFF08F3BC8
:1005AE002275340DE56B04F535E56B147003020608
:1005BE00401470030206C1240260030206EBE4F548
:1005CE002FF52EF52A75380A75370A75360AAF6C6F
:1005DE00EF3395E0FED3EF94F6EE6480947F5011E6
:1005EE0075390BEB75F00A8475F00A8485F03A8044
:1005FE000EC3EE64809480500A75390A753A0BEB7F
:10060E000206E4753932E56C75F00A12036BFF755C
:10061E00F00A12036BAFF0EFFD3395E04D70067EDE
:10062E000A7F0A80008F3AE56C75F00A12036B029E
:10063E0006E8E4F52FF52EF52A75370A75360AAE5B
:10064E0069AF6A7C037DE812039F7C007D0A12036A
:10065E009FED4C70047F0A8002AF058F38EF640A5D
:10066E007019AE69AF6AFC7D6412039F7C007D0A2F
:10067E0012039FED4C70047F0A8014AE69AF6A7C42
:10068E00007D6412039F7C007D0A12039FAF058FCD
:10069E0039AE69AF6A7C007D0A12039F7C007D0A29
:1006AE0012039F8D3AAE69AF6A7C007D0A12039FDA
:1006BE008D3B22E4F52EF52A752F0175390A753812
:1006CE000A75370A75360AE52675F00A8475F00A3A
:0D06DE008485F03AE52675F00A8485F03B2E
:0106EB0022EC
:1009ED0030021EC3740B953325E02445F8E6FE084E
:1009FD00E6FF7C007D3312038D7D6412039F120F81
:100A0D0024E55D14604714605824027069D3E53DF8
:100A1D0094FFE53C940040117E007F087D017B0032
:100A2D007A007961120402804DE4FFEFC3940874DB
:100A3D008094805041AE3DA8077401088002C333F5
:100A4D00D8FC5EFE74612FF8A6060F80DE7E007F57
:100A5D00077D007B007A00796112040275680180C0
:100A6D00157E007F077D007B007A007962120402FB
:100A7D00A204E433F561AF277E00EF2405FDEE33CC
:100A8D00FCD3E53D9DE53C9C5024EF24FBFFEE346B
:100A9D00FFFEC3E53D9FE53C9E4013E54275F00A20
:100AAD00A4FFC3E5329FE53195F050028001C3925A
:040ABD0005020E8F91
:100F8500538E7F5389F0758A18758CFCC28DD28C6F
:050F9500D2A9D2AF2239
:03000B000208F2F6
:1008F200C0E0C0F0C083C082C0D075D000C000C0CC
:0D09020001C002C003C004C005C006C0074C
:10090F000560E5607002055FFFAE5FBE0309BFE8DB
:10091F0006755F00756000053FE53F5407F53F30F2
:10092F000218E5337004C202F5280528AF287E00AF
:10093F00BE010ABFF4071533800075280030011976
:10094F000541E54170020540C394D0E5409407404E
:10095F000E7540077541D180067540007541003016
:10096F00031B0544E54470020543FFAE43BE171356
:10097F00BF7010754300754400C2038006754300B5
:10098F007544000525E52564647007F525A204B3B9
:10099F0092047434253FF8E6FD7429253FF8E6FBF1
:1009AF00AF3F120CE4750800C3E5089408748094F7
:1009BF008050107461253FF8E6FDAF3F120D5B05C7
:0309CF000880E5B8
:1009D200D007D006D005D004D003D002D001D00079
:0B09E200D0D0D082D083D0F0D0E03223
:0E0FAF0000007F237E337DB6DDFEDEFCDFFA20
:010FBD002211
:100ED000120EED120F70120D20120FAF120F8512AD
:0D0EE0000AC11206EC12042E1209ED80F278
:0C0DE800010D00010EFF010F000110FFC3
:100D5B00ED600FA8077401088002C333D8FC420D65
:100D6B00800EA8077401088002C333D8FCF4520D1F
:100D7B00E50D650E6013E50DF4F580E5A0541F44F9
:090D8B0080F5A053A01F850D0E98
:010D9400223C
:100E8F00300505430F108003530FEFE50F6510601A
:100E9F0011850F80E5A0541F44A0F5A053A01F8516
:020EAF000F1022
:010EB100221E
:0E0FCD00C0F9A4B0999282F88090FFBF8C8E7C
:100CE4007580FFE5A0541F44E0F5A0A8077401082F
:100CF4008002C333D8FCF580E5A0541F44C0F5A09E
:100D040053A01FED900FCD93F580EB600353807FCC
:0C0D1400E5A0541F44E0F5A053A01F22EE
:100BF600E4FFC2C4D2C2D2B5D2B420B3027F04206D
:100C0600B2027F0520B1027F0620B0027F07D2C460
:100C1600C2C2D2B5D2B420B3027F0820B2027F0985
:100C260020B1027F0A20B0027F0B20B30520B2025A
:100C36007F59D2C4D2C2C2B5D2B420B3027F0C202F
:100C4600B2027F0D20B1027F0E20B0027F0FD2C408
:100C5600D2C2D2B5C2B420B3027F1020B2027F1135
:0A0C660020B1027F1220B0027F13BC
:010C70002261
:100EED007580FFE5A0541F4480F5A053A01FE4F5C5
:0D0EFD0080E5A0541F44A0F5A053A01F22C3
:040F0A00D2A07F05ED
:100F0E00000000000000000000000000000000AE25
:060F1E00071FEE70EB223C
:0F0FBE00D2A1120F0AC2A17F05120F0EC2A022EC
:0C0FDB00C2A1120F0AD2A17F05020F0E66
:020D9500AD07A8
:100D9700E4FCECC39408748094805024C2A07F05BF
:100DA700120F0EED30E704D2A18002C2A17F051217
:100DB7000F0ED2A0ED25E0FD7F05120F0E0C80D29D
:020DC700C2A0C8
:010DC9002207
:100E4300E4FCECC39408748094805017120F0AEDED
:100E530025E0FD30A103430501C2A07F05120F0E5B
:050E63000C80DFAF056B
:010E68002267
:030F9A00120D95A0
:100F9D00120F0AA2A1E433FDC2A07F05120F0EAFFE
:010FAD00053E
:010FAE002220
:100F5800C2A0EF24FF92A17F05120F0E120F0AC242
:080F6800A0D2A17F05020F0ECB
:100F2400AB07120FBE7F90120F9A7F41120F9AAF38
:0A0F340003120D95120F9D020FDB52
:0600030000007F09DFFE92
:0100090022D4
:040EB2007F057E003A
:100EB600EF1FAA0670011E4A600FE4FDEDC3940CF5
:090EC6007480948050EA0D80F361
:010ECF002200
:020DF500A9074C
:100DF700E4FBEBC39408748094805012C294E91307
:100E07009294120EB2D294E9C313F90B80E47F05D2
:050E17007E00020EB692
:100E6900E4FBEBC39408748094805017C294ECC3DC
:100E790013FCD294120003309403430480120EB27F
:050E89000B80DFAF0447
:010E8E002241
:100E1C00C205D2947F0C7E00120EB6C2947F507E17
:100E2C0000120EB6D2947F0A7E00120EB6A29492D5
:060E3C0005120EB2A20532
:010E4200228D
:100D2000120E1C7FCC120DF57F44120DF57FC87E8C
:100D300000120EB6120E1C7FCC120DF57FBE120DE6
:100D4000F5120E69A907120E69EFAD01FCEC120253
:0B0D5000B1E4FBFA7980783D02010657
:060FE70000007F21DFFE87
:010FED0022E1
:100F3E00E4FEEEC3940874809480500DD290120F8C
:090F4E00E7C290120FE70E80E9E2
:010F57002277
:060C71008F0A8C0B8D0CB4
:100C7700E4F5E9F5F9F5D8120F3ED2DE30910330ED
:100C8700DFFAC2DE20DF50AFF9EFFEADE9EDFFACD2
:100C970006E41202B17B007A40799C784612020F73
:100CA700C004C005C006C007AC0BAD0CE41202B10E
:100CB700D003D002D001D000120106C004C005C085
:100CC70006C007AC0AEC1202B6D003D002D001D09E
:0C0CD700001200150202EAC2DFE4FEFF7A
:010CE30022EE
:10000E00020356E86480F8E933E83360110460F0C7
:10001E00ED33EC337009E8FCE9FDEAFEEBFF220458
:10002E0060DED3EB9FEA9EE99DE8C2E78CF0C2F753
:10003E0095F0400CE8CCF8E9CDF9EACEFAEBCFFB1F
:10004E0012032185D0F05804700320D5B3E8047054
:10005E00075002B2D502036092D5EC0460F7E4CCEF
:10006E00C0E0C398F8603B94186008400DD0E0FBE8
:10007E00020338E4FBFAC9FC8028E830E406E4C940
:10008E00FBE4CAFCE830E305E4C9CACBFCE854073C
:10009E006010F8C3E913F9EA13FAEB13FBEC13FC47
:1000AE00D8F130F52FC3E49CFCEF9BFFEE9AFEEDEA
:1000BE0099FDD0E0FBEF4E4D4C701222DB03020394
:1000CE005DEC2CFCEF33FFEE33FEED33FDED30E750
:1000DE00EB020338EF2BFFEE3AFEED39FDD0E0FBDD
:1000EE0050130BBB0003020360ED13FDEE13FEEF86
:0800FE0013FFEC13FC020338B0
:10010600EC4D6011E8497017ED33EC3304600DE4F3
:10011600FCFFFEFD22E933E8330470F802035612B1
:10012600032158046009E4CC2481500628500902B2
:10013600036028400302035DC0E0EB4A7044B980C7
:1001460006D0E0FB02034CEF4E701CBD8008EBFFAF
:10015600EAFEE9FD80EBE98DF0A4FEE5F00201EF91
:10016600E9CDF9EAFEEBFFEF89F0A4FCE5F0CE89D4
:10017600F0A42EFFE435F0CD89F0A42DFEE435F091
:100186008067EF4E7005BD80D780C3EF8BF0A4ACBF
:10019600F0EE8BF0A42CFCE435F0F8EF8AF0A42CFA
:1001A600E5F038FCE433CB8DF0A42CFCE5F03BF80D
:1001B600EE8AF0A42CFCE5F038F8E433CF89F0A4FD
:1001C6002CFCE5F038CF3400CE89F0A42FFFE5F003
:1001D6003EFEE433C98DF0A42EFEE5F039CD8AF05B
:1001E600A42FFFE5F03EFEE43DFD33D0E0FB5007D3
:1001F6000BBB000F020360EC2CFCEF33FFEE33FE6B
:06020600ED33FD02033898
:10020C00020360EC5D046005E859047003020356B8
:10021C00120321580460F6EC4860F2EC7004FDFE09
:10022C00FF22C860DB2481C85009C39860025006C5
:10023C0002035D9850CAF582E9294B4A7005AB82DE
:10024C0002034C75F0007C1A7880C3EF9BEE9AED9C
:10025C0099400DC3EF9BFFEE9AFEED99FDE842F03D
:10026C00DC23ACF0D0E0FFD0E0FED0E0FDAB822090
:10027C00E7101BEB60BAEC2CFCEF33FFEE33FEED1A
:10028C0033FD020338E803F830E705C0F075F000E1
:10029C00EF2FFFEE33FEED33FD40B830E7C280AAFE
:1002AC0075F020800E75F010800575F0087D007ECD
:1002BC00007F003392D530D5031203F4EC33401099
:1002CC00EF33FFEE33FEED33FDEC33FCD5F0ED22D6
:0E02DC00E5F0247EA2D513CC92E7CDCEFF2212
:1002EA00EDD2E7CD33EC3392D524814006E4FFFE0C
:1002FA00FDFC22FCE4CFCECDCC24E0501174FF806B
:10030A00EDC3CC13CCCD13CDCE13CECF13CF047007
:07031A00F030D5DE0203F410
:10032100E9D2E7C933E833F892D5EDD2E7CD33EC22
:0703310033FC5002B2D5229B
:10033800EC30E7100FBF000C0EBE00080DBD000426
:100348000BEB6014A2D5EB13FCED92E7FD2274FFD2
:10035800FCFDFEFF22E480F8A2D574FF13FC7D802B
:03036800E480EF3F
:03000000020B6A86
:0C0B6A00787FE4F6D8FD75816C020BB1B9
:10036B00C2D530F707B2D563F0FF05F030E70CB21A
:10037B00D5F4048463F0FF05F080018430D502F4DA
:02038B0004224A
:10038D00EF8DF0A4A8F0CF8CF0A428CE8DF0A42E84
:02039D00FE223E
:10039F00BC000BBE0029EF8DF084FFADF022E4CC42
:1003AF00F875F008EF2FFFEE33FEEC33FCEE9DEC0B
:1003BF00984005FCEE9DFE0FD5F0E9E4CEFD22ED51
:1003CF00F8F5F0EE8420D21CFEADF075F008EF2F9B
:1003DF00FFED33FD4007985006D5F0F222C398FD8C
:0503EF000FD5F0EA2229
:0E03F400C3E49FFFE49EFEE49DFDE49CFC221A
:10040200EF4E6012EF60010EEDBB010B89828A8311
:10041200F0A3DFFCDEFA2289F05007F709DFFCA91E
:0C042200F022BBFEFCF309DFFCA9F02275
:100B7600020ED0E493A3F8E493A34003F68001F2B7
:100B860008DFF48029E493A3F85407240CC8C33380
:100B9600C4540F4420C8834004F456800146F6DF4F
:100BA600E4800B0102040810204080900DCAE47E08
:100BB600019360BCA3FF543F30E509541FFEE49344
:100BC600A360010ECF54C025E060A840B8E493A30B
:100BD600FAE493A3F8E493A3C8C582C8CAC583CA36
:100BE600F0A3C8C582C8CAC583CADFE9DEE780BEEE
:010DF40000FE
:00000001FF
