:0C0A130048454C4C4F20574F524C4400BB
:1005030008410A0A0A0A0A0A0A0A082F0000000018
:0E05130000000000084F000000000000000083
:10087D00E54C701A754C011204438F21E523652157
:0E088D00FF5521F522E521F45FF52485212396
:01089B00223A
:0C0A0700E54B454A7005F54A754B01228D
:010A4800228B
:1009CB00E549700C7549017BFF7A0A791312000017
:0109DB0022F9
:10000E00538E7F5389F0758A18758CFCC28DD28CF5
:05001E00D2A9D2AF22BF
:03000B00020325C8
:10032500C0E0C0F0C083C082C0D075D000C000C09E
:1003350001C002C003C004C005C006C007054CE5E6
:100345004C640A7002F54C054BE54B7002054AFFFB
:10035500AE4ABE0109BFF406754A00754B00054952
:10036500E54964C87002F549054DE54D640870021C
:10037500F54D7441254DF8E6FD7C00742F254DF8AB
:10038500E6FB7A00AF4D1206B3744F254DF8E6FD36
:100395007C00AF4D120640D007D006D005D004D062
:1003A50003D002D001D000D0D0D082D083D0F0D0FD
:0203B500E03234
:0300230002089C34
:10089C00C0E0C0D075D000C00030980B7437254E26
:0E08AC00F8A699054EC298D000D0D0D0E03208
:0E09DC0000007F237E337DB6DDFEDEFCDFFAF9
:0109EA0022EA
:1008BA001208121209DC1208D712000E12095D1270
:0D08CA00087D120A07120A481209CB80F2BD
:100521000157000158FF015900015AFF015B000109
:020531005CFF6D
:10064000ED4C600FA8077401088002C333D8FC4248
:1006500057800EA8077401088002C333D8FCF452F7
:1006600057E55765586013E557F4F580E5A0541F2A
:0A0670004480F5A053A01F855758E1
:01067A00225D
:10083700EF600543594080035359BFE559655A6036
:1008470011855980E5A0541F44A0F5A053A01F852A
:02085700595AEC
:01085900227C
:10085A00EF6005435B108003535BEFE55B655C600B
:10086A0011855B80E5A0541F44A0F5A053A01F8505
:02087A005B5CC5
:01087C002259
:100533000C08C0F9A4B0999282F88090FF8808143F
:080543000102040810204080B1
:1006B3007580FFE5A0541F44E0F5A074142FF8E6FD
:1006C300F580E5A0541F44C0F5A053A01F74082D66
:1006D300F8E6F580EB4A600353807FE5A0541F449E
:0706E300E0F5A053A01F2267
:10044300E4FFC2C4D2C2D2B5D2B420B3027F042027
:10045300B2027F0520B1027F0620B0027F07D2C41B
:10046300C2C2D2B5D2B420B3027F0820B2027F0940
:1004730020B1027F0A20B0027F0BD2C4D2C2C2B520
:10048300D2B420B3027F0C20B2027F0D20B1027FD1
:100493000E20B0027F0FD2C4D2C2D2B5C2B420B3F1
:1004A300027F1020B2027F1120B1027F1220B0021E
:0204B3007F13B5
:0104B5002224
:1008D7007580FFE5A0541F4480F5A053A01FE4F5E1
:0D08E70080E5A0541F44A0F5A053A01F22DF
:020A46000000AE
:10095D00759850438E01438E0475D7C775D6FE43E7
:07096D008E10D2ACD2AF22C4
:080003008F993099FDC299228A
:080A37008F993099FDC299224C
:10074D008B1C8A1D891EAB1CAA1DA91E12028B644F
:10075D00467002740A6013051EE51E7002051D1415
:0B076D00F912028BFF120A3780DC2219
:1008F400E4FEEEC3940874809480500FC297EF1303
:0B09040092A3EFC313FFD2970E80E711
:01090F0022C5
:1009B700C29300C29700D293001208F4AF05120841
:0409C700F4C29322C1
:10058A00E4FDC29300C29700D293001208F4E4FF7C
:10059A00EFC39408748094805011C297EDC313FD81
:1005AA0030A303430580D2970F80E5C29300C29718
:0C05BA0000D29700C2A300D2A300AF053E
:0105C6002212
:06054C008B678A688969D3
:10055200E4FD7F8E1209B7E4FCECC394037480942B
:1005620080501EEC25E0FFC374849FFFAB67AA682E
:10057200A9698C827583001202A4FD1209B70C804E
:08058200D87D807F8E0209B7CD
:06071C008B6A8A6B896CF8
:10072200E4FCECC3940374809480501EEC25E0FF3B
:10073200C374859FFF12058AAB6AAA6BA96C8C826F
:0A074200758300EF1202E30C80D86B
:01074C00228A
:040A1F00D2A07F05DD
:080A230000AE071FEE70F9227E
:0F09EB00D2A1120A1FC2A17F05120A23C2A022A5
:0C0A2B00C2A1120A1FD2A17F05020A23FB
:10097400C2A0A20092A17F05120A23120A1FC2A0DC
:07098400D2A17F05020A2346
:0A091000AB071209EB7F9012060BF3
:10091A00120A1FA2A19201C2A07F05120A23A201F4
:01092A0022AA
:07060400AB051209EB7FA01A
:02060B00AD0739
:10060D00E4FCECC39408748094805024C2A07F0550
:10061D00120A23ED30E704D2A18002C2A17F051298
:10062D000A23D2A0ED25E0FD7F05120A230C80D20E
:02063D00C2A059
:01063F002298
:1007C600E4FCECC39408748094805017120A1FED61
:1007D60025E0FD30A103430501C2A07F05120A23CF
:0507E6000C80DFAF05EF
:0107EB0022EB
:1007EC00120910AF0312060B12091A1209EB7F91B2
:1007FC0012060B12091A1207C6AD07D200120974A1
:05080C00120A2BAF05EC
:0108110022C4
:10098B001209107F4112060B12091AAF0312060B44
:06099B0012091A020A2BEA
:1005C7008B5D8A5E895F12060412091AAF03120651
:1005D7000B12091AAF611561EF601FAB5D055FE58F
:1005E7005FAA5E7002055E14F912028BFF12060BFA
:0D05F70012091A7FC8120A2380DA020A2BAB
:1004B6008B628A63896412060412091AAF03120654
:1004C6000B12091A1209EB7FA112060B12091AAFB9
:1004D600661566EF60241207C6AB620564E564AA7A
:1004E600637002056314F9EF1202D1E5666004C277
:0D04F600008002D20012097480D5020A2B8A
:0409A1007F057E0050
:1009A5007C007D0C120305EF1FAC0670011E4C7018
:0209B500F62228
:02077800AB07CD
:10077A00E4FAEAC39408748094805012C294EB138A
:10078A0092941209A1D294EBC313FB0A80E47F0569
:05079A007E000209A52C
:0F06EA007FCC1207787FBE1207781206F9A90796
:1006F900E4FAEAC39408748094805014C294EBC35A
:1007090013FBD2943094034303801209A10A80E2B7
:02071900AF032C
:01071B0022BB
:10079F00C202D2947F0C7E001209A5C2947F507EB4
:1007AF00001209A5D2947F0A7E001209A5A2949285
:0607BF00021209A1A202D2
:0107C5002211
:0D09FA0012079F7FCC1207787F4402077818
:1009450012079F1206EAEFAD01FCEC1201D1E4FBA0
:08095500FA7980784102012FBC
:1008120012079F7FCC1207787F4412077812079F36
:100822001206EAEFAD01FCEC1201D1E4FBFA798089
:05083200784102012FD6
:060A3F0000007F26DFFE2F
:010A4500228E
:10092B00E4FEEEC3940874809480500DD290120AAA
:09093B003FC290120A3F0E80E950
:010944002290
:10067B00E4F5D9F5E9F5F912092BD2DE3091033007
:10068B00DFFAC2DE20DF1CAFF9EFFEADE9EDFFAC08
:10069B0006E41201D17B967A43798B783C120026C3
:0706AB0002020AC2DF7F001A
:0106B2002225
:10002600EC4D6011E8497017ED33EC3304600DE4D4
:10003600FCFFFEFD22E933E8330470F80202761273
:10004600024158046009E4CC248150062850090274
:10005600028028400302027DC0E0EB4A7044B9806A
:1000660006D0E0FB02026CEF4E701CBD8008EBFF71
:10007600EAFEE9FD80EBE98DF0A4FEE5F002010F52
:10008600E9CDF9EAFEEBFFEF89F0A4FCE5F0CE89B5
:10009600F0A42EFFE435F0CD89F0A42DFEE435F072
:1000A6008067EF4E7005BD80D780C3EF8BF0A4ACA0
:1000B600F0EE8BF0A42CFCE435F0F8EF8AF0A42CDB
:1000C600E5F038FCE433CB8DF0A42CFCE5F03BF8EE
:1000D600EE8AF0A42CFCE5F038F8E433CF89F0A4DE
:1000E6002CFCE5F038CF3400CE89F0A42FFFE5F0E4
:1000F6003EFEE433C98DF0A42EFEE5F039CD8AF03C
:10010600A42FFFE5F03EFEE43DFD33D0E0FB5007B3
:100116000BBB000F020280EC2CFCEF33FFEE33FE2C
:06012600ED33FD0202585A
:10012C00020280EC5D046005E8590470030202765B
:10013C00120241580460F6EC4860F2EC7004FDFECB
:10014C00FF22C860DB2481C85009C39860025006A6
:10015C0002027D9850CAF582E9294B4A7005AB82A0
:10016C0002026C75F0007C1A7880C3EF9BEE9AED5E
:10017C0099400DC3EF9BFFEE9AFEED99FDE842F01E
:10018C00DC23ACF0D0E0FFD0E0FED0E0FDAB822071
:10019C00E7101BEB60BAEC2CFCEF33FFEE33FEEDFB
:1001AC0033FD020258E803F830E705C0F075F000A3
:1001BC00EF2FFFEE33FEED33FD40B830E7C280AADF
:1001CC0075F020800E75F010800575F0087D007EAE
:1001DC00007F003392D530D503120317EC33401057
:1001EC00EF33FFEE33FEED33FDEC33FCD5F0ED22B7
:0E01FC00E5F0247EA2D513CC92E7CDCEFF22F3
:10020A00EDD2E7CD33EC3392D524814006E4FFFEEC
:10021A00FDFC22FCE4CFCECDCC24E0501174FF804B
:10022A00EDC3CC13CCCD13CDCE13CECF13CF0470E8
:07023A00F030D5DE020317CE
:10024100E9D2E7C933E833F892D5EDD2E7CD33EC03
:0702510033FC5002B2D5227C
:10025800EC30E7100FBF000C0EBE00080DBD000407
:100268000BEB6014A2D5EB13FCED92E7FD2274FFB3
:10027800FCFDFEFF22E480F8A2D574FF13FC7D800C
:03028800E480EF20
:030000000203B741
:0C03B700787FE4F6D8FD75816C0203FE2F
:10028B00BB010689828A83E0225002E722BBFE0271
:09029B00E32289828A83E49322A4
:1002A400BB010CE58229F582E5833AF583E022500F
:1002B40006E92582F8E622BBFE06E92582F8E22259
:0D02C400E58229F582E5833AF583E4932273
:1002D100BB010689828A83F0225002F722BBFE010C
:0202E100F32206
:1002E300F8BB010DE58229F582E5833AF583E8F051
:1002F300225006E92582C8F622BBFE05E92582C8FD
:02030300F222E4
:10030500EF8DF0A4A8F0CF8CF0A428CE8DF0A42E0C
:02031500FE22C6
:0E031700C3E49FFFE49EFEE49DFDE49CFC22F7
:1003C3000208BAE493A3F8E493A34003F68001F28E
:1003D30008DFF48029E493A3F85407240CC8C3333B
:1003E300C4540F4420C8834004F456800146F6DF0A
:1003F300E4800B0102040810204080900503E47E92
:10040300019360BCA3FF543F30E509541FFEE493FE
:10041300A360010ECF54C025E060A840B8E493A3C5
:10042300FAE493A3F8E493A3C8C582C8CAC583CAF0
:10043300F0A3C8C582C8CAC583CADFE9DEE780BEA8
:01054B0000AF
:00000001FF
