:1014AD00242562752C25352E32660D0A0023256202
:1014BD00752C2562750D0A004552524F520D0A00CA
:1011980008550000000000000000083B0A0A0A0A7F
:1011A8000A0A0A0A082C0000000000000000014B8F
:0711B8001E01272301349BF7
:1010B400AE52AF537C007D6412057DED4C7012126C
:1010C40012148F44E544D395274003D38001C3927F
:1010D4000BAE52AF537C017DF412057DED4C702BA9
:1010E400121250E4FBFA79C8784212002612020A5E
:1010F4008E4C8F4DE54B75F064A4FFD3E54D9FE511
:0C1104004C95F04003D38001C3920922F7
:100C8E00AE52AF537C007D0A12057DED4C6003021F
:100C9E000DF9120FD68F23E5266523FF5523F52474
:100CAE00E523F45FF525852326AF247E00EF640C43
:100CBE007002D20CC3E52994E8E52894034007C2DC
:100CCE000CE4F550F551AD257C00ED640C7022302E
:100CDE000C1FC20CE54F1460100470150546E54656
:100CEE0075F0038485F04680080549E5495401F501
:100CFE0049EF640D4E7002D20DC3E52B94E8E52A40
:100D0E009403400AC20D054EE54E5401F54EED64B6
:100D1E000D4C70047F0180027F00A20DE4335F60F2
:100D2E0065C20D054FE54F5401F54FE4F546F54903
:100D3E00E54F64017008852743854B548048E54391
:100D4E00B52706E554654B6037AE50AF51E4FCFD58
:100D5E007BFF7AFFF9F8C31205E070077FFF7EFF75
:100D6E00FC800BE5512401FFE43550FEE4FC8E506F
:100D7E008F517B007A007950756202E4FD121110DA
:100D8E0085432785544BE54914603204705DAF24CA
:100D9E007E00EF6410700FE54B70047D638005E5F7
:100DAE004B24FEFD8D4BEF64114E703FE54B64639B
:100DBE007003FF8005E54B2402FF8F4B22AF247E8C
:100DCE0000EF6410700FE52770047D638005E52742
:100DDE0024FBFD8D27EF64114E7010E527646370C0
:0B0DEE0003FF8005E5272405FF8F2789
:010DF90022D7
:100AC700AE52AF537C007D1412057DED4C600302DE
:100AD7000C8DE54F147003020C47046003020C8D64
:100AE700E54614605F147003020B72240260030270
:100AF7000C8D753101753B0B753E0A753D0A753CCA
:100B07000AAE4CAF4D7C037DE812057D7C007D0A63
:100B170012057D8D3FAE4CAF4D7C007D6412057D87
:100B27007C007D0A12057D8D40AE4CAF4D7C007D6B
:100B37000A12057D7C007D0A12057D8D41AE4CAF02
:100B47004D020C3DE4F531753B0C75400A753F0AC3
:100B5700753E0A753D0A753C0AE54475F00A8475C9
:100B6700F00A8485F041E544020C86E4F531753BD3
:100B77000D753D0A753C0AAE50AF517C277D1012AA
:100B8700057D7C007D0A12057DED4C70047F0A808F
:100B970002AF058F3EEF640A701AAE50AF517C0367
:100BA7007DE812057D7C007D0A12057DED4C700401
:100BB7007F0A8014AE50AF517C037DE812057D7C1F
:100BC700007D0A12057DAF058F3FEF640A7019AEED
:100BD70050AF51FC7D6412057D7C007D0A12057DB6
:100BE700ED4C70047F0A8014AE50AF517C007D64D9
:100BF70012057D7C007D0A12057DAF058F40EF64ED
:100C07000A7019AE50AF51FC7D0A12057D7C007D3C
:100C17000A12057DED4C70047F0A8014AE50AF5167
:100C27007C007D0A12057D7C007D0A12057DAF05DB
:100C37008F41AE50AF517C007D0A12057D8D422257
:100C4700E4F531753B0E753D0A753C0AE54904F537
:100C57003E75400A753F0AE549146014047027E59C
:100C67005475F00A8475F00A8485F041E554800FC5
:100C7700E54375F00A8475F00A8485F041E543750C
:070C8700F00A8485F042220F
:1012C500E54E14600E047010300B047FCC80067F51
:1012D5006680027F1412156FA209E433F555200BC1
:1012E500047F0180027F008F56E54E70047F0180E8
:0612F500027F008F57226A
:100F5500E545607CC3E548940A748094804071C27D
:100F65000AE4F548E535B4532AE536B454258544F5
:100F750061AC4CAD4DE41201D1E4FBFA79C878427D
:100F850012012F8F658E648D638C627BFF7A1479D5
:100F9500AD8028E535B4501DE536B44118E537B4C4
:100FA5005213E538B4410E7BFF7A1479BA8527616F
:100FB500854B6280067BFF7A1479C51206BAAF4568
:100FC5007E007D007B007A00793512062CE4F5451C
:010FD50022F9
:10000E00538E7F5389F0758A18758CFCC28DD28CF5
:05001E00D2A9D2AF22BF
:03000B00020DFAE9
:100DFA00C0E0C0F0C083C082C0D075D000C000C0BF
:0D0E0A0001C002C003C004C005C006C0073F
:100E17000553E55370020552FFAE52BE0309BFE802
:100E270006755200755300300C190529E529700223
:100E37000528C394E8E5289403400E75280375290F
:100E4700E98006752800752900300D19052BE52B5B
:100E57007002052AC394E8E52A9403400E752A0315
:100E6700752BE98006752A00752B00300A020548A4
:100E7700054AE54A5407F54A243BF8E6FD742C2554
:100E87004AF8E6FBAF4A1211D8755D00C3E55D94D9
:100E9700087480948050107455255DF8E6FDAF5DA9
:070EA70012128B055D80E5CE
:100EAE00D007D006D005D004D003D002D001D00098
:0B0EBE00D0D0D082D083D0F0D0E03242
:0300230002133095
:10133000C0E0C0D075D000C000309810D20A754807
:101340000074352545F8A6990545C298D3E545941E
:1013500006748094804003754500D000D0D0D0E062
:01136000325A
:0E15840000007F237E337DB6DDFEDEFCDFFA45
:011592002236
:101050001214EB12000E1215081212501215847B96
:10106000007A0079477562017D08121156E54765DF
:10107000347B00600E7A0079347562017D081211AC
:1010800010800C7A007950756202E4FD121156123C
:101090001250E4FBFA79C8784212002612020A8E36
:1010A0004C8F4D1210B4120C8E120AC7120F55122B
:0410B00012C580EFF6
:1011BF000108000109FF010A00010BFF010C0001EA
:0811CF000DFF010E00010FFFEE
:10128B00ED600FA8077401088002C333D8FC420835
:10129B00800EA8077401088002C333D8FCF45208EF
:1012AB00E50865096013E508F4F580E5A0541F44D3
:0912BB0080F5A053A01F8508096D
:0112C4002207
:10144400300E05430A408003530ABFE50A650B606A
:1014540011850A80E5A0541F44A0F5A053A01F8560
:021464000A0B71
:011466002263
:10146700300F05430C108003530CEFE50C650D603E
:1014770011850C80E5A0541F44A0F5A053A01F853B
:021487000C0D4A
:011489002240
:10148A00301005430E208003530EDFE50E650F6012
:10149A0011850E80E5A0541F44A0F5A053A01F8516
:0214AA000E0F23
:0114AC00221D
:0F159300C0F9A4B0999282F88090FFC6C7AB8CC4
:1011D8007580FFE5A0541F44E0F5A0A80774010836
:1011E8008002C333D8FCF580E5A0541F44C0F5A0A5
:1011F80053A01FED90159393F580EB600353807F08
:0C120800E5A0541F44E0F5A053A01F22F5
:100FD600E4FFC2A9C2C4D2C2D2B5D2B420B3027F42
:100FE6000420B2027F0520B1027F0620B0027F07EF
:100FF600D2C4C2C2D2B5D2B420B3027F0820B20294
:101006007F0920B1027F0A20B0027F0BD2C4D2C270
:10101600C2B5D2B420B3027F0C20B2027F0D20B13C
:10102600027F0E20B0027F0FD2C4D2C2D2B5C2B4A4
:1010360020B3027F1020B2027F1120B1027F12205E
:09104600B0027F13D2A975B0FFBE
:01104F00227E
:1014EB007580FFE5A0541F4480F5A053A01FE4F5C1
:0D14FB0080E5A0541F44A0F5A053A01F22BF
:10150800759850538EBF538EFE53890F758BCC75CB
:0B1518008DFFC2ABD28ED2ACD2AF224E
:080003008F993099FDC299228A
:04152300D2A07F05CE
:10152700000000000000000000000000000000AE06
:06153700071FEE70EB221D
:0F15A200D2A1121523C2A17F05121527C2A022C4
:0C15B100C2A1121523D2A17F050215274C
:0212FB00AD073D
:1012FD00E4FCECC39408748094805024C2A07F0554
:10130D00121527ED30E704D2A18002C2A17F05128C
:10131D001527D2A0ED25E0FD7F051215270C80D2F3
:02132D00C2A05C
:01132F00229B
:1013AF00E4FCECC39408748094805017121523ED5D
:1013BF0025E0FD30A103430501C2A07F05121527CB
:0513CF000C80DFAF05FA
:0113D40022F6
:10142000AB051215A27FA01212FB121432AF0312E9
:0214300012FBAD
:10143200121523A2A1E433FDC2A07F05121527AF26
:0114420005A4
:011443002286
:10155700C2A0EF24FF92A17F05121527121523C2FF
:08156700A0D2A17F05021527A7
:0213FB00AB073E
:1013FD001215A27F901214271215A27F911212FBC3
:10140D001214321213AFAD077F011215571215B119
:02141D00AF0519
:01141F0022AA
:10156F00AB071215A27F901212FB1214327F411299
:05157F0014270215B164
:101110008B5E8A5F8960121420AF621562EF601FD8
:10112000AB5E0560E560AA5F7002055F14F9120509
:1011300025FF1212FB1214327FC812152780DA7FA6
:10114000FF1215277FFF1215277FFF1215277FFF3C
:061150001215270215B183
:101156008B5E8A5F89601214201215A27FA112127B
:10116600FB121432AF621562EF60241213AFAB5E4E
:101176000560E560AA5F7002055F14F9EF12056B62
:10118600E5626004E4FF80027F0112155780D502F4
:0211960015B191
:0615BD0000007F09DFFEC3
:0115C3002205
:0414CD007F057E0019
:1014D100EF1FAA0670011E4A600FE4FDEDC3940CD4
:0914E1007480948050EA0D80F340
:0114EA0022DF
:02136100A907DA
:10136300E4FBEBC39408748094805012C294E91395
:1013730092941214CDD294E9C313F90B80E47F0540
:051383007E000214D100
:1013D500E4FBEBC39408748094805017C294ECC36B
:1013E50013FCD2941215BD3094034304801214CD1E
:0513F5000B80DFAF04D6
:0113FA0022D0
:10138800C200D2947F0C7E001214D1C2947F507E8A
:10139800001214D1D2947F0A7E001214D1A2949222
:0613A800001214CDA200AA
:0113AE00221C
:101250001213887FCC1213617F441213617FC87E02
:10126000001214D11213887FCC1213617FBE1213A7
:10127000611213D5A9071213D5EFAD01FCEC1201D1
:0B128000D1E4FBFA7980783D020026E3
:0615C40000007F21DFFEA4
:0115CA0022FE
:10153D00E4FEEEC3940874809480500DD290121581
:09154D00C4C2901215C40E80E91D
:011556002272
:10121400E4F5E9F5F9F5D8C2AF12153DD2AFD2DE47
:1012240030910330DFFAC2DE20DF1CAFF9EFFEADF0
:10123400E9EDFFAC06E41201D17B967A43798B7811
:0B1244003C12002602020AC2DF7F00FD
:01124F00227C
:10002600EC4D6011E8497017ED33EC3304600DE4D4
:10003600FCFFFEFD22E933E8330470F80202761273
:10004600024158046009E4CC248150062850090274
:10005600028028400302027DC0E0EB4A7044B9806A
:1000660006D0E0FB02026CEF4E701CBD8008EBFF71
:10007600EAFEE9FD80EBE98DF0A4FEE5F002010F52
:10008600E9CDF9EAFEEBFFEF89F0A4FCE5F0CE89B5
:10009600F0A42EFFE435F0CD89F0A42DFEE435F072
:1000A6008067EF4E7005BD80D780C3EF8BF0A4ACA0
:1000B600F0EE8BF0A42CFCE435F0F8EF8AF0A42CDB
:1000C600E5F038FCE433CB8DF0A42CFCE5F03BF8EE
:1000D600EE8AF0A42CFCE5F038F8E433CF89F0A4DE
:1000E6002CFCE5F038CF3400CE89F0A42FFFE5F0E4
:1000F6003EFEE433C98DF0A42EFEE5F039CD8AF03C
:10010600A42FFFE5F03EFEE43DFD33D0E0FB5007B3
:100116000BBB000F020280EC2CFCEF33FFEE33FE2C
:06012600ED33FD0202585A
:10012C00020280EC5D046005E8590470030202765B
:10013C00120241580460F6EC4860F2EC7004FDFECB
:10014C00FF22C860DB2481C85009C39860025006A6
:10015C0002027D9850CAF582E9294B4A7005AB82A0
:10016C0002026C75F0007C1A7880C3EF9BEE9AED5E
:10017C0099400DC3EF9BFFEE9AFEED99FDE842F01E
:10018C00DC23ACF0D0E0FFD0E0FED0E0FDAB822071
:10019C00E7101BEB60BAEC2CFCEF33FFEE33FEEDFB
:1001AC0033FD020258E803F830E705C0F075F000A3
:1001BC00EF2FFFEE33FEED33FD40B830E7C280AADF
:1001CC0075F020800E75F010800575F0087D007EAE
:1001DC00007F003392D530D5031205D2EC3340109A
:1001EC00EF33FFEE33FEED33FDEC33FCD5F0ED22B7
:0E01FC00E5F0247EA2D513CC92E7CDCEFF22F3
:10020A00EDD2E7CD33EC3392D524814006E4FFFEEC
:10021A00FDFC22FCE4CFCECDCC24E0501174FF804B
:10022A00EDC3CC13CCCD13CDCE13CECF13CF0470E8
:07023A00F030D5DE0205D211
:10065800E5752461F8E6057522785E300702786151
:10066800E475F0011205F60205252000EB7F2ED275
:10067800008018EF540F2490D43440D4FF30040B7A
:10068800EF24BFB41A0050032461FFE57660021519
:10069800760579E5797002057830070D785EE4759E
:1006A800F0011205F6EF02056B0200037403D2078E
:1006B8008003E4C207F5758B5E8A5F8960E4F5768E
:1006C800F578F579E57660077F2012069380F57551
:1006D80077FFC201C200C202C203C205C206C20835
:1006E800120661FF700D3007057F001206A4AF796E
:1006F800AE7822B4255FC2D5C204120661FF24D0A9
:10070800B40A00501A75F00A787630D50508B6FF95
:100718000106C6A426F620D5047002D20380D92487
:10072800CFB41A00EF5004C2E5D204020991D201F5
:1007380080C6D20080C0D20280BCD2D580BAD20591
:1007480080B47F201206932002077401B57600401A
:10075800F1120658FF1206930206CCD208D2068080
:1007680095120658FB120658FA120658F94A4B70A9
:100778000679887A0A7BFF20022EE576602A7E00B9
:100788008E8275830012053E60060EEE657770F066
:10079800C2D5EBC0E0EAC0E0E9C0E0EE1209F1D052
:1007A800E0F9D0E0FAD0E0FB120525FF60AAEBC023
:1007B800E0EAC0E0E9C0E0120693D0E02401F9D0F5
:1007C800E03400FAD0E0FBE5770460DCD577D98027
:1007D80087D20280A21209D460F7E577700104126B
:1007E800028BA977600DE577600914F577120A7B0B
:1007F800EF60F3EA30E702F404C3995077EAF4258E
:10080800770430E701E404F577800D1209D460C15C
:10081800EA0577257712028BEA7874F630E701E467
:10082800257704D57704200501141209F1E4C0E006
:10083800120A7B7874E6601320E70714F612067B29
:10084800802204F6D0E014C0E07F0012067BE57732
:1008580060071206721577800B300503120672D0F6
:10086800E00206CCD0E00480C51209D460A0E57788
:100878000412028B7874EAF6E57720050260010419
:0508880024041209F137
:10088D0074FF04C0E0120A7B12067BE57720050297
:10089D006003120672D0E0B577E87F4512068578C1
:1008AD0074E67F2B30E7047F2DF404C0E01206932D
:1008BD00D0E075F00A84C0F012067CD0E012067C00
:1008CD000206CC791080027908C206C2088008D2CF
:1008DD00D5790A8004790AC2D5E577047002F577D7
:1008ED00E4FAFDFEFF120658FC7B082001131206E8
:1008FD0058FD7B1030000A120658FE120658FF7B79
:10090D0020EC3382D592D55013C3E43000069FFFFF
:10091D00E49EFEE42001039DFDE49CFCE4CBF8C2C3
:10092D0001EC700CCFCECDCCE824F8F870F3801725
:10093D00C3EF33FFEE33FEED33FDEC33FCEB33FB56
:10094D00994002FB0FD8E9EB300105F8D0E0C4481F
:10095D00B201C0E00AEC4D4E4F78207B0070C2EA28
:10096D00B5770040BCC0E01209F3D0F0D0E0200113
:10097D0004C4C0E0C4B201C0F012067CD0F0D5F0C2
:10098D00EB0206CC12060607695308D058073A4CFD
:10099D0007364208D44F08DC4408DC49074F4308AA
:1009AD00E25508134608714507DD470AA850073E72
:1009BD002D07422E07652B0746230763200A912A30
:1009CD0006FE480000075DE577B4FF037577061254
:1009DD000658FC120658FD120658FE120658FF78EE
:1009ED006D0202BA790AA2D5200314300509B91097
:1009FD00020404B9080104A2D52006025001042006
:100A0D0002689202B576005034C0E07F20300319A1
:100A1D007F30A20272067205500F120A4AC202C23C
:100A2D0006C205C2087F30800F300503E9C0E01211
:100A3D000693300503D0E0F9D0E0B576CC3005173C
:100A4D007F30B9100C1206937F583004077F7880E1
:100A5D0003B908031206933002057F2D0206937F1A
:100A6D00202008F87F2B2006F322920280CF7F00F2
:100A7D00B407005005246DF8E6FF22286E756C6CE6
:100A8D002900D2011206583001F8C201787630D50E
:100A9D000108F60206FE2D5043495812065824034C
:100AAD00B405004001E4900AA393120684743A122F
:0A0ABD000684D2037576040208D007
:10024100E9D2E7C933E833F892D5EDD2E7CD33EC03
:0702510033FC5002B2D5227C
:10025800EC30E7100FBF000C0EBE00080DBD000407
:100268000BEB6014A2D5EB13FCED92E7FD2274FFB3
:10027800FCFDFEFF22E480F8A2D574FF13FC7D800C
:03028800E480EF20
:10028B00F920E72824F950037907E4F42402FB183A
:10029B00DBFDE624FB5014E9600DE4F618E604F6EA
:0F02AB00B40A08E4F6D9F57401F60A22C2D52286
:1002BA00ED33EC3392D5FA602AB4FF33EDC2E77B13
:1002CA00FF60067A0279DFE4227A0279E820D5040F
:1002DA007A0279E3224E614E002B494E46002D499F
:1002EA004E4600E47A08F608DAFC7B00740722E836
:1002FA00C0E0ECC0E0EDC0E0EEC0E0EFC0E0EA75BF
:10030A00F010A4CAABF075F04DA42BFBE435F0FC59
:10031A00EA2410FAEB34C5FBEC34D9FCEDC2E7FF52
:10032A0075F056A4F42411C5F0F434C58FF0A42A4C
:10033A00E5F03BE43CF620E7141204E5D0E0FFD0F8
:10034A00E0FED0E0FDD0E0FC12012F8014F404128C
:10035A0004E5D0E0FFD0E0FED0E0FDD0E0FC1200E2
:10036A0026D0E0F8E6FAEDD2E7CD33EC332482FB6F
:10037A00E4C3CF33CFCE33CECD33CD33DBF37B07DC
:10038A0075F00A846004F6081B0AE5F0F6088FF097
:10039A00740AA4FFACF08EF0740AA42CFEACF050E0
:1003AA00010C8DF0740AA42CFDE435F0F608DBDEAE
:0303BA00740722A3
:1003BD00020276E86480F8E933E83360110460F0F6
:1003CD00ED33EC337009E8FCE9FDEAFEEBFF2204A6
:1003DD0060DED3EB9FEA9EE99DE8C2E78CF0C2F7A1
:1003ED0095F0400CE8CCF8E9CDF9EACEFAEBCFFB6D
:1003FD0012024185D0F05804700320D5B3E8047083
:10040D00075002B2D502028092D5EC0460F7E4CC1D
:10041D00C0E0C398F8603B94186008400DD0E0FB35
:10042D00020258E4FBFAC9FC8028E830E406E4C96E
:10043D00FBE4CAFCE830E305E4C9CACBFCE8540789
:10044D006010F8C3E913F9EA13FAEB13FBEC13FC94
:10045D00D8F130F52FC3E49CFCEF9BFFEE9AFEED37
:10046D0099FDD0E0FBEF4E4D4C701222DB030202E2
:10047D007DEC2CFCEF33FFEE33FEED33FDED30E77D
:10048D00EB020258EF2BFFEE3AFEED39FDD0E0FB0B
:10049D0050130BBB0003020280ED13FDEE13FEEFB4
:0804AD0013FFEC13FC020258DE
:1004B5003F8000004120000042C80000447A00004F
:1004C500461C400047C35000497424004B189680D1
:1004D5004CBEBC205A0E1BCA6753C21C749DC5AEC8
:1004E500FB60065407601C2323120513EB54386088
:1004F500091204FF12050E120026ECF8EDF9EEFACA
:10050500EFCB22EB12050E80F1543803241C900426
:10051500B5FE93FC0EEE93FD0EEE930ECE93FF22E9
:03000000020EC924
:0C0EC900787FE4F6D8FD758179020F10E7
:10052500BB010689828A83E0225002E722BBFE02D4
:09053500E32289828A83E4932207
:10053E00BB010CE58229F582E5833AF583E0225072
:10054E0006E92582F8E622BBFE06E92582F8E222BC
:0D055E00E58229F582E5833AF583E49322D6
:10056B00BB010689828A83F0225002F722BBFE016F
:02057B00F32269
:10057D00BC000BBE0029EF8DF084FFADF022E4CC62
:10058D00F875F008EF2FFFEE33FEEC33FCEE9DEC2B
:10059D00984005FCEE9DFE0FD5F0E9E4CEFD22ED71
:1005AD00F8F5F0EE8420D21CFEADF075F008EF2FBB
:1005BD00FFED33FD4007985006D5F0F222C398FDAC
:0505CD000FD5F0EA2249
:0E05D200C3E49FFFE49EFEE49DFDE49CFC223A
:1005E000EB9FF5F0EA9E42F0E99D42F0EC6480C892
:0605F00064809845F02232
:1005F600FAE6FB0808E6F925F0F618E6CA3AF62206
:10060600D083D082F8E4937012740193700DA3A383
:1006160093F8740193F5828883E473740293686097
:06062600EFA3A3A380DF97
:10062C00EF4E6012EF60010EEDBB010B89828A83E5
:10063C00F0A3DFFCDEFA2289F05007F709DFFCA9F2
:0C064C00F022BBFEFCF309DFFCA9F02249
:100ED500021050E493A3F8E493A34003F68001F2D3
:100EE50008DFF48029E493A3F85407240CC8C3331E
:100EF500C4540F4420C8834004F456800146F6DFED
:100F0500E4800B0102040810204080901198E47ED3
:100F1500019360BCA3FF543F30E509541FFEE493E1
:100F2500A360010ECF54C025E060A840B8E493A3A8
:100F3500FAE493A3F8E493A3C8C582C8CAC583CAD3
:100F4500F0A3C8C582C8CAC583CADFE9DEE780BE8B
:0111D7000017
:00000001FF
